{"contracts/FlashBot.sol":{"FlashBot":{"abi":[{"anonymous":false,"inputs":[{"indexed":true,"internalType":"address","name":"previousOwner","type":"address"},{"indexed":true,"internalType":"address","name":"newOwner","type":"address"}],"name":"OwnershipTransferred","type":"event"},{"stateMutability":"payable","type":"fallback"},{"inputs":[{"internalType":"address","name":"sender","type":"address"},{"internalType":"uint256","name":"amount0","type":"uint256"},{"internalType":"uint256","name":"amount1","type":"uint256"},{"internalType":"bytes","name":"data","type":"bytes"}],"name":"apeCall","outputs":[],"stateMutability":"nonpayable","type":"function"},{"inputs":[{"internalType":"address","name":"factoryAddress","type":"address"},{"internalType":"uint256","name":"startIndex","type":"uint256"},{"internalType":"uint256","name":"endIndex","type":"uint256"}],"name":"batchPairInfo","outputs":[{"components":[{"internalType":"address","name":"pairAddress","type":"address"},{"internalType":"address","name":"token0Address","type":"address"},{"internalType":"address","name":"token1Address","type":"address"},{"internalType":"string","name":"token0Symbol","type":"string"},{"internalType":"string","name":"token1Symbol","type":"string"},{"internalType":"uint112","name":"reserve0","type":"uint112"},{"internalType":"uint112","name":"reserve1","type":"uint112"}],"internalType":"struct IFlashBot.PairInfo[]","name":"","type":"tuple[]"}],"stateMutability":"view","type":"function"},{"inputs":[{"components":[{"internalType":"uint256","name":"amountIn","type":"uint256"},{"internalType":"address[]","name":"path","type":"address[]"},{"internalType":"address[]","name":"router","type":"address[]"}],"internalType":"struct IFlashBot.SwapParam[]","name":"paramList","type":"tuple[]"}],"name":"batchSwapAmountOut","outputs":[{"internalType":"uint256[]","name":"","type":"uint256[]"}],"stateMutability":"view","type":"function"},{"inputs":[{"internalType":"address","name":"sender","type":"address"},{"internalType":"uint256","name":"amount0","type":"uint256"},{"internalType":"uint256","name":"amount1","type":"uint256"},{"internalType":"bytes","name":"data","type":"bytes"}],"name":"cafeCall","outputs":[],"stateMutability":"nonpayable","type":"function"},{"inputs":[{"components":[{"internalType":"uint256","name":"amountIn","type":"uint256"},{"internalType":"address[]","name":"path","type":"address[]"},{"internalType":"address[]","name":"router","type":"address[]"}],"internalType":"struct IFlashBot.SwapParam","name":"param","type":"tuple"}],"name":"computeSwapAmountOut","outputs":[{"internalType":"uint256","name":"","type":"uint256"}],"stateMutability":"view","type":"function"},{"inputs":[{"components":[{"internalType":"uint256","name":"amountIn","type":"uint256"},{"internalType":"address[]","name":"path","type":"address[]"},{"internalType":"address[]","name":"router","type":"address[]"}],"internalType":"struct IFlashBot.SwapParam","name":"param","type":"tuple"}],"name":"computeSwapAmountsOut","outputs":[{"internalType":"uint256[]","name":"","type":"uint256[]"}],"stateMutability":"view","type":"function"},{"inputs":[{"internalType":"address","name":"sender","type":"address"},{"internalType":"uint256","name":"amount0","type":"uint256"},{"internalType":"uint256","name":"amount1","type":"uint256"},{"internalType":"bytes","name":"data","type":"bytes"}],"name":"elkCall","outputs":[],"stateMutability":"nonpayable","type":"function"},{"inputs":[{"components":[{"internalType":"uint256","name":"amountIn","type":"uint256"},{"internalType":"address[]","name":"path","type":"address[]"},{"internalType":"address[]","name":"router","type":"address[]"}],"internalType":"struct IFlashBot.SwapParam","name":"param","type":"tuple"}],"name":"executeArbitrageFlashSwap","outputs":[],"stateMutability":"nonpayable","type":"function"},{"inputs":[{"components":[{"internalType":"uint256","name":"amountIn","type":"uint256"},{"internalType":"address[]","name":"path","type":"address[]"},{"internalType":"address[]","name":"router","type":"address[]"}],"internalType":"struct IFlashBot.SwapParam","name":"param","type":"tuple"}],"name":"executeArbitrageSwap","outputs":[],"stateMutability":"nonpayable","type":"function"},{"inputs":[{"components":[{"internalType":"uint256","name":"amountIn","type":"uint256"},{"internalType":"address[]","name":"path","type":"address[]"},{"internalType":"address[]","name":"router","type":"address[]"}],"internalType":"struct IFlashBot.SwapParam","name":"param","type":"tuple"}],"name":"executeFlashSwap","outputs":[],"stateMutability":"nonpayable","type":"function"},{"inputs":[{"components":[{"internalType":"uint256","name":"amountIn","type":"uint256"},{"internalType":"address[]","name":"path","type":"address[]"},{"internalType":"address[]","name":"router","type":"address[]"}],"internalType":"struct IFlashBot.SwapParam","name":"param","type":"tuple"}],"name":"executeSwap","outputs":[],"stateMutability":"nonpayable","type":"function"},{"inputs":[{"internalType":"address","name":"factoryAddress","type":"address"},{"internalType":"uint256","name":"index","type":"uint256"}],"name":"getPairInfo","outputs":[{"components":[{"internalType":"address","name":"pairAddress","type":"address"},{"internalType":"address","name":"token0Address","type":"address"},{"internalType":"address","name":"token1Address","type":"address"},{"internalType":"string","name":"token0Symbol","type":"string"},{"internalType":"string","name":"token1Symbol","type":"string"},{"internalType":"uint112","name":"reserve0","type":"uint112"},{"internalType":"uint112","name":"reserve1","type":"uint112"}],"internalType":"struct IFlashBot.PairInfo","name":"","type":"tuple"}],"stateMutability":"view","type":"function"},{"inputs":[{"internalType":"address","name":"sender","type":"address"},{"internalType":"uint256","name":"amount0","type":"uint256"},{"internalType":"uint256","name":"amount1","type":"uint256"},{"internalType":"bytes","name":"data","type":"bytes"}],"name":"jetswapCall","outputs":[],"stateMutability":"nonpayable","type":"function"},{"inputs":[],"name":"owner","outputs":[{"internalType":"address","name":"","type":"address"}],"stateMutability":"view","type":"function"},{"inputs":[],"name":"renounceOwnership","outputs":[],"stateMutability":"nonpayable","type":"function"},{"inputs":[{"components":[{"internalType":"uint256","name":"amountIn","type":"uint256"},{"internalType":"address[]","name":"path","type":"address[]"},{"internalType":"address[]","name":"router","type":"address[]"}],"internalType":"struct IFlashBot.SwapParam","name":"param","type":"tuple"}],"name":"startFlash","outputs":[],"stateMutability":"nonpayable","type":"function"},{"inputs":[{"internalType":"address","name":"newOwner","type":"address"}],"name":"transferOwnership","outputs":[],"stateMutability":"nonpayable","type":"function"},{"inputs":[{"internalType":"address","name":"sender","type":"address"},{"internalType":"uint256","name":"amount0","type":"uint256"},{"internalType":"uint256","name":"amount1","type":"uint256"},{"internalType":"bytes","name":"data","type":"bytes"}],"name":"uniswapV2Call","outputs":[],"stateMutability":"nonpayable","type":"function"},{"inputs":[{"internalType":"address","name":"sender","type":"address"},{"internalType":"uint256","name":"amount0","type":"uint256"},{"internalType":"uint256","name":"amount1","type":"uint256"},{"internalType":"bytes","name":"data","type":"bytes"}],"name":"waultSwapCall","outputs":[],"stateMutability":"nonpayable","type":"function"},{"inputs":[],"name":"withdraw","outputs":[],"stateMutability":"nonpayable","type":"function"},{"inputs":[{"internalType":"address","name":"to","type":"address"}],"name":"withdrawTo","outputs":[],"stateMutability":"nonpayable","type":"function"},{"inputs":[{"internalType":"address[]","name":"tokens","type":"address[]"}],"name":"withdrawToken","outputs":[],"stateMutability":"nonpayable","type":"function"},{"inputs":[{"internalType":"address[]","name":"tokens","type":"address[]"},{"internalType":"address","name":"to","type":"address"}],"name":"withdrawToken","outputs":[],"stateMutability":"nonpayable","type":"function"},{"stateMutability":"payable","type":"receive"}],"evm":{"bytecode":{"linkReferences":{},"object":"60806040523480156200001157600080fd5b5062000032620000266200003860201b60201c565b6200004060201b60201c565b62000104565b600033905090565b60008060009054906101000a900473ffffffffffffffffffffffffffffffffffffffff169050816000806101000a81548173ffffffffffffffffffffffffffffffffffffffff021916908373ffffffffffffffffffffffffffffffffffffffff1602179055508173ffffffffffffffffffffffffffffffffffffffff168173ffffffffffffffffffffffffffffffffffffffff167f8be0079c531659141344cd1fd0a4f28419497f9722a3daafe3b4186f6b6457e060405160405180910390a35050565b6150c880620001146000396000f3fe6080604052600436106101445760003560e01c8063715018a6116100b6578063b8aaacff1161006f578063b8aaacff14610434578063b93a4c6e1461045d578063becda3631461049a578063eb799234146104c3578063ec78ce50146104ec578063f2fde38b146105155761014b565b8063715018a61461033a57806372b0d90c146103515780637b191ff21461037a578063859657a2146103a3578063867f8ad0146103cc5780638da5cb5b146104095761014b565b80633ccfd60b116101085780633ccfd60b146102425780633fc0168514610259578063415efd9514610282578063485f3994146102ab5780634b0879fe146102d45780637125010d146102fd5761014b565b8063078454691461014d57806307d3513a1461017657806309d352961461019f57806310d1e85c146101dc5780632bc6aa97146102055761014b565b3661014b57005b005b34801561015957600080fd5b50610174600480360381019061016f9190613c92565b61053e565b005b34801561018257600080fd5b5061019d60048036038101906101989190613a85565b610541565b005b3480156101ab57600080fd5b506101c660048036038101906101c19190613c92565b610555565b6040516101d39190614700565b60405180910390f35b3480156101e857600080fd5b5061020360048036038101906101fe9190613a85565b610d32565b005b34801561021157600080fd5b5061022c60048036038101906102279190613a36565b610d46565b604051610239919061448c565b60405180910390f35b34801561024e57600080fd5b50610257610eaa565b005b34801561026557600080fd5b50610280600480360381019061027b9190613a85565b610f38565b005b34801561028e57600080fd5b506102a960048036038101906102a49190613c92565b610f4c565b005b3480156102b757600080fd5b506102d260048036038101906102cd9190613a85565b61100f565b005b3480156102e057600080fd5b506102fb60048036038101906102f69190613b05565b611023565b005b34801561030957600080fd5b50610324600480360381019061031f9190613cd3565b6110b5565b60405161033191906144ae565b60405180910390f35b34801561034657600080fd5b5061034f6115f3565b005b34801561035d57600080fd5b50610378600480360381019061037391906139a8565b61167b565b005b34801561038657600080fd5b506103a1600480360381019061039c9190613b4a565b611784565b005b3480156103af57600080fd5b506103ca60048036038101906103c59190613c92565b6119e9565b005b3480156103d857600080fd5b506103f360048036038101906103ee9190613ba2565b611eca565b60405161040091906144ae565b60405180910390f35b34801561041557600080fd5b5061041e6120d2565b60405161042b91906143e8565b60405180910390f35b34801561044057600080fd5b5061045b60048036038101906104569190613cd3565b6120fb565b005b34801561046957600080fd5b50610484600480360381019061047f91906139fa565b612528565b60405161049191906146bc565b60405180910390f35b3480156104a657600080fd5b506104c160048036038101906104bc9190613a85565b612805565b005b3480156104cf57600080fd5b506104ea60048036038101906104e59190613c92565b612819565b005b3480156104f857600080fd5b50610513600480360381019061050e9190613a85565b61281c565b005b34801561052157600080fd5b5061053c600480360381019061053791906139a8565b612830565b005b50565b61054e8585858585612928565b5050505050565b60008061056a8361056590614c51565b6110b5565b905060005b83806040019061057f91906147e3565b9050811015610cdb5760008085806020019061059b91906147e3565b848181106105d2577f4e487b7100000000000000000000000000000000000000000000000000000000600052603260045260246000fd5b90506020020160208101906105e791906139a8565b8680602001906105f791906147e3565b6001866106049190614ab8565b81811061063a577f4e487b7100000000000000000000000000000000000000000000000000000000600052603260045260246000fd5b905060200201602081019061064f91906139a8565b91509150600061065f8383612be1565b5090506000808273ffffffffffffffffffffffffffffffffffffffff168573ffffffffffffffffffffffffffffffffffffffff16146106e05760008787815181106106d3577f4e487b7100000000000000000000000000000000000000000000000000000000600052603260045260246000fd5b6020026020010151610724565b868681518110610719577f4e487b7100000000000000000000000000000000000000000000000000000000600052603260045260246000fd5b602002602001015160005b915091506000808473ffffffffffffffffffffffffffffffffffffffff168773ffffffffffffffffffffffffffffffffffffffff16146107b2578860018961076c9190614ab8565b815181106107a3577f4e487b7100000000000000000000000000000000000000000000000000000000600052603260045260246000fd5b60200260200101516000610802565b60008960018a6107c29190614ab8565b815181106107f9577f4e487b7100000000000000000000000000000000000000000000000000000000600052603260045260246000fd5b60200260200101515b91509150600061086e8c806040019061081b91906147e3565b8b818110610852577f4e487b7100000000000000000000000000000000000000000000000000000000600052603260045260246000fd5b905060200201602081019061086791906139a8565b8989612d0f565b90506000808273ffffffffffffffffffffffffffffffffffffffff16630902f1ac6040518163ffffffff1660e01b815260040160606040518083038186803b1580156108b957600080fd5b505afa1580156108cd573d6000803e3d6000fd5b505050506040513d601f19601f820116820180604052508101906108f19190613d14565b5091509150816dffffffffffffffffffffffffffff16851080156109245750806dffffffffffffffffffffffffffff1684105b610963576040517f08c379a000000000000000000000000000000000000000000000000000000000815260040161095a9061469c565b60405180910390fd5b60008086898673ffffffffffffffffffffffffffffffffffffffff16630dfe16816040518163ffffffff1660e01b815260040160206040518083038186803b1580156109ae57600080fd5b505afa1580156109c2573d6000803e3d6000fd5b505050506040513d601f19601f820116820180604052508101906109e691906139d1565b73ffffffffffffffffffffffffffffffffffffffff166370a08231886040518263ffffffff1660e01b8152600401610a1e91906143e8565b60206040518083038186803b158015610a3657600080fd5b505afa158015610a4a573d6000803e3d6000fd5b505050506040513d601f19601f82011682018060405250810190610a6e9190613d63565b610a789190614ab8565b610a829190614b99565b915085888673ffffffffffffffffffffffffffffffffffffffff1663d21220a76040518163ffffffff1660e01b815260040160206040518083038186803b158015610acc57600080fd5b505afa158015610ae0573d6000803e3d6000fd5b505050506040513d601f19601f82011682018060405250810190610b0491906139d1565b73ffffffffffffffffffffffffffffffffffffffff166370a08231886040518263ffffffff1660e01b8152600401610b3c91906143e8565b60206040518083038186803b158015610b5457600080fd5b505afa158015610b68573d6000803e3d6000fd5b505050506040513d601f19601f82011682018060405250810190610b8c9190613d63565b610b969190614ab8565b610ba09190614b99565b90506000610bde610bbb60038c612e2790919063ffffffff16565b610bd06103e886612e2790919063ffffffff16565b612e3d90919063ffffffff16565b90506000610c1c610bf960038c612e2790919063ffffffff16565b610c0e6103e886612e2790919063ffffffff16565b612e3d90919063ffffffff16565b9050610c66620f4240610c58876dffffffffffffffffffffffffffff16896dffffffffffffffffffffffffffff16612e2790919063ffffffff16565b612e2790919063ffffffff16565b610c798284612e2790919063ffffffff16565b1015610cba576040517f08c379a0000000000000000000000000000000000000000000000000000000008152600401610cb19061453c565b60405180910390fd5b50505050505050505050505050508080610cd390614cd7565b91505061056f565b508060018251610ceb9190614b99565b81518110610d22577f4e487b7100000000000000000000000000000000000000000000000000000000600052603260045260246000fd5b6020026020010151915050919050565b610d3f8585858585612928565b5050505050565b606082821015610d8b576040517f08c379a0000000000000000000000000000000000000000000000000000000008152600401610d82906145fc565b60405180910390fd5b600060018484610d9b9190614b99565b610da59190614ab8565b67ffffffffffffffff811115610de4577f4e487b7100000000000000000000000000000000000000000000000000000000600052604160045260246000fd5b604051908082528060200260200182016040528015610e1d57816020015b610e0a613559565b815260200190600190039081610e025790505b50905060005b8151811015610e9e5760008582610e3a9190614ab8565b9050610e468782612528565b838381518110610e7f577f4e487b7100000000000000000000000000000000000000000000000000000000600052603260045260246000fd5b6020026020010181905250508080610e9690614cd7565b915050610e23565b50809150509392505050565b610eb2612e53565b73ffffffffffffffffffffffffffffffffffffffff16610ed06120d2565b73ffffffffffffffffffffffffffffffffffffffff1614610f26576040517f08c379a0000000000000000000000000000000000000000000000000000000008152600401610f1d906145dc565b60405180910390fd5b610f36610f316120d2565b61167b565b565b610f458585858585612928565b5050505050565b6000610f6082610f5b90614c51565b6110b5565b905061100b81838060200190610f7691906147e3565b80806020026020016040519081016040528093929190818152602001838360200280828437600081840152601f19601f82011690508083019250505050505050848060400190610fc691906147e3565b80806020026020016040519081016040528093929190818152602001838360200280828437600081840152601f19601f82011690508083019250505050505050612e5b565b5050565b61101c8585858585612928565b5050505050565b61102b612e53565b73ffffffffffffffffffffffffffffffffffffffff166110496120d2565b73ffffffffffffffffffffffffffffffffffffffff161461109f576040517f08c379a0000000000000000000000000000000000000000000000000000000008152600401611096906145dc565b60405180910390fd5b6110b182826110ac6120d2565b611784565b5050565b606060028260200151511015611100576040517f08c379a00000000000000000000000000000000000000000000000000000000081526004016110f79061455c565b60405180910390fd5b81604001515160018360200151516111189190614b99565b14611158576040517f08c379a000000000000000000000000000000000000000000000000000000000815260040161114f906145bc565b60405180910390fd5b600082602001515167ffffffffffffffff81111561119f577f4e487b7100000000000000000000000000000000000000000000000000000000600052604160045260246000fd5b6040519080825280602002602001820160405280156111cd5781602001602082028036833780820191505090505b50905082600001518160008151811061120f577f4e487b7100000000000000000000000000000000000000000000000000000000600052603260045260246000fd5b60200260200101818152505060005b8360400151518110156115e9576000600267ffffffffffffffff81111561126e577f4e487b7100000000000000000000000000000000000000000000000000000000600052604160045260246000fd5b60405190808252806020026020018201604052801561129c5781602001602082028036833780820191505090505b509050846020015182815181106112dc577f4e487b7100000000000000000000000000000000000000000000000000000000600052603260045260246000fd5b60200260200101518160008151811061131e577f4e487b7100000000000000000000000000000000000000000000000000000000600052603260045260246000fd5b602002602001019073ffffffffffffffffffffffffffffffffffffffff16908173ffffffffffffffffffffffffffffffffffffffff1681525050846020015160018361136a9190614ab8565b815181106113a1577f4e487b7100000000000000000000000000000000000000000000000000000000600052603260045260246000fd5b6020026020010151816001815181106113e3577f4e487b7100000000000000000000000000000000000000000000000000000000600052603260045260246000fd5b602002602001019073ffffffffffffffffffffffffffffffffffffffff16908173ffffffffffffffffffffffffffffffffffffffff168152505060008560400151838151811061145c577f4e487b7100000000000000000000000000000000000000000000000000000000600052603260045260246000fd5b602002602001015173ffffffffffffffffffffffffffffffffffffffff1663d06ca61f8585815181106114b8577f4e487b7100000000000000000000000000000000000000000000000000000000600052603260045260246000fd5b6020026020010151846040518363ffffffff1660e01b81526004016114de92919061471b565b60006040518083038186803b1580156114f657600080fd5b505afa15801561150a573d6000803e3d6000fd5b505050506040513d6000823e3d601f19601f820116820180604052508101906115339190613be7565b905080600182516115449190614b99565b8151811061157b577f4e487b7100000000000000000000000000000000000000000000000000000000600052603260045260246000fd5b6020026020010151846001856115919190614ab8565b815181106115c8577f4e487b7100000000000000000000000000000000000000000000000000000000600052603260045260246000fd5b602002602001018181525050505080806115e190614cd7565b91505061121e565b5080915050919050565b6115fb612e53565b73ffffffffffffffffffffffffffffffffffffffff166116196120d2565b73ffffffffffffffffffffffffffffffffffffffff161461166f576040517f08c379a0000000000000000000000000000000000000000000000000000000008152600401611666906145dc565b60405180910390fd5b6116796000613395565b565b611683612e53565b73ffffffffffffffffffffffffffffffffffffffff166116a16120d2565b73ffffffffffffffffffffffffffffffffffffffff16146116f7576040517f08c379a00000000000000000000000000000000000000000000000000000000081526004016116ee906145dc565b60405180910390fd5b6000471161173a576040517f08c379a00000000000000000000000000000000000000000000000000000000081526004016117319061463c565b60405180910390fd5b8073ffffffffffffffffffffffffffffffffffffffff166108fc479081150290604051600060405180830381858888f19350505050158015611780573d6000803e3d6000fd5b5050565b61178c612e53565b73ffffffffffffffffffffffffffffffffffffffff166117aa6120d2565b73ffffffffffffffffffffffffffffffffffffffff1614611800576040517f08c379a00000000000000000000000000000000000000000000000000000000081526004016117f7906145dc565b60405180910390fd5b60005b838390508110156119e3576000848483818110611849577f4e487b7100000000000000000000000000000000000000000000000000000000600052603260045260246000fd5b905060200201602081019061185e91906139a8565b73ffffffffffffffffffffffffffffffffffffffff166370a08231306040518263ffffffff1660e01b815260040161189691906143e8565b60206040518083038186803b1580156118ae57600080fd5b505afa1580156118c2573d6000803e3d6000fd5b505050506040513d601f19601f820116820180604052508101906118e69190613d63565b905060008111156119cf5784848381811061192a577f4e487b7100000000000000000000000000000000000000000000000000000000600052603260045260246000fd5b905060200201602081019061193f91906139a8565b73ffffffffffffffffffffffffffffffffffffffff166323b872dd3085846040518463ffffffff1660e01b815260040161197b9392919061442c565b602060405180830381600087803b15801561199557600080fd5b505af11580156119a9573d6000803e3d6000fd5b505050506040513d601f19601f820116820180604052508101906119cd9190613c28565b505b5080806119db90614cd7565b915050611803565b50505050565b60038180602001906119fb91906147e3565b90501015611a3e576040517f08c379a0000000000000000000000000000000000000000000000000000000008152600401611a359061455c565b60405180910390fd5b808060200190611a4e91906147e3565b6001838060200190611a6091906147e3565b9050611a6c9190614b99565b818110611aa2577f4e487b7100000000000000000000000000000000000000000000000000000000600052603260045260246000fd5b9050602002016020810190611ab791906139a8565b73ffffffffffffffffffffffffffffffffffffffff16818060200190611add91906147e3565b6000818110611b15577f4e487b7100000000000000000000000000000000000000000000000000000000600052603260045260246000fd5b9050602002016020810190611b2a91906139a8565b73ffffffffffffffffffffffffffffffffffffffff1614611b80576040517f08c379a0000000000000000000000000000000000000000000000000000000008152600401611b779061461c565b60405180910390fd5b6000818060200190611b9291906147e3565b6000818110611bca577f4e487b7100000000000000000000000000000000000000000000000000000000600052603260045260246000fd5b9050602002016020810190611bdf91906139a8565b9050600082600001359050600073dac17f958d2ee523a2206206994597c13d831ec79050600073d9e1ce17f2641f24ae83637ab66a2cca9c378b9f905060007306da0fd433c1a5d7a4faa01111c044910a18455390506000808685915091506000611c4a8383612be1565b5090508773ffffffffffffffffffffffffffffffffffffffff168173ffffffffffffffffffffffffffffffffffffffff161415611d17578373ffffffffffffffffffffffffffffffffffffffff1663022c0d9f886000308d604051602001611cb291906146de565b6040516020818303038152906040526040518563ffffffff1660e01b8152600401611ce0949392919061474b565b600060405180830381600087803b158015611cfa57600080fd5b505af1158015611d0e573d6000803e3d6000fd5b50505050611da9565b8373ffffffffffffffffffffffffffffffffffffffff1663022c0d9f600089308d604051602001611d4891906146de565b6040516020818303038152906040526040518563ffffffff1660e01b8152600401611d7694939291906144d0565b600060405180830381600087803b158015611d9057600080fd5b505af1158015611da4573d6000803e3d6000fd5b505050505b8773ffffffffffffffffffffffffffffffffffffffff1663a9059cbb338a73ffffffffffffffffffffffffffffffffffffffff166370a08231306040518263ffffffff1660e01b8152600401611dff91906143e8565b60206040518083038186803b158015611e1757600080fd5b505afa158015611e2b573d6000803e3d6000fd5b505050506040513d601f19601f82011682018060405250810190611e4f9190613d63565b6040518363ffffffff1660e01b8152600401611e6c929190614463565b602060405180830381600087803b158015611e8657600080fd5b505af1158015611e9a573d6000803e3d6000fd5b505050506040513d601f19601f82011682018060405250810190611ebe9190613c28565b50505050505050505050565b606060008383905067ffffffffffffffff811115611f11577f4e487b7100000000000000000000000000000000000000000000000000000000600052604160045260246000fd5b604051908082528060200260200182016040528015611f3f5781602001602082028036833780820191505090505b50905060005b848490508110156120c7573073ffffffffffffffffffffffffffffffffffffffff166309d35296868684818110611fa5577f4e487b7100000000000000000000000000000000000000000000000000000000600052603260045260246000fd5b9050602002810190611fb7919061483a565b6040518263ffffffff1660e01b8152600401611fd391906146de565b60206040518083038186803b158015611feb57600080fd5b505afa92505050801561201c57506040513d601f19601f820116820180604052508101906120199190613d63565b60015b61206c57600082828151811061205b577f4e487b7100000000000000000000000000000000000000000000000000000000600052603260045260246000fd5b6020026020010181815250506120b4565b808383815181106120a6577f4e487b7100000000000000000000000000000000000000000000000000000000600052603260045260246000fd5b602002602001018181525050505b80806120bf90614cd7565b915050611f45565b508091505092915050565b60008060009054906101000a900473ffffffffffffffffffffffffffffffffffffffff16905090565b60038160200151511015612144576040517f08c379a000000000000000000000000000000000000000000000000000000000815260040161213b9061455c565b60405180910390fd5b8060200151600182602001515161215b9190614b99565b81518110612192577f4e487b7100000000000000000000000000000000000000000000000000000000600052603260045260246000fd5b602002602001015173ffffffffffffffffffffffffffffffffffffffff1681602001516000815181106121ee577f4e487b7100000000000000000000000000000000000000000000000000000000600052603260045260246000fd5b602002602001015173ffffffffffffffffffffffffffffffffffffffff161461224c576040517f08c379a00000000000000000000000000000000000000000000000000000000081526004016122439061461c565b60405180910390fd5b6000612257826110b5565b905080600081518110612293577f4e487b7100000000000000000000000000000000000000000000000000000000600052603260045260246000fd5b602002602001015181600183516122aa9190614b99565b815181106122e1577f4e487b7100000000000000000000000000000000000000000000000000000000600052603260045260246000fd5b602002602001015111612329576040517f08c379a00000000000000000000000000000000000000000000000000000000081526004016123209061465c565b60405180910390fd5b60008260200151600081518110612369577f4e487b7100000000000000000000000000000000000000000000000000000000600052603260045260246000fd5b602002602001015173ffffffffffffffffffffffffffffffffffffffff166370a08231306040518263ffffffff1660e01b81526004016123a991906143e8565b60206040518083038186803b1580156123c157600080fd5b505afa1580156123d5573d6000803e3d6000fd5b505050506040513d601f19601f820116820180604052508101906123f99190613d63565b905061240e8284602001518560400151612e5b565b6000836020015160008151811061244e577f4e487b7100000000000000000000000000000000000000000000000000000000600052603260045260246000fd5b602002602001015173ffffffffffffffffffffffffffffffffffffffff166370a08231306040518263ffffffff1660e01b815260040161248e91906143e8565b60206040518083038186803b1580156124a657600080fd5b505afa1580156124ba573d6000803e3d6000fd5b505050506040513d601f19601f820116820180604052508101906124de9190613d63565b9050818111612522576040517f08c379a00000000000000000000000000000000000000000000000000000000081526004016125199061457c565b60405180910390fd5b50505050565b612530613559565b60008373ffffffffffffffffffffffffffffffffffffffff16631e3dd18b846040518263ffffffff1660e01b815260040161256b9190614700565b60206040518083038186803b15801561258357600080fd5b505afa158015612597573d6000803e3d6000fd5b505050506040513d601f19601f820116820180604052508101906125bb91906139d1565b905060008173ffffffffffffffffffffffffffffffffffffffff16630dfe16816040518163ffffffff1660e01b815260040160206040518083038186803b15801561260557600080fd5b505afa158015612619573d6000803e3d6000fd5b505050506040513d601f19601f8201168201806040525081019061263d91906139d1565b9050600061264a82613459565b905060008373ffffffffffffffffffffffffffffffffffffffff1663d21220a76040518163ffffffff1660e01b815260040160206040518083038186803b15801561269457600080fd5b505afa1580156126a8573d6000803e3d6000fd5b505050506040513d601f19601f820116820180604052508101906126cc91906139d1565b905060006126d982613459565b90506000808673ffffffffffffffffffffffffffffffffffffffff16630902f1ac6040518163ffffffff1660e01b815260040160606040518083038186803b15801561272457600080fd5b505afa158015612738573d6000803e3d6000fd5b505050506040513d601f19601f8201168201806040525081019061275c9190613d14565b50915091506040518060e001604052808873ffffffffffffffffffffffffffffffffffffffff1681526020018773ffffffffffffffffffffffffffffffffffffffff1681526020018573ffffffffffffffffffffffffffffffffffffffff168152602001868152602001848152602001836dffffffffffffffffffffffffffff168152602001826dffffffffffffffffffffffffffff1681525097505050505050505092915050565b6128128585858585612928565b5050505050565b50565b6128298585858585612928565b5050505050565b612838612e53565b73ffffffffffffffffffffffffffffffffffffffff166128566120d2565b73ffffffffffffffffffffffffffffffffffffffff16146128ac576040517f08c379a00000000000000000000000000000000000000000000000000000000081526004016128a3906145dc565b60405180910390fd5b600073ffffffffffffffffffffffffffffffffffffffff168173ffffffffffffffffffffffffffffffffffffffff16141561291c576040517f08c379a00000000000000000000000000000000000000000000000000000000081526004016129139061451c565b60405180910390fd5b61292581613395565b50565b600067ffffffffffffffff811115612969577f4e487b7100000000000000000000000000000000000000000000000000000000600052604160045260246000fd5b6040519080825280601f01601f19166020018201604052801561299b5781602001600182028036833780820191505090505b508051906020012082826040516129b39291906143cf565b604051809103902014612bda5760003373ffffffffffffffffffffffffffffffffffffffff16630dfe16816040518163ffffffff1660e01b815260040160206040518083038186803b158015612a0857600080fd5b505afa158015612a1c573d6000803e3d6000fd5b505050506040513d601f19601f82011682018060405250810190612a4091906139d1565b905060003373ffffffffffffffffffffffffffffffffffffffff1663d21220a76040518163ffffffff1660e01b815260040160206040518083038186803b158015612a8a57600080fd5b505afa158015612a9e573d6000803e3d6000fd5b505050506040513d601f19601f82011682018060405250810190612ac291906139d1565b9050612adb8484810190612ad69190613cd3565b6120fb565b600060016103e5600360008a11612af25788612af4565b895b612afe9190614b3f565b612b089190614b0e565b612b129190614ab8565b905060008160008911612b255787612b27565b885b612b319190614ab8565b90506000808911612b425783612b44565b845b90508073ffffffffffffffffffffffffffffffffffffffff1663a9059cbb33846040518363ffffffff1660e01b8152600401612b81929190614463565b602060405180830381600087803b158015612b9b57600080fd5b505af1158015612baf573d6000803e3d6000fd5b505050506040513d601f19601f82011682018060405250810190612bd39190613c28565b5050505050505b5050505050565b6000808273ffffffffffffffffffffffffffffffffffffffff168473ffffffffffffffffffffffffffffffffffffffff161415612c53576040517f08c379a0000000000000000000000000000000000000000000000000000000008152600401612c4a9061459c565b60405180910390fd5b8273ffffffffffffffffffffffffffffffffffffffff168473ffffffffffffffffffffffffffffffffffffffff1610612c8d578284612c90565b83835b8092508193505050600073ffffffffffffffffffffffffffffffffffffffff168273ffffffffffffffffffffffffffffffffffffffff161415612d08576040517f08c379a0000000000000000000000000000000000000000000000000000000008152600401612cff9061467c565b60405180910390fd5b9250929050565b6000808473ffffffffffffffffffffffffffffffffffffffff1663c45a01556040518163ffffffff1660e01b815260040160206040518083038186803b158015612d5857600080fd5b505afa158015612d6c573d6000803e3d6000fd5b505050506040513d601f19601f82011682018060405250810190612d9091906139d1565b90508073ffffffffffffffffffffffffffffffffffffffff1663e6a4390585856040518363ffffffff1660e01b8152600401612dcd929190614403565b60206040518083038186803b158015612de557600080fd5b505afa158015612df9573d6000803e3d6000fd5b505050506040513d601f19601f82011682018060405250810190612e1d91906139d1565b9150509392505050565b60008183612e359190614b3f565b905092915050565b60008183612e4b9190614b99565b905092915050565b600033905090565b6000612f2b82600081518110612e9a577f4e487b7100000000000000000000000000000000000000000000000000000000600052603260045260246000fd5b602002602001015184600081518110612edc577f4e487b7100000000000000000000000000000000000000000000000000000000600052603260045260246000fd5b602002602001015185600181518110612f1e577f4e487b7100000000000000000000000000000000000000000000000000000000600052603260045260246000fd5b6020026020010151612d0f565b905082600081518110612f67577f4e487b7100000000000000000000000000000000000000000000000000000000600052603260045260246000fd5b602002602001015173ffffffffffffffffffffffffffffffffffffffff1663a9059cbb8286600081518110612fc5577f4e487b7100000000000000000000000000000000000000000000000000000000600052603260045260246000fd5b60200260200101516040518363ffffffff1660e01b8152600401612fea929190614463565b602060405180830381600087803b15801561300457600080fd5b505af1158015613018573d6000803e3d6000fd5b505050506040513d601f19601f8201168201806040525081019061303c9190613c28565b5060005b825181101561338e57600080858381518110613085577f4e487b7100000000000000000000000000000000000000000000000000000000600052603260045260246000fd5b60200260200101518660018561309b9190614ab8565b815181106130d2577f4e487b7100000000000000000000000000000000000000000000000000000000600052603260045260246000fd5b60200260200101519150915060006130ea8383612be1565b5090506000886001866130fd9190614ab8565b81518110613134577f4e487b7100000000000000000000000000000000000000000000000000000000600052603260045260246000fd5b602002602001015190506000808373ffffffffffffffffffffffffffffffffffffffff168673ffffffffffffffffffffffffffffffffffffffff161461317c57826000613180565b6000835b91509150600060018a516131949190614b99565b88106131a05730613244565b6132438a60018a6131b19190614ab8565b815181106131e8577f4e487b7100000000000000000000000000000000000000000000000000000000600052603260045260246000fd5b6020026020010151878d60028c6131ff9190614ab8565b81518110613236577f4e487b7100000000000000000000000000000000000000000000000000000000600052603260045260246000fd5b6020026020010151612d0f565b5b90506132918a8981518110613282577f4e487b7100000000000000000000000000000000000000000000000000000000600052603260045260246000fd5b60200260200101518888612d0f565b73ffffffffffffffffffffffffffffffffffffffff1663022c0d9f848484600067ffffffffffffffff8111156132f0577f4e487b7100000000000000000000000000000000000000000000000000000000600052604160045260246000fd5b6040519080825280601f01601f1916602001820160405280156133225781602001600182028036833780820191505090505b506040518563ffffffff1660e01b81526004016133429493929190614797565b600060405180830381600087803b15801561335c57600080fd5b505af1158015613370573d6000803e3d6000fd5b5050505050505050505050808061338690614cd7565b915050613040565b5050505050565b60008060009054906101000a900473ffffffffffffffffffffffffffffffffffffffff169050816000806101000a81548173ffffffffffffffffffffffffffffffffffffffff021916908373ffffffffffffffffffffffffffffffffffffffff1602179055508173ffffffffffffffffffffffffffffffffffffffff168173ffffffffffffffffffffffffffffffffffffffff167f8be0079c531659141344cd1fd0a4f28419497f9722a3daafe3b4186f6b6457e060405160405180910390a35050565b606061347a8273ffffffffffffffffffffffffffffffffffffffff16613536565b61349557604051806020016040528060008152509050613531565b8173ffffffffffffffffffffffffffffffffffffffff166395d89b416040518163ffffffff1660e01b815260040160006040518083038186803b1580156134db57600080fd5b505afa92505050801561351157506040513d6000823e3d601f19601f8201168201806040525081019061350e9190613c51565b60015b61352c57604051806020016040528060008152509050613531565b809150505b919050565b6000808273ffffffffffffffffffffffffffffffffffffffff163b119050919050565b6040518060e00160405280600073ffffffffffffffffffffffffffffffffffffffff168152602001600073ffffffffffffffffffffffffffffffffffffffff168152602001600073ffffffffffffffffffffffffffffffffffffffff168152602001606081526020016060815260200160006dffffffffffffffffffffffffffff16815260200160006dffffffffffffffffffffffffffff1681525090565b600061360b61360684614883565b61485e565b9050808382526020820190508285602086028201111561362a57600080fd5b60005b8581101561365a5781613640888261370e565b84526020840193506020830192505060018101905061362d565b5050509392505050565b6000613677613672846148af565b61485e565b9050808382526020820190508285602086028201111561369657600080fd5b60005b858110156136c657816136ac888261397e565b845260208401935060208301925050600181019050613699565b5050509392505050565b60006136e36136de846148db565b61485e565b9050828152602081018484840111156136fb57600080fd5b613706848285614c73565b509392505050565b60008135905061371d8161501f565b92915050565b6000815190506137328161501f565b92915050565b60008083601f84011261374a57600080fd5b8235905067ffffffffffffffff81111561376357600080fd5b60208301915083602082028301111561377b57600080fd5b9250929050565b600082601f83011261379357600080fd5b81356137a38482602086016135f8565b91505092915050565b60008083601f8401126137be57600080fd5b8235905067ffffffffffffffff8111156137d757600080fd5b6020830191508360208202830111156137ef57600080fd5b9250929050565b600082601f83011261380757600080fd5b8151613817848260208601613664565b91505092915050565b60008151905061382f81615036565b92915050565b60008083601f84011261384757600080fd5b8235905067ffffffffffffffff81111561386057600080fd5b60208301915083600182028301111561387857600080fd5b9250929050565b600082601f83011261389057600080fd5b81516138a08482602086016136d0565b91505092915050565b6000606082840312156138bb57600080fd5b81905092915050565b6000606082840312156138d657600080fd5b6138e0606061485e565b905060006138f084828501613969565b600083015250602082013567ffffffffffffffff81111561391057600080fd5b61391c84828501613782565b602083015250604082013567ffffffffffffffff81111561393c57600080fd5b61394884828501613782565b60408301525092915050565b6000815190506139638161504d565b92915050565b60008135905061397881615064565b92915050565b60008151905061398d81615064565b92915050565b6000815190506139a28161507b565b92915050565b6000602082840312156139ba57600080fd5b60006139c88482850161370e565b91505092915050565b6000602082840312156139e357600080fd5b60006139f184828501613723565b91505092915050565b60008060408385031215613a0d57600080fd5b6000613a1b8582860161370e565b9250506020613a2c85828601613969565b9150509250929050565b600080600060608486031215613a4b57600080fd5b6000613a598682870161370e565b9350506020613a6a86828701613969565b9250506040613a7b86828701613969565b9150509250925092565b600080600080600060808688031215613a9d57600080fd5b6000613aab8882890161370e565b9550506020613abc88828901613969565b9450506040613acd88828901613969565b935050606086013567ffffffffffffffff811115613aea57600080fd5b613af688828901613835565b92509250509295509295909350565b60008060208385031215613b1857600080fd5b600083013567ffffffffffffffff811115613b3257600080fd5b613b3e85828601613738565b92509250509250929050565b600080600060408486031215613b5f57600080fd5b600084013567ffffffffffffffff811115613b7957600080fd5b613b8586828701613738565b93509350506020613b988682870161370e565b9150509250925092565b60008060208385031215613bb557600080fd5b600083013567ffffffffffffffff811115613bcf57600080fd5b613bdb858286016137ac565b92509250509250929050565b600060208284031215613bf957600080fd5b600082015167ffffffffffffffff811115613c1357600080fd5b613c1f848285016137f6565b91505092915050565b600060208284031215613c3a57600080fd5b6000613c4884828501613820565b91505092915050565b600060208284031215613c6357600080fd5b600082015167ffffffffffffffff811115613c7d57600080fd5b613c898482850161387f565b91505092915050565b600060208284031215613ca457600080fd5b600082013567ffffffffffffffff811115613cbe57600080fd5b613cca848285016138a9565b91505092915050565b600060208284031215613ce557600080fd5b600082013567ffffffffffffffff811115613cff57600080fd5b613d0b848285016138c4565b91505092915050565b600080600060608486031215613d2957600080fd5b6000613d3786828701613954565b9350506020613d4886828701613954565b9250506040613d5986828701613993565b9150509250925092565b600060208284031215613d7557600080fd5b6000613d838482850161397e565b91505092915050565b6000613d988383613dd0565b60208301905092915050565b6000613db083836141e9565b905092915050565b6000613dc483836143b1565b60208301905092915050565b613dd981614bcd565b82525050565b613de881614bcd565b82525050565b6000613dfa83856149b1565b9350613e058261490c565b8060005b85811015613e3e57613e1b8284614a33565b613e258882613d8c565b9750613e308361497d565b925050600181019050613e09565b5085925050509392505050565b6000613e5682614946565b613e6081856149c2565b9350613e6b83614916565b8060005b83811015613e9c578151613e838882613d8c565b9750613e8e8361498a565b925050600181019050613e6f565b5085935050505092915050565b6000613eb482614951565b613ebe81856149d3565b935083602082028501613ed085614926565b8060005b85811015613f0c5784840389528151613eed8582613da4565b9450613ef883614997565b925060208a01995050600181019050613ed4565b50829750879550505050505092915050565b6000613f298261495c565b613f3381856149e4565b9350613f3e83614936565b8060005b83811015613f6f578151613f568882613db8565b9750613f61836149a4565b925050600181019050613f42565b5085935050505092915050565b6000613f888385614a06565b9350613f95838584614c64565b82840190509392505050565b6000613fac82614967565b613fb681856149f5565b9350613fc6818560208601614c73565b613fcf81614dad565b840191505092915050565b613fe381614c3f565b82525050565b6000613ff482614972565b613ffe8185614a11565b935061400e818560208601614c73565b61401781614dad565b840191505092915050565b600061402f602683614a22565b915061403a82614dbe565b604082019050919050565b6000614052600b83614a22565b915061405d82614e0d565b602082019050919050565b6000614075600a83614a22565b915061408082614e36565b602082019050919050565b6000614098601183614a22565b91506140a382614e5f565b602082019050919050565b60006140bb602583614a22565b91506140c682614e88565b604082019050919050565b60006140de600c83614a22565b91506140e982614ed7565b602082019050919050565b6000614101602083614a22565b915061410c82614f00565b602082019050919050565b6000614124600b83614a22565b915061412f82614f29565b602082019050919050565b6000614147600b83614a22565b915061415282614f52565b602082019050919050565b600061416a601483614a22565b915061417582614f7b565b602082019050919050565b600061418d600c83614a22565b915061419882614fa4565b602082019050919050565b60006141b0601e83614a22565b91506141bb82614fcd565b602082019050919050565b60006141d3602083614a22565b91506141de82614ff6565b602082019050919050565b600060e0830160008301516142016000860182613dd0565b5060208301516142146020860182613dd0565b5060408301516142276040860182613dd0565b506060830151848203606086015261423f8282613fe9565b915050608083015184820360808601526142598282613fe9565b91505060a083015161426e60a08601826143a2565b5060c083015161428160c08601826143a2565b508091505092915050565b600060e0830160008301516142a46000860182613dd0565b5060208301516142b76020860182613dd0565b5060408301516142ca6040860182613dd0565b50606083015184820360608601526142e28282613fe9565b915050608083015184820360808601526142fc8282613fe9565b91505060a083015161431160a08601826143a2565b5060c083015161432460c08601826143a2565b508091505092915050565b6000606083016143426000840184614aa1565b61434f60008601826143b1565b5061435d6020840184614a4a565b8583036020870152614370838284613dee565b925050506143816040840184614a4a565b8583036040870152614394838284613dee565b925050508091505092915050565b6143ab81614beb565b82525050565b6143ba81614c25565b82525050565b6143c981614c25565b82525050565b60006143dc828486613f7c565b91508190509392505050565b60006020820190506143fd6000830184613ddf565b92915050565b60006040820190506144186000830185613ddf565b6144256020830184613ddf565b9392505050565b60006060820190506144416000830186613ddf565b61444e6020830185613ddf565b61445b60408301846143c0565b949350505050565b60006040820190506144786000830185613ddf565b61448560208301846143c0565b9392505050565b600060208201905081810360008301526144a68184613ea9565b905092915050565b600060208201905081810360008301526144c88184613f1e565b905092915050565b60006080820190506144e56000830187613fda565b6144f260208301866143c0565b6144ff6040830185613ddf565b81810360608301526145118184613fa1565b905095945050505050565b6000602082019050818103600083015261453581614022565b9050919050565b6000602082019050818103600083015261455581614045565b9050919050565b6000602082019050818103600083015261457581614068565b9050919050565b600060208201905081810360008301526145958161408b565b9050919050565b600060208201905081810360008301526145b5816140ae565b9050919050565b600060208201905081810360008301526145d5816140d1565b9050919050565b600060208201905081810360008301526145f5816140f4565b9050919050565b6000602082019050818103600083015261461581614117565b9050919050565b600060208201905081810360008301526146358161413a565b9050919050565b600060208201905081810360008301526146558161415d565b9050919050565b6000602082019050818103600083015261467581614180565b9050919050565b60006020820190508181036000830152614695816141a3565b9050919050565b600060208201905081810360008301526146b5816141c6565b9050919050565b600060208201905081810360008301526146d6818461428c565b905092915050565b600060208201905081810360008301526146f8818461432f565b905092915050565b600060208201905061471560008301846143c0565b92915050565b600060408201905061473060008301856143c0565b81810360208301526147428184613e4b565b90509392505050565b600060808201905061476060008301876143c0565b61476d6020830186613fda565b61477a6040830185613ddf565b818103606083015261478c8184613fa1565b905095945050505050565b60006080820190506147ac60008301876143c0565b6147b960208301866143c0565b6147c66040830185613ddf565b81810360608301526147d88184613fa1565b905095945050505050565b600080833560016020038436030381126147fc57600080fd5b80840192508235915067ffffffffffffffff82111561481a57600080fd5b60208301925060208202360383131561483257600080fd5b509250929050565b60008235600160600383360303811261485257600080fd5b80830191505092915050565b6000614868614879565b90506148748282614ca6565b919050565b6000604051905090565b600067ffffffffffffffff82111561489e5761489d614d7e565b5b602082029050602081019050919050565b600067ffffffffffffffff8211156148ca576148c9614d7e565b5b602082029050602081019050919050565b600067ffffffffffffffff8211156148f6576148f5614d7e565b5b6148ff82614dad565b9050602081019050919050565b6000819050919050565b6000819050602082019050919050565b6000819050602082019050919050565b6000819050602082019050919050565b600081519050919050565b600081519050919050565b600081519050919050565b600081519050919050565b600081519050919050565b6000602082019050919050565b6000602082019050919050565b6000602082019050919050565b6000602082019050919050565b600082825260208201905092915050565b600082825260208201905092915050565b600082825260208201905092915050565b600082825260208201905092915050565b600082825260208201905092915050565b600081905092915050565b600082825260208201905092915050565b600082825260208201905092915050565b6000614a42602084018461370e565b905092915050565b60008083356001602003843603038112614a6357600080fd5b83810192508235915060208301925067ffffffffffffffff821115614a8757600080fd5b602082023603841315614a9957600080fd5b509250929050565b6000614ab06020840184613969565b905092915050565b6000614ac382614c25565b9150614ace83614c25565b9250827fffffffffffffffffffffffffffffffffffffffffffffffffffffffffffffffff03821115614b0357614b02614d20565b5b828201905092915050565b6000614b1982614c25565b9150614b2483614c25565b925082614b3457614b33614d4f565b5b828204905092915050565b6000614b4a82614c25565b9150614b5583614c25565b9250817fffffffffffffffffffffffffffffffffffffffffffffffffffffffffffffffff0483118215151615614b8e57614b8d614d20565b5b828202905092915050565b6000614ba482614c25565b9150614baf83614c25565b925082821015614bc257614bc1614d20565b5b828203905092915050565b6000614bd882614c05565b9050919050565b60008115159050919050565b60006dffffffffffffffffffffffffffff82169050919050565b600073ffffffffffffffffffffffffffffffffffffffff82169050919050565b6000819050919050565b600063ffffffff82169050919050565b6000614c4a82614c25565b9050919050565b6000614c5d36836138c4565b9050919050565b82818337600083830152505050565b60005b83811015614c91578082015181840152602081019050614c76565b83811115614ca0576000848401525b50505050565b614caf82614dad565b810181811067ffffffffffffffff82111715614cce57614ccd614d7e565b5b80604052505050565b6000614ce282614c25565b91507fffffffffffffffffffffffffffffffffffffffffffffffffffffffffffffffff821415614d1557614d14614d20565b5b600182019050919050565b7f4e487b7100000000000000000000000000000000000000000000000000000000600052601160045260246000fd5b7f4e487b7100000000000000000000000000000000000000000000000000000000600052601260045260246000fd5b7f4e487b7100000000000000000000000000000000000000000000000000000000600052604160045260246000fd5b6000601f19601f8301169050919050565b7f4f776e61626c653a206e6577206f776e657220697320746865207a65726f206160008201527f6464726573730000000000000000000000000000000000000000000000000000602082015250565b7f466c617368426f743a204b000000000000000000000000000000000000000000600082015250565b7f50415448204552524f5200000000000000000000000000000000000000000000600082015250565b7f415242495452414745204641494c555245000000000000000000000000000000600082015250565b7f556e697377617056324c6962726172793a204944454e544943414c5f4144445260008201527f4553534553000000000000000000000000000000000000000000000000000000602082015250565b7f524f55544552204552524f520000000000000000000000000000000000000000600082015250565b7f4f776e61626c653a2063616c6c6572206973206e6f7420746865206f776e6572600082015250565b7f494e444558204552524f52000000000000000000000000000000000000000000600082015250565b7f544f4b454e204552524f52000000000000000000000000000000000000000000600082015250565b7f494e53554646494349454e542042414c414e4345000000000000000000000000600082015250565b7f4e4f204152424954524147450000000000000000000000000000000000000000600082015250565b7f556e697377617056324c6962726172793a205a45524f5f414444524553530000600082015250565b7f466c617368426f743a20494e53554646494349454e545f4c4951554944495459600082015250565b61502881614bcd565b811461503357600080fd5b50565b61503f81614bdf565b811461504a57600080fd5b50565b61505681614beb565b811461506157600080fd5b50565b61506d81614c25565b811461507857600080fd5b50565b61508481614c2f565b811461508f57600080fd5b5056fea2646970667358221220c371b108ff84ef44892d125469a4a7abe2d409c0e4c3c83cc08b6528075b062864736f6c63430008040033","opcodes":"PUSH1 0x80 PUSH1 0x40 MSTORE CALLVALUE DUP1 ISZERO PUSH3 0x11 JUMPI PUSH1 0x0 DUP1 REVERT JUMPDEST POP PUSH3 0x32 PUSH3 0x26 PUSH3 0x38 PUSH1 0x20 SHL PUSH1 0x20 SHR JUMP JUMPDEST PUSH3 0x40 PUSH1 0x20 SHL PUSH1 0x20 SHR JUMP JUMPDEST PUSH3 0x104 JUMP JUMPDEST PUSH1 0x0 CALLER SWAP1 POP SWAP1 JUMP JUMPDEST PUSH1 0x0 DUP1 PUSH1 0x0 SWAP1 SLOAD SWAP1 PUSH2 0x100 EXP SWAP1 DIV PUSH20 0xFFFFFFFFFFFFFFFFFFFFFFFFFFFFFFFFFFFFFFFF AND SWAP1 POP DUP2 PUSH1 0x0 DUP1 PUSH2 0x100 EXP DUP2 SLOAD DUP2 PUSH20 0xFFFFFFFFFFFFFFFFFFFFFFFFFFFFFFFFFFFFFFFF MUL NOT AND SWAP1 DUP4 PUSH20 0xFFFFFFFFFFFFFFFFFFFFFFFFFFFFFFFFFFFFFFFF AND MUL OR SWAP1 SSTORE POP DUP2 PUSH20 0xFFFFFFFFFFFFFFFFFFFFFFFFFFFFFFFFFFFFFFFF AND DUP2 PUSH20 0xFFFFFFFFFFFFFFFFFFFFFFFFFFFFFFFFFFFFFFFF AND PUSH32 0x8BE0079C531659141344CD1FD0A4F28419497F9722A3DAAFE3B4186F6B6457E0 PUSH1 0x40 MLOAD PUSH1 0x40 MLOAD DUP1 SWAP2 SUB SWAP1 LOG3 POP POP JUMP JUMPDEST PUSH2 0x50C8 DUP1 PUSH3 0x114 PUSH1 0x0 CODECOPY PUSH1 0x0 RETURN INVALID PUSH1 0x80 PUSH1 0x40 MSTORE PUSH1 0x4 CALLDATASIZE LT PUSH2 0x144 JUMPI PUSH1 0x0 CALLDATALOAD PUSH1 0xE0 SHR DUP1 PUSH4 0x715018A6 GT PUSH2 0xB6 JUMPI DUP1 PUSH4 0xB8AAACFF GT PUSH2 0x6F JUMPI DUP1 PUSH4 0xB8AAACFF EQ PUSH2 0x434 JUMPI DUP1 PUSH4 0xB93A4C6E EQ PUSH2 0x45D JUMPI DUP1 PUSH4 0xBECDA363 EQ PUSH2 0x49A JUMPI DUP1 PUSH4 0xEB799234 EQ PUSH2 0x4C3 JUMPI DUP1 PUSH4 0xEC78CE50 EQ PUSH2 0x4EC JUMPI DUP1 PUSH4 0xF2FDE38B EQ PUSH2 0x515 JUMPI PUSH2 0x14B JUMP JUMPDEST DUP1 PUSH4 0x715018A6 EQ PUSH2 0x33A JUMPI DUP1 PUSH4 0x72B0D90C EQ PUSH2 0x351 JUMPI DUP1 PUSH4 0x7B191FF2 EQ PUSH2 0x37A JUMPI DUP1 PUSH4 0x859657A2 EQ PUSH2 0x3A3 JUMPI DUP1 PUSH4 0x867F8AD0 EQ PUSH2 0x3CC JUMPI DUP1 PUSH4 0x8DA5CB5B EQ PUSH2 0x409 JUMPI PUSH2 0x14B JUMP JUMPDEST DUP1 PUSH4 0x3CCFD60B GT PUSH2 0x108 JUMPI DUP1 PUSH4 0x3CCFD60B EQ PUSH2 0x242 JUMPI DUP1 PUSH4 0x3FC01685 EQ PUSH2 0x259 JUMPI DUP1 PUSH4 0x415EFD95 EQ PUSH2 0x282 JUMPI DUP1 PUSH4 0x485F3994 EQ PUSH2 0x2AB JUMPI DUP1 PUSH4 0x4B0879FE EQ PUSH2 0x2D4 JUMPI DUP1 PUSH4 0x7125010D EQ PUSH2 0x2FD JUMPI PUSH2 0x14B JUMP JUMPDEST DUP1 PUSH4 0x7845469 EQ PUSH2 0x14D JUMPI DUP1 PUSH4 0x7D3513A EQ PUSH2 0x176 JUMPI DUP1 PUSH4 0x9D35296 EQ PUSH2 0x19F JUMPI DUP1 PUSH4 0x10D1E85C EQ PUSH2 0x1DC JUMPI DUP1 PUSH4 0x2BC6AA97 EQ PUSH2 0x205 JUMPI PUSH2 0x14B JUMP JUMPDEST CALLDATASIZE PUSH2 0x14B JUMPI STOP JUMPDEST STOP JUMPDEST CALLVALUE DUP1 ISZERO PUSH2 0x159 JUMPI PUSH1 0x0 DUP1 REVERT JUMPDEST POP PUSH2 0x174 PUSH1 0x4 DUP1 CALLDATASIZE SUB DUP2 ADD SWAP1 PUSH2 0x16F SWAP2 SWAP1 PUSH2 0x3C92 JUMP JUMPDEST PUSH2 0x53E JUMP JUMPDEST STOP JUMPDEST CALLVALUE DUP1 ISZERO PUSH2 0x182 JUMPI PUSH1 0x0 DUP1 REVERT JUMPDEST POP PUSH2 0x19D PUSH1 0x4 DUP1 CALLDATASIZE SUB DUP2 ADD SWAP1 PUSH2 0x198 SWAP2 SWAP1 PUSH2 0x3A85 JUMP JUMPDEST PUSH2 0x541 JUMP JUMPDEST STOP JUMPDEST CALLVALUE DUP1 ISZERO PUSH2 0x1AB JUMPI PUSH1 0x0 DUP1 REVERT JUMPDEST POP PUSH2 0x1C6 PUSH1 0x4 DUP1 CALLDATASIZE SUB DUP2 ADD SWAP1 PUSH2 0x1C1 SWAP2 SWAP1 PUSH2 0x3C92 JUMP JUMPDEST PUSH2 0x555 JUMP JUMPDEST PUSH1 0x40 MLOAD PUSH2 0x1D3 SWAP2 SWAP1 PUSH2 0x4700 JUMP JUMPDEST PUSH1 0x40 MLOAD DUP1 SWAP2 SUB SWAP1 RETURN JUMPDEST CALLVALUE DUP1 ISZERO PUSH2 0x1E8 JUMPI PUSH1 0x0 DUP1 REVERT JUMPDEST POP PUSH2 0x203 PUSH1 0x4 DUP1 CALLDATASIZE SUB DUP2 ADD SWAP1 PUSH2 0x1FE SWAP2 SWAP1 PUSH2 0x3A85 JUMP JUMPDEST PUSH2 0xD32 JUMP JUMPDEST STOP JUMPDEST CALLVALUE DUP1 ISZERO PUSH2 0x211 JUMPI PUSH1 0x0 DUP1 REVERT JUMPDEST POP PUSH2 0x22C PUSH1 0x4 DUP1 CALLDATASIZE SUB DUP2 ADD SWAP1 PUSH2 0x227 SWAP2 SWAP1 PUSH2 0x3A36 JUMP JUMPDEST PUSH2 0xD46 JUMP JUMPDEST PUSH1 0x40 MLOAD PUSH2 0x239 SWAP2 SWAP1 PUSH2 0x448C JUMP JUMPDEST PUSH1 0x40 MLOAD DUP1 SWAP2 SUB SWAP1 RETURN JUMPDEST CALLVALUE DUP1 ISZERO PUSH2 0x24E JUMPI PUSH1 0x0 DUP1 REVERT JUMPDEST POP PUSH2 0x257 PUSH2 0xEAA JUMP JUMPDEST STOP JUMPDEST CALLVALUE DUP1 ISZERO PUSH2 0x265 JUMPI PUSH1 0x0 DUP1 REVERT JUMPDEST POP PUSH2 0x280 PUSH1 0x4 DUP1 CALLDATASIZE SUB DUP2 ADD SWAP1 PUSH2 0x27B SWAP2 SWAP1 PUSH2 0x3A85 JUMP JUMPDEST PUSH2 0xF38 JUMP JUMPDEST STOP JUMPDEST CALLVALUE DUP1 ISZERO PUSH2 0x28E JUMPI PUSH1 0x0 DUP1 REVERT JUMPDEST POP PUSH2 0x2A9 PUSH1 0x4 DUP1 CALLDATASIZE SUB DUP2 ADD SWAP1 PUSH2 0x2A4 SWAP2 SWAP1 PUSH2 0x3C92 JUMP JUMPDEST PUSH2 0xF4C JUMP JUMPDEST STOP JUMPDEST CALLVALUE DUP1 ISZERO PUSH2 0x2B7 JUMPI PUSH1 0x0 DUP1 REVERT JUMPDEST POP PUSH2 0x2D2 PUSH1 0x4 DUP1 CALLDATASIZE SUB DUP2 ADD SWAP1 PUSH2 0x2CD SWAP2 SWAP1 PUSH2 0x3A85 JUMP JUMPDEST PUSH2 0x100F JUMP JUMPDEST STOP JUMPDEST CALLVALUE DUP1 ISZERO PUSH2 0x2E0 JUMPI PUSH1 0x0 DUP1 REVERT JUMPDEST POP PUSH2 0x2FB PUSH1 0x4 DUP1 CALLDATASIZE SUB DUP2 ADD SWAP1 PUSH2 0x2F6 SWAP2 SWAP1 PUSH2 0x3B05 JUMP JUMPDEST PUSH2 0x1023 JUMP JUMPDEST STOP JUMPDEST CALLVALUE DUP1 ISZERO PUSH2 0x309 JUMPI PUSH1 0x0 DUP1 REVERT JUMPDEST POP PUSH2 0x324 PUSH1 0x4 DUP1 CALLDATASIZE SUB DUP2 ADD SWAP1 PUSH2 0x31F SWAP2 SWAP1 PUSH2 0x3CD3 JUMP JUMPDEST PUSH2 0x10B5 JUMP JUMPDEST PUSH1 0x40 MLOAD PUSH2 0x331 SWAP2 SWAP1 PUSH2 0x44AE JUMP JUMPDEST PUSH1 0x40 MLOAD DUP1 SWAP2 SUB SWAP1 RETURN JUMPDEST CALLVALUE DUP1 ISZERO PUSH2 0x346 JUMPI PUSH1 0x0 DUP1 REVERT JUMPDEST POP PUSH2 0x34F PUSH2 0x15F3 JUMP JUMPDEST STOP JUMPDEST CALLVALUE DUP1 ISZERO PUSH2 0x35D JUMPI PUSH1 0x0 DUP1 REVERT JUMPDEST POP PUSH2 0x378 PUSH1 0x4 DUP1 CALLDATASIZE SUB DUP2 ADD SWAP1 PUSH2 0x373 SWAP2 SWAP1 PUSH2 0x39A8 JUMP JUMPDEST PUSH2 0x167B JUMP JUMPDEST STOP JUMPDEST CALLVALUE DUP1 ISZERO PUSH2 0x386 JUMPI PUSH1 0x0 DUP1 REVERT JUMPDEST POP PUSH2 0x3A1 PUSH1 0x4 DUP1 CALLDATASIZE SUB DUP2 ADD SWAP1 PUSH2 0x39C SWAP2 SWAP1 PUSH2 0x3B4A JUMP JUMPDEST PUSH2 0x1784 JUMP JUMPDEST STOP JUMPDEST CALLVALUE DUP1 ISZERO PUSH2 0x3AF JUMPI PUSH1 0x0 DUP1 REVERT JUMPDEST POP PUSH2 0x3CA PUSH1 0x4 DUP1 CALLDATASIZE SUB DUP2 ADD SWAP1 PUSH2 0x3C5 SWAP2 SWAP1 PUSH2 0x3C92 JUMP JUMPDEST PUSH2 0x19E9 JUMP JUMPDEST STOP JUMPDEST CALLVALUE DUP1 ISZERO PUSH2 0x3D8 JUMPI PUSH1 0x0 DUP1 REVERT JUMPDEST POP PUSH2 0x3F3 PUSH1 0x4 DUP1 CALLDATASIZE SUB DUP2 ADD SWAP1 PUSH2 0x3EE SWAP2 SWAP1 PUSH2 0x3BA2 JUMP JUMPDEST PUSH2 0x1ECA JUMP JUMPDEST PUSH1 0x40 MLOAD PUSH2 0x400 SWAP2 SWAP1 PUSH2 0x44AE JUMP JUMPDEST PUSH1 0x40 MLOAD DUP1 SWAP2 SUB SWAP1 RETURN JUMPDEST CALLVALUE DUP1 ISZERO PUSH2 0x415 JUMPI PUSH1 0x0 DUP1 REVERT JUMPDEST POP PUSH2 0x41E PUSH2 0x20D2 JUMP JUMPDEST PUSH1 0x40 MLOAD PUSH2 0x42B SWAP2 SWAP1 PUSH2 0x43E8 JUMP JUMPDEST PUSH1 0x40 MLOAD DUP1 SWAP2 SUB SWAP1 RETURN JUMPDEST CALLVALUE DUP1 ISZERO PUSH2 0x440 JUMPI PUSH1 0x0 DUP1 REVERT JUMPDEST POP PUSH2 0x45B PUSH1 0x4 DUP1 CALLDATASIZE SUB DUP2 ADD SWAP1 PUSH2 0x456 SWAP2 SWAP1 PUSH2 0x3CD3 JUMP JUMPDEST PUSH2 0x20FB JUMP JUMPDEST STOP JUMPDEST CALLVALUE DUP1 ISZERO PUSH2 0x469 JUMPI PUSH1 0x0 DUP1 REVERT JUMPDEST POP PUSH2 0x484 PUSH1 0x4 DUP1 CALLDATASIZE SUB DUP2 ADD SWAP1 PUSH2 0x47F SWAP2 SWAP1 PUSH2 0x39FA JUMP JUMPDEST PUSH2 0x2528 JUMP JUMPDEST PUSH1 0x40 MLOAD PUSH2 0x491 SWAP2 SWAP1 PUSH2 0x46BC JUMP JUMPDEST PUSH1 0x40 MLOAD DUP1 SWAP2 SUB SWAP1 RETURN JUMPDEST CALLVALUE DUP1 ISZERO PUSH2 0x4A6 JUMPI PUSH1 0x0 DUP1 REVERT JUMPDEST POP PUSH2 0x4C1 PUSH1 0x4 DUP1 CALLDATASIZE SUB DUP2 ADD SWAP1 PUSH2 0x4BC SWAP2 SWAP1 PUSH2 0x3A85 JUMP JUMPDEST PUSH2 0x2805 JUMP JUMPDEST STOP JUMPDEST CALLVALUE DUP1 ISZERO PUSH2 0x4CF JUMPI PUSH1 0x0 DUP1 REVERT JUMPDEST POP PUSH2 0x4EA PUSH1 0x4 DUP1 CALLDATASIZE SUB DUP2 ADD SWAP1 PUSH2 0x4E5 SWAP2 SWAP1 PUSH2 0x3C92 JUMP JUMPDEST PUSH2 0x2819 JUMP JUMPDEST STOP JUMPDEST CALLVALUE DUP1 ISZERO PUSH2 0x4F8 JUMPI PUSH1 0x0 DUP1 REVERT JUMPDEST POP PUSH2 0x513 PUSH1 0x4 DUP1 CALLDATASIZE SUB DUP2 ADD SWAP1 PUSH2 0x50E SWAP2 SWAP1 PUSH2 0x3A85 JUMP JUMPDEST PUSH2 0x281C JUMP JUMPDEST STOP JUMPDEST CALLVALUE DUP1 ISZERO PUSH2 0x521 JUMPI PUSH1 0x0 DUP1 REVERT JUMPDEST POP PUSH2 0x53C PUSH1 0x4 DUP1 CALLDATASIZE SUB DUP2 ADD SWAP1 PUSH2 0x537 SWAP2 SWAP1 PUSH2 0x39A8 JUMP JUMPDEST PUSH2 0x2830 JUMP JUMPDEST STOP JUMPDEST POP JUMP JUMPDEST PUSH2 0x54E DUP6 DUP6 DUP6 DUP6 DUP6 PUSH2 0x2928 JUMP JUMPDEST POP POP POP POP POP JUMP JUMPDEST PUSH1 0x0 DUP1 PUSH2 0x56A DUP4 PUSH2 0x565 SWAP1 PUSH2 0x4C51 JUMP JUMPDEST PUSH2 0x10B5 JUMP JUMPDEST SWAP1 POP PUSH1 0x0 JUMPDEST DUP4 DUP1 PUSH1 0x40 ADD SWAP1 PUSH2 0x57F SWAP2 SWAP1 PUSH2 0x47E3 JUMP JUMPDEST SWAP1 POP DUP2 LT ISZERO PUSH2 0xCDB JUMPI PUSH1 0x0 DUP1 DUP6 DUP1 PUSH1 0x20 ADD SWAP1 PUSH2 0x59B SWAP2 SWAP1 PUSH2 0x47E3 JUMP JUMPDEST DUP5 DUP2 DUP2 LT PUSH2 0x5D2 JUMPI PUSH32 0x4E487B7100000000000000000000000000000000000000000000000000000000 PUSH1 0x0 MSTORE PUSH1 0x32 PUSH1 0x4 MSTORE PUSH1 0x24 PUSH1 0x0 REVERT JUMPDEST SWAP1 POP PUSH1 0x20 MUL ADD PUSH1 0x20 DUP2 ADD SWAP1 PUSH2 0x5E7 SWAP2 SWAP1 PUSH2 0x39A8 JUMP JUMPDEST DUP7 DUP1 PUSH1 0x20 ADD SWAP1 PUSH2 0x5F7 SWAP2 SWAP1 PUSH2 0x47E3 JUMP JUMPDEST PUSH1 0x1 DUP7 PUSH2 0x604 SWAP2 SWAP1 PUSH2 0x4AB8 JUMP JUMPDEST DUP2 DUP2 LT PUSH2 0x63A JUMPI PUSH32 0x4E487B7100000000000000000000000000000000000000000000000000000000 PUSH1 0x0 MSTORE PUSH1 0x32 PUSH1 0x4 MSTORE PUSH1 0x24 PUSH1 0x0 REVERT JUMPDEST SWAP1 POP PUSH1 0x20 MUL ADD PUSH1 0x20 DUP2 ADD SWAP1 PUSH2 0x64F SWAP2 SWAP1 PUSH2 0x39A8 JUMP JUMPDEST SWAP2 POP SWAP2 POP PUSH1 0x0 PUSH2 0x65F DUP4 DUP4 PUSH2 0x2BE1 JUMP JUMPDEST POP SWAP1 POP PUSH1 0x0 DUP1 DUP3 PUSH20 0xFFFFFFFFFFFFFFFFFFFFFFFFFFFFFFFFFFFFFFFF AND DUP6 PUSH20 0xFFFFFFFFFFFFFFFFFFFFFFFFFFFFFFFFFFFFFFFF AND EQ PUSH2 0x6E0 JUMPI PUSH1 0x0 DUP8 DUP8 DUP2 MLOAD DUP2 LT PUSH2 0x6D3 JUMPI PUSH32 0x4E487B7100000000000000000000000000000000000000000000000000000000 PUSH1 0x0 MSTORE PUSH1 0x32 PUSH1 0x4 MSTORE PUSH1 0x24 PUSH1 0x0 REVERT JUMPDEST PUSH1 0x20 MUL PUSH1 0x20 ADD ADD MLOAD PUSH2 0x724 JUMP JUMPDEST DUP7 DUP7 DUP2 MLOAD DUP2 LT PUSH2 0x719 JUMPI PUSH32 0x4E487B7100000000000000000000000000000000000000000000000000000000 PUSH1 0x0 MSTORE PUSH1 0x32 PUSH1 0x4 MSTORE PUSH1 0x24 PUSH1 0x0 REVERT JUMPDEST PUSH1 0x20 MUL PUSH1 0x20 ADD ADD MLOAD PUSH1 0x0 JUMPDEST SWAP2 POP SWAP2 POP PUSH1 0x0 DUP1 DUP5 PUSH20 0xFFFFFFFFFFFFFFFFFFFFFFFFFFFFFFFFFFFFFFFF AND DUP8 PUSH20 0xFFFFFFFFFFFFFFFFFFFFFFFFFFFFFFFFFFFFFFFF AND EQ PUSH2 0x7B2 JUMPI DUP9 PUSH1 0x1 DUP10 PUSH2 0x76C SWAP2 SWAP1 PUSH2 0x4AB8 JUMP JUMPDEST DUP2 MLOAD DUP2 LT PUSH2 0x7A3 JUMPI PUSH32 0x4E487B7100000000000000000000000000000000000000000000000000000000 PUSH1 0x0 MSTORE PUSH1 0x32 PUSH1 0x4 MSTORE PUSH1 0x24 PUSH1 0x0 REVERT JUMPDEST PUSH1 0x20 MUL PUSH1 0x20 ADD ADD MLOAD PUSH1 0x0 PUSH2 0x802 JUMP JUMPDEST PUSH1 0x0 DUP10 PUSH1 0x1 DUP11 PUSH2 0x7C2 SWAP2 SWAP1 PUSH2 0x4AB8 JUMP JUMPDEST DUP2 MLOAD DUP2 LT PUSH2 0x7F9 JUMPI PUSH32 0x4E487B7100000000000000000000000000000000000000000000000000000000 PUSH1 0x0 MSTORE PUSH1 0x32 PUSH1 0x4 MSTORE PUSH1 0x24 PUSH1 0x0 REVERT JUMPDEST PUSH1 0x20 MUL PUSH1 0x20 ADD ADD MLOAD JUMPDEST SWAP2 POP SWAP2 POP PUSH1 0x0 PUSH2 0x86E DUP13 DUP1 PUSH1 0x40 ADD SWAP1 PUSH2 0x81B SWAP2 SWAP1 PUSH2 0x47E3 JUMP JUMPDEST DUP12 DUP2 DUP2 LT PUSH2 0x852 JUMPI PUSH32 0x4E487B7100000000000000000000000000000000000000000000000000000000 PUSH1 0x0 MSTORE PUSH1 0x32 PUSH1 0x4 MSTORE PUSH1 0x24 PUSH1 0x0 REVERT JUMPDEST SWAP1 POP PUSH1 0x20 MUL ADD PUSH1 0x20 DUP2 ADD SWAP1 PUSH2 0x867 SWAP2 SWAP1 PUSH2 0x39A8 JUMP JUMPDEST DUP10 DUP10 PUSH2 0x2D0F JUMP JUMPDEST SWAP1 POP PUSH1 0x0 DUP1 DUP3 PUSH20 0xFFFFFFFFFFFFFFFFFFFFFFFFFFFFFFFFFFFFFFFF AND PUSH4 0x902F1AC PUSH1 0x40 MLOAD DUP2 PUSH4 0xFFFFFFFF AND PUSH1 0xE0 SHL DUP2 MSTORE PUSH1 0x4 ADD PUSH1 0x60 PUSH1 0x40 MLOAD DUP1 DUP4 SUB DUP2 DUP7 DUP1 EXTCODESIZE ISZERO DUP1 ISZERO PUSH2 0x8B9 JUMPI PUSH1 0x0 DUP1 REVERT JUMPDEST POP GAS STATICCALL ISZERO DUP1 ISZERO PUSH2 0x8CD JUMPI RETURNDATASIZE PUSH1 0x0 DUP1 RETURNDATACOPY RETURNDATASIZE PUSH1 0x0 REVERT JUMPDEST POP POP POP POP PUSH1 0x40 MLOAD RETURNDATASIZE PUSH1 0x1F NOT PUSH1 0x1F DUP3 ADD AND DUP3 ADD DUP1 PUSH1 0x40 MSTORE POP DUP2 ADD SWAP1 PUSH2 0x8F1 SWAP2 SWAP1 PUSH2 0x3D14 JUMP JUMPDEST POP SWAP2 POP SWAP2 POP DUP2 PUSH14 0xFFFFFFFFFFFFFFFFFFFFFFFFFFFF AND DUP6 LT DUP1 ISZERO PUSH2 0x924 JUMPI POP DUP1 PUSH14 0xFFFFFFFFFFFFFFFFFFFFFFFFFFFF AND DUP5 LT JUMPDEST PUSH2 0x963 JUMPI PUSH1 0x40 MLOAD PUSH32 0x8C379A000000000000000000000000000000000000000000000000000000000 DUP2 MSTORE PUSH1 0x4 ADD PUSH2 0x95A SWAP1 PUSH2 0x469C JUMP JUMPDEST PUSH1 0x40 MLOAD DUP1 SWAP2 SUB SWAP1 REVERT JUMPDEST PUSH1 0x0 DUP1 DUP7 DUP10 DUP7 PUSH20 0xFFFFFFFFFFFFFFFFFFFFFFFFFFFFFFFFFFFFFFFF AND PUSH4 0xDFE1681 PUSH1 0x40 MLOAD DUP2 PUSH4 0xFFFFFFFF AND PUSH1 0xE0 SHL DUP2 MSTORE PUSH1 0x4 ADD PUSH1 0x20 PUSH1 0x40 MLOAD DUP1 DUP4 SUB DUP2 DUP7 DUP1 EXTCODESIZE ISZERO DUP1 ISZERO PUSH2 0x9AE JUMPI PUSH1 0x0 DUP1 REVERT JUMPDEST POP GAS STATICCALL ISZERO DUP1 ISZERO PUSH2 0x9C2 JUMPI RETURNDATASIZE PUSH1 0x0 DUP1 RETURNDATACOPY RETURNDATASIZE PUSH1 0x0 REVERT JUMPDEST POP POP POP POP PUSH1 0x40 MLOAD RETURNDATASIZE PUSH1 0x1F NOT PUSH1 0x1F DUP3 ADD AND DUP3 ADD DUP1 PUSH1 0x40 MSTORE POP DUP2 ADD SWAP1 PUSH2 0x9E6 SWAP2 SWAP1 PUSH2 0x39D1 JUMP JUMPDEST PUSH20 0xFFFFFFFFFFFFFFFFFFFFFFFFFFFFFFFFFFFFFFFF AND PUSH4 0x70A08231 DUP9 PUSH1 0x40 MLOAD DUP3 PUSH4 0xFFFFFFFF AND PUSH1 0xE0 SHL DUP2 MSTORE PUSH1 0x4 ADD PUSH2 0xA1E SWAP2 SWAP1 PUSH2 0x43E8 JUMP JUMPDEST PUSH1 0x20 PUSH1 0x40 MLOAD DUP1 DUP4 SUB DUP2 DUP7 DUP1 EXTCODESIZE ISZERO DUP1 ISZERO PUSH2 0xA36 JUMPI PUSH1 0x0 DUP1 REVERT JUMPDEST POP GAS STATICCALL ISZERO DUP1 ISZERO PUSH2 0xA4A JUMPI RETURNDATASIZE PUSH1 0x0 DUP1 RETURNDATACOPY RETURNDATASIZE PUSH1 0x0 REVERT JUMPDEST POP POP POP POP PUSH1 0x40 MLOAD RETURNDATASIZE PUSH1 0x1F NOT PUSH1 0x1F DUP3 ADD AND DUP3 ADD DUP1 PUSH1 0x40 MSTORE POP DUP2 ADD SWAP1 PUSH2 0xA6E SWAP2 SWAP1 PUSH2 0x3D63 JUMP JUMPDEST PUSH2 0xA78 SWAP2 SWAP1 PUSH2 0x4AB8 JUMP JUMPDEST PUSH2 0xA82 SWAP2 SWAP1 PUSH2 0x4B99 JUMP JUMPDEST SWAP2 POP DUP6 DUP9 DUP7 PUSH20 0xFFFFFFFFFFFFFFFFFFFFFFFFFFFFFFFFFFFFFFFF AND PUSH4 0xD21220A7 PUSH1 0x40 MLOAD DUP2 PUSH4 0xFFFFFFFF AND PUSH1 0xE0 SHL DUP2 MSTORE PUSH1 0x4 ADD PUSH1 0x20 PUSH1 0x40 MLOAD DUP1 DUP4 SUB DUP2 DUP7 DUP1 EXTCODESIZE ISZERO DUP1 ISZERO PUSH2 0xACC JUMPI PUSH1 0x0 DUP1 REVERT JUMPDEST POP GAS STATICCALL ISZERO DUP1 ISZERO PUSH2 0xAE0 JUMPI RETURNDATASIZE PUSH1 0x0 DUP1 RETURNDATACOPY RETURNDATASIZE PUSH1 0x0 REVERT JUMPDEST POP POP POP POP PUSH1 0x40 MLOAD RETURNDATASIZE PUSH1 0x1F NOT PUSH1 0x1F DUP3 ADD AND DUP3 ADD DUP1 PUSH1 0x40 MSTORE POP DUP2 ADD SWAP1 PUSH2 0xB04 SWAP2 SWAP1 PUSH2 0x39D1 JUMP JUMPDEST PUSH20 0xFFFFFFFFFFFFFFFFFFFFFFFFFFFFFFFFFFFFFFFF AND PUSH4 0x70A08231 DUP9 PUSH1 0x40 MLOAD DUP3 PUSH4 0xFFFFFFFF AND PUSH1 0xE0 SHL DUP2 MSTORE PUSH1 0x4 ADD PUSH2 0xB3C SWAP2 SWAP1 PUSH2 0x43E8 JUMP JUMPDEST PUSH1 0x20 PUSH1 0x40 MLOAD DUP1 DUP4 SUB DUP2 DUP7 DUP1 EXTCODESIZE ISZERO DUP1 ISZERO PUSH2 0xB54 JUMPI PUSH1 0x0 DUP1 REVERT JUMPDEST POP GAS STATICCALL ISZERO DUP1 ISZERO PUSH2 0xB68 JUMPI RETURNDATASIZE PUSH1 0x0 DUP1 RETURNDATACOPY RETURNDATASIZE PUSH1 0x0 REVERT JUMPDEST POP POP POP POP PUSH1 0x40 MLOAD RETURNDATASIZE PUSH1 0x1F NOT PUSH1 0x1F DUP3 ADD AND DUP3 ADD DUP1 PUSH1 0x40 MSTORE POP DUP2 ADD SWAP1 PUSH2 0xB8C SWAP2 SWAP1 PUSH2 0x3D63 JUMP JUMPDEST PUSH2 0xB96 SWAP2 SWAP1 PUSH2 0x4AB8 JUMP JUMPDEST PUSH2 0xBA0 SWAP2 SWAP1 PUSH2 0x4B99 JUMP JUMPDEST SWAP1 POP PUSH1 0x0 PUSH2 0xBDE PUSH2 0xBBB PUSH1 0x3 DUP13 PUSH2 0x2E27 SWAP1 SWAP2 SWAP1 PUSH4 0xFFFFFFFF AND JUMP JUMPDEST PUSH2 0xBD0 PUSH2 0x3E8 DUP7 PUSH2 0x2E27 SWAP1 SWAP2 SWAP1 PUSH4 0xFFFFFFFF AND JUMP JUMPDEST PUSH2 0x2E3D SWAP1 SWAP2 SWAP1 PUSH4 0xFFFFFFFF AND JUMP JUMPDEST SWAP1 POP PUSH1 0x0 PUSH2 0xC1C PUSH2 0xBF9 PUSH1 0x3 DUP13 PUSH2 0x2E27 SWAP1 SWAP2 SWAP1 PUSH4 0xFFFFFFFF AND JUMP JUMPDEST PUSH2 0xC0E PUSH2 0x3E8 DUP7 PUSH2 0x2E27 SWAP1 SWAP2 SWAP1 PUSH4 0xFFFFFFFF AND JUMP JUMPDEST PUSH2 0x2E3D SWAP1 SWAP2 SWAP1 PUSH4 0xFFFFFFFF AND JUMP JUMPDEST SWAP1 POP PUSH2 0xC66 PUSH3 0xF4240 PUSH2 0xC58 DUP8 PUSH14 0xFFFFFFFFFFFFFFFFFFFFFFFFFFFF AND DUP10 PUSH14 0xFFFFFFFFFFFFFFFFFFFFFFFFFFFF AND PUSH2 0x2E27 SWAP1 SWAP2 SWAP1 PUSH4 0xFFFFFFFF AND JUMP JUMPDEST PUSH2 0x2E27 SWAP1 SWAP2 SWAP1 PUSH4 0xFFFFFFFF AND JUMP JUMPDEST PUSH2 0xC79 DUP3 DUP5 PUSH2 0x2E27 SWAP1 SWAP2 SWAP1 PUSH4 0xFFFFFFFF AND JUMP JUMPDEST LT ISZERO PUSH2 0xCBA JUMPI PUSH1 0x40 MLOAD PUSH32 0x8C379A000000000000000000000000000000000000000000000000000000000 DUP2 MSTORE PUSH1 0x4 ADD PUSH2 0xCB1 SWAP1 PUSH2 0x453C JUMP JUMPDEST PUSH1 0x40 MLOAD DUP1 SWAP2 SUB SWAP1 REVERT JUMPDEST POP POP POP POP POP POP POP POP POP POP POP POP POP POP DUP1 DUP1 PUSH2 0xCD3 SWAP1 PUSH2 0x4CD7 JUMP JUMPDEST SWAP2 POP POP PUSH2 0x56F JUMP JUMPDEST POP DUP1 PUSH1 0x1 DUP3 MLOAD PUSH2 0xCEB SWAP2 SWAP1 PUSH2 0x4B99 JUMP JUMPDEST DUP2 MLOAD DUP2 LT PUSH2 0xD22 JUMPI PUSH32 0x4E487B7100000000000000000000000000000000000000000000000000000000 PUSH1 0x0 MSTORE PUSH1 0x32 PUSH1 0x4 MSTORE PUSH1 0x24 PUSH1 0x0 REVERT JUMPDEST PUSH1 0x20 MUL PUSH1 0x20 ADD ADD MLOAD SWAP2 POP POP SWAP2 SWAP1 POP JUMP JUMPDEST PUSH2 0xD3F DUP6 DUP6 DUP6 DUP6 DUP6 PUSH2 0x2928 JUMP JUMPDEST POP POP POP POP POP JUMP JUMPDEST PUSH1 0x60 DUP3 DUP3 LT ISZERO PUSH2 0xD8B JUMPI PUSH1 0x40 MLOAD PUSH32 0x8C379A000000000000000000000000000000000000000000000000000000000 DUP2 MSTORE PUSH1 0x4 ADD PUSH2 0xD82 SWAP1 PUSH2 0x45FC JUMP JUMPDEST PUSH1 0x40 MLOAD DUP1 SWAP2 SUB SWAP1 REVERT JUMPDEST PUSH1 0x0 PUSH1 0x1 DUP5 DUP5 PUSH2 0xD9B SWAP2 SWAP1 PUSH2 0x4B99 JUMP JUMPDEST PUSH2 0xDA5 SWAP2 SWAP1 PUSH2 0x4AB8 JUMP JUMPDEST PUSH8 0xFFFFFFFFFFFFFFFF DUP2 GT ISZERO PUSH2 0xDE4 JUMPI PUSH32 0x4E487B7100000000000000000000000000000000000000000000000000000000 PUSH1 0x0 MSTORE PUSH1 0x41 PUSH1 0x4 MSTORE PUSH1 0x24 PUSH1 0x0 REVERT JUMPDEST PUSH1 0x40 MLOAD SWAP1 DUP1 DUP3 MSTORE DUP1 PUSH1 0x20 MUL PUSH1 0x20 ADD DUP3 ADD PUSH1 0x40 MSTORE DUP1 ISZERO PUSH2 0xE1D JUMPI DUP2 PUSH1 0x20 ADD JUMPDEST PUSH2 0xE0A PUSH2 0x3559 JUMP JUMPDEST DUP2 MSTORE PUSH1 0x20 ADD SWAP1 PUSH1 0x1 SWAP1 SUB SWAP1 DUP2 PUSH2 0xE02 JUMPI SWAP1 POP JUMPDEST POP SWAP1 POP PUSH1 0x0 JUMPDEST DUP2 MLOAD DUP2 LT ISZERO PUSH2 0xE9E JUMPI PUSH1 0x0 DUP6 DUP3 PUSH2 0xE3A SWAP2 SWAP1 PUSH2 0x4AB8 JUMP JUMPDEST SWAP1 POP PUSH2 0xE46 DUP8 DUP3 PUSH2 0x2528 JUMP JUMPDEST DUP4 DUP4 DUP2 MLOAD DUP2 LT PUSH2 0xE7F JUMPI PUSH32 0x4E487B7100000000000000000000000000000000000000000000000000000000 PUSH1 0x0 MSTORE PUSH1 0x32 PUSH1 0x4 MSTORE PUSH1 0x24 PUSH1 0x0 REVERT JUMPDEST PUSH1 0x20 MUL PUSH1 0x20 ADD ADD DUP2 SWAP1 MSTORE POP POP DUP1 DUP1 PUSH2 0xE96 SWAP1 PUSH2 0x4CD7 JUMP JUMPDEST SWAP2 POP POP PUSH2 0xE23 JUMP JUMPDEST POP DUP1 SWAP2 POP POP SWAP4 SWAP3 POP POP POP JUMP JUMPDEST PUSH2 0xEB2 PUSH2 0x2E53 JUMP JUMPDEST PUSH20 0xFFFFFFFFFFFFFFFFFFFFFFFFFFFFFFFFFFFFFFFF AND PUSH2 0xED0 PUSH2 0x20D2 JUMP JUMPDEST PUSH20 0xFFFFFFFFFFFFFFFFFFFFFFFFFFFFFFFFFFFFFFFF AND EQ PUSH2 0xF26 JUMPI PUSH1 0x40 MLOAD PUSH32 0x8C379A000000000000000000000000000000000000000000000000000000000 DUP2 MSTORE PUSH1 0x4 ADD PUSH2 0xF1D SWAP1 PUSH2 0x45DC JUMP JUMPDEST PUSH1 0x40 MLOAD DUP1 SWAP2 SUB SWAP1 REVERT JUMPDEST PUSH2 0xF36 PUSH2 0xF31 PUSH2 0x20D2 JUMP JUMPDEST PUSH2 0x167B JUMP JUMPDEST JUMP JUMPDEST PUSH2 0xF45 DUP6 DUP6 DUP6 DUP6 DUP6 PUSH2 0x2928 JUMP JUMPDEST POP POP POP POP POP JUMP JUMPDEST PUSH1 0x0 PUSH2 0xF60 DUP3 PUSH2 0xF5B SWAP1 PUSH2 0x4C51 JUMP JUMPDEST PUSH2 0x10B5 JUMP JUMPDEST SWAP1 POP PUSH2 0x100B DUP2 DUP4 DUP1 PUSH1 0x20 ADD SWAP1 PUSH2 0xF76 SWAP2 SWAP1 PUSH2 0x47E3 JUMP JUMPDEST DUP1 DUP1 PUSH1 0x20 MUL PUSH1 0x20 ADD PUSH1 0x40 MLOAD SWAP1 DUP2 ADD PUSH1 0x40 MSTORE DUP1 SWAP4 SWAP3 SWAP2 SWAP1 DUP2 DUP2 MSTORE PUSH1 0x20 ADD DUP4 DUP4 PUSH1 0x20 MUL DUP1 DUP3 DUP5 CALLDATACOPY PUSH1 0x0 DUP2 DUP5 ADD MSTORE PUSH1 0x1F NOT PUSH1 0x1F DUP3 ADD AND SWAP1 POP DUP1 DUP4 ADD SWAP3 POP POP POP POP POP POP POP DUP5 DUP1 PUSH1 0x40 ADD SWAP1 PUSH2 0xFC6 SWAP2 SWAP1 PUSH2 0x47E3 JUMP JUMPDEST DUP1 DUP1 PUSH1 0x20 MUL PUSH1 0x20 ADD PUSH1 0x40 MLOAD SWAP1 DUP2 ADD PUSH1 0x40 MSTORE DUP1 SWAP4 SWAP3 SWAP2 SWAP1 DUP2 DUP2 MSTORE PUSH1 0x20 ADD DUP4 DUP4 PUSH1 0x20 MUL DUP1 DUP3 DUP5 CALLDATACOPY PUSH1 0x0 DUP2 DUP5 ADD MSTORE PUSH1 0x1F NOT PUSH1 0x1F DUP3 ADD AND SWAP1 POP DUP1 DUP4 ADD SWAP3 POP POP POP POP POP POP POP PUSH2 0x2E5B JUMP JUMPDEST POP POP JUMP JUMPDEST PUSH2 0x101C DUP6 DUP6 DUP6 DUP6 DUP6 PUSH2 0x2928 JUMP JUMPDEST POP POP POP POP POP JUMP JUMPDEST PUSH2 0x102B PUSH2 0x2E53 JUMP JUMPDEST PUSH20 0xFFFFFFFFFFFFFFFFFFFFFFFFFFFFFFFFFFFFFFFF AND PUSH2 0x1049 PUSH2 0x20D2 JUMP JUMPDEST PUSH20 0xFFFFFFFFFFFFFFFFFFFFFFFFFFFFFFFFFFFFFFFF AND EQ PUSH2 0x109F JUMPI PUSH1 0x40 MLOAD PUSH32 0x8C379A000000000000000000000000000000000000000000000000000000000 DUP2 MSTORE PUSH1 0x4 ADD PUSH2 0x1096 SWAP1 PUSH2 0x45DC JUMP JUMPDEST PUSH1 0x40 MLOAD DUP1 SWAP2 SUB SWAP1 REVERT JUMPDEST PUSH2 0x10B1 DUP3 DUP3 PUSH2 0x10AC PUSH2 0x20D2 JUMP JUMPDEST PUSH2 0x1784 JUMP JUMPDEST POP POP JUMP JUMPDEST PUSH1 0x60 PUSH1 0x2 DUP3 PUSH1 0x20 ADD MLOAD MLOAD LT ISZERO PUSH2 0x1100 JUMPI PUSH1 0x40 MLOAD PUSH32 0x8C379A000000000000000000000000000000000000000000000000000000000 DUP2 MSTORE PUSH1 0x4 ADD PUSH2 0x10F7 SWAP1 PUSH2 0x455C JUMP JUMPDEST PUSH1 0x40 MLOAD DUP1 SWAP2 SUB SWAP1 REVERT JUMPDEST DUP2 PUSH1 0x40 ADD MLOAD MLOAD PUSH1 0x1 DUP4 PUSH1 0x20 ADD MLOAD MLOAD PUSH2 0x1118 SWAP2 SWAP1 PUSH2 0x4B99 JUMP JUMPDEST EQ PUSH2 0x1158 JUMPI PUSH1 0x40 MLOAD PUSH32 0x8C379A000000000000000000000000000000000000000000000000000000000 DUP2 MSTORE PUSH1 0x4 ADD PUSH2 0x114F SWAP1 PUSH2 0x45BC JUMP JUMPDEST PUSH1 0x40 MLOAD DUP1 SWAP2 SUB SWAP1 REVERT JUMPDEST PUSH1 0x0 DUP3 PUSH1 0x20 ADD MLOAD MLOAD PUSH8 0xFFFFFFFFFFFFFFFF DUP2 GT ISZERO PUSH2 0x119F JUMPI PUSH32 0x4E487B7100000000000000000000000000000000000000000000000000000000 PUSH1 0x0 MSTORE PUSH1 0x41 PUSH1 0x4 MSTORE PUSH1 0x24 PUSH1 0x0 REVERT JUMPDEST PUSH1 0x40 MLOAD SWAP1 DUP1 DUP3 MSTORE DUP1 PUSH1 0x20 MUL PUSH1 0x20 ADD DUP3 ADD PUSH1 0x40 MSTORE DUP1 ISZERO PUSH2 0x11CD JUMPI DUP2 PUSH1 0x20 ADD PUSH1 0x20 DUP3 MUL DUP1 CALLDATASIZE DUP4 CALLDATACOPY DUP1 DUP3 ADD SWAP2 POP POP SWAP1 POP JUMPDEST POP SWAP1 POP DUP3 PUSH1 0x0 ADD MLOAD DUP2 PUSH1 0x0 DUP2 MLOAD DUP2 LT PUSH2 0x120F JUMPI PUSH32 0x4E487B7100000000000000000000000000000000000000000000000000000000 PUSH1 0x0 MSTORE PUSH1 0x32 PUSH1 0x4 MSTORE PUSH1 0x24 PUSH1 0x0 REVERT JUMPDEST PUSH1 0x20 MUL PUSH1 0x20 ADD ADD DUP2 DUP2 MSTORE POP POP PUSH1 0x0 JUMPDEST DUP4 PUSH1 0x40 ADD MLOAD MLOAD DUP2 LT ISZERO PUSH2 0x15E9 JUMPI PUSH1 0x0 PUSH1 0x2 PUSH8 0xFFFFFFFFFFFFFFFF DUP2 GT ISZERO PUSH2 0x126E JUMPI PUSH32 0x4E487B7100000000000000000000000000000000000000000000000000000000 PUSH1 0x0 MSTORE PUSH1 0x41 PUSH1 0x4 MSTORE PUSH1 0x24 PUSH1 0x0 REVERT JUMPDEST PUSH1 0x40 MLOAD SWAP1 DUP1 DUP3 MSTORE DUP1 PUSH1 0x20 MUL PUSH1 0x20 ADD DUP3 ADD PUSH1 0x40 MSTORE DUP1 ISZERO PUSH2 0x129C JUMPI DUP2 PUSH1 0x20 ADD PUSH1 0x20 DUP3 MUL DUP1 CALLDATASIZE DUP4 CALLDATACOPY DUP1 DUP3 ADD SWAP2 POP POP SWAP1 POP JUMPDEST POP SWAP1 POP DUP5 PUSH1 0x20 ADD MLOAD DUP3 DUP2 MLOAD DUP2 LT PUSH2 0x12DC JUMPI PUSH32 0x4E487B7100000000000000000000000000000000000000000000000000000000 PUSH1 0x0 MSTORE PUSH1 0x32 PUSH1 0x4 MSTORE PUSH1 0x24 PUSH1 0x0 REVERT JUMPDEST PUSH1 0x20 MUL PUSH1 0x20 ADD ADD MLOAD DUP2 PUSH1 0x0 DUP2 MLOAD DUP2 LT PUSH2 0x131E JUMPI PUSH32 0x4E487B7100000000000000000000000000000000000000000000000000000000 PUSH1 0x0 MSTORE PUSH1 0x32 PUSH1 0x4 MSTORE PUSH1 0x24 PUSH1 0x0 REVERT JUMPDEST PUSH1 0x20 MUL PUSH1 0x20 ADD ADD SWAP1 PUSH20 0xFFFFFFFFFFFFFFFFFFFFFFFFFFFFFFFFFFFFFFFF AND SWAP1 DUP2 PUSH20 0xFFFFFFFFFFFFFFFFFFFFFFFFFFFFFFFFFFFFFFFF AND DUP2 MSTORE POP POP DUP5 PUSH1 0x20 ADD MLOAD PUSH1 0x1 DUP4 PUSH2 0x136A SWAP2 SWAP1 PUSH2 0x4AB8 JUMP JUMPDEST DUP2 MLOAD DUP2 LT PUSH2 0x13A1 JUMPI PUSH32 0x4E487B7100000000000000000000000000000000000000000000000000000000 PUSH1 0x0 MSTORE PUSH1 0x32 PUSH1 0x4 MSTORE PUSH1 0x24 PUSH1 0x0 REVERT JUMPDEST PUSH1 0x20 MUL PUSH1 0x20 ADD ADD MLOAD DUP2 PUSH1 0x1 DUP2 MLOAD DUP2 LT PUSH2 0x13E3 JUMPI PUSH32 0x4E487B7100000000000000000000000000000000000000000000000000000000 PUSH1 0x0 MSTORE PUSH1 0x32 PUSH1 0x4 MSTORE PUSH1 0x24 PUSH1 0x0 REVERT JUMPDEST PUSH1 0x20 MUL PUSH1 0x20 ADD ADD SWAP1 PUSH20 0xFFFFFFFFFFFFFFFFFFFFFFFFFFFFFFFFFFFFFFFF AND SWAP1 DUP2 PUSH20 0xFFFFFFFFFFFFFFFFFFFFFFFFFFFFFFFFFFFFFFFF AND DUP2 MSTORE POP POP PUSH1 0x0 DUP6 PUSH1 0x40 ADD MLOAD DUP4 DUP2 MLOAD DUP2 LT PUSH2 0x145C JUMPI PUSH32 0x4E487B7100000000000000000000000000000000000000000000000000000000 PUSH1 0x0 MSTORE PUSH1 0x32 PUSH1 0x4 MSTORE PUSH1 0x24 PUSH1 0x0 REVERT JUMPDEST PUSH1 0x20 MUL PUSH1 0x20 ADD ADD MLOAD PUSH20 0xFFFFFFFFFFFFFFFFFFFFFFFFFFFFFFFFFFFFFFFF AND PUSH4 0xD06CA61F DUP6 DUP6 DUP2 MLOAD DUP2 LT PUSH2 0x14B8 JUMPI PUSH32 0x4E487B7100000000000000000000000000000000000000000000000000000000 PUSH1 0x0 MSTORE PUSH1 0x32 PUSH1 0x4 MSTORE PUSH1 0x24 PUSH1 0x0 REVERT JUMPDEST PUSH1 0x20 MUL PUSH1 0x20 ADD ADD MLOAD DUP5 PUSH1 0x40 MLOAD DUP4 PUSH4 0xFFFFFFFF AND PUSH1 0xE0 SHL DUP2 MSTORE PUSH1 0x4 ADD PUSH2 0x14DE SWAP3 SWAP2 SWAP1 PUSH2 0x471B JUMP JUMPDEST PUSH1 0x0 PUSH1 0x40 MLOAD DUP1 DUP4 SUB DUP2 DUP7 DUP1 EXTCODESIZE ISZERO DUP1 ISZERO PUSH2 0x14F6 JUMPI PUSH1 0x0 DUP1 REVERT JUMPDEST POP GAS STATICCALL ISZERO DUP1 ISZERO PUSH2 0x150A JUMPI RETURNDATASIZE PUSH1 0x0 DUP1 RETURNDATACOPY RETURNDATASIZE PUSH1 0x0 REVERT JUMPDEST POP POP POP POP PUSH1 0x40 MLOAD RETURNDATASIZE PUSH1 0x0 DUP3 RETURNDATACOPY RETURNDATASIZE PUSH1 0x1F NOT PUSH1 0x1F DUP3 ADD AND DUP3 ADD DUP1 PUSH1 0x40 MSTORE POP DUP2 ADD SWAP1 PUSH2 0x1533 SWAP2 SWAP1 PUSH2 0x3BE7 JUMP JUMPDEST SWAP1 POP DUP1 PUSH1 0x1 DUP3 MLOAD PUSH2 0x1544 SWAP2 SWAP1 PUSH2 0x4B99 JUMP JUMPDEST DUP2 MLOAD DUP2 LT PUSH2 0x157B JUMPI PUSH32 0x4E487B7100000000000000000000000000000000000000000000000000000000 PUSH1 0x0 MSTORE PUSH1 0x32 PUSH1 0x4 MSTORE PUSH1 0x24 PUSH1 0x0 REVERT JUMPDEST PUSH1 0x20 MUL PUSH1 0x20 ADD ADD MLOAD DUP5 PUSH1 0x1 DUP6 PUSH2 0x1591 SWAP2 SWAP1 PUSH2 0x4AB8 JUMP JUMPDEST DUP2 MLOAD DUP2 LT PUSH2 0x15C8 JUMPI PUSH32 0x4E487B7100000000000000000000000000000000000000000000000000000000 PUSH1 0x0 MSTORE PUSH1 0x32 PUSH1 0x4 MSTORE PUSH1 0x24 PUSH1 0x0 REVERT JUMPDEST PUSH1 0x20 MUL PUSH1 0x20 ADD ADD DUP2 DUP2 MSTORE POP POP POP POP DUP1 DUP1 PUSH2 0x15E1 SWAP1 PUSH2 0x4CD7 JUMP JUMPDEST SWAP2 POP POP PUSH2 0x121E JUMP JUMPDEST POP DUP1 SWAP2 POP POP SWAP2 SWAP1 POP JUMP JUMPDEST PUSH2 0x15FB PUSH2 0x2E53 JUMP JUMPDEST PUSH20 0xFFFFFFFFFFFFFFFFFFFFFFFFFFFFFFFFFFFFFFFF AND PUSH2 0x1619 PUSH2 0x20D2 JUMP JUMPDEST PUSH20 0xFFFFFFFFFFFFFFFFFFFFFFFFFFFFFFFFFFFFFFFF AND EQ PUSH2 0x166F JUMPI PUSH1 0x40 MLOAD PUSH32 0x8C379A000000000000000000000000000000000000000000000000000000000 DUP2 MSTORE PUSH1 0x4 ADD PUSH2 0x1666 SWAP1 PUSH2 0x45DC JUMP JUMPDEST PUSH1 0x40 MLOAD DUP1 SWAP2 SUB SWAP1 REVERT JUMPDEST PUSH2 0x1679 PUSH1 0x0 PUSH2 0x3395 JUMP JUMPDEST JUMP JUMPDEST PUSH2 0x1683 PUSH2 0x2E53 JUMP JUMPDEST PUSH20 0xFFFFFFFFFFFFFFFFFFFFFFFFFFFFFFFFFFFFFFFF AND PUSH2 0x16A1 PUSH2 0x20D2 JUMP JUMPDEST PUSH20 0xFFFFFFFFFFFFFFFFFFFFFFFFFFFFFFFFFFFFFFFF AND EQ PUSH2 0x16F7 JUMPI PUSH1 0x40 MLOAD PUSH32 0x8C379A000000000000000000000000000000000000000000000000000000000 DUP2 MSTORE PUSH1 0x4 ADD PUSH2 0x16EE SWAP1 PUSH2 0x45DC JUMP JUMPDEST PUSH1 0x40 MLOAD DUP1 SWAP2 SUB SWAP1 REVERT JUMPDEST PUSH1 0x0 SELFBALANCE GT PUSH2 0x173A JUMPI PUSH1 0x40 MLOAD PUSH32 0x8C379A000000000000000000000000000000000000000000000000000000000 DUP2 MSTORE PUSH1 0x4 ADD PUSH2 0x1731 SWAP1 PUSH2 0x463C JUMP JUMPDEST PUSH1 0x40 MLOAD DUP1 SWAP2 SUB SWAP1 REVERT JUMPDEST DUP1 PUSH20 0xFFFFFFFFFFFFFFFFFFFFFFFFFFFFFFFFFFFFFFFF AND PUSH2 0x8FC SELFBALANCE SWAP1 DUP2 ISZERO MUL SWAP1 PUSH1 0x40 MLOAD PUSH1 0x0 PUSH1 0x40 MLOAD DUP1 DUP4 SUB DUP2 DUP6 DUP9 DUP9 CALL SWAP4 POP POP POP POP ISZERO DUP1 ISZERO PUSH2 0x1780 JUMPI RETURNDATASIZE PUSH1 0x0 DUP1 RETURNDATACOPY RETURNDATASIZE PUSH1 0x0 REVERT JUMPDEST POP POP JUMP JUMPDEST PUSH2 0x178C PUSH2 0x2E53 JUMP JUMPDEST PUSH20 0xFFFFFFFFFFFFFFFFFFFFFFFFFFFFFFFFFFFFFFFF AND PUSH2 0x17AA PUSH2 0x20D2 JUMP JUMPDEST PUSH20 0xFFFFFFFFFFFFFFFFFFFFFFFFFFFFFFFFFFFFFFFF AND EQ PUSH2 0x1800 JUMPI PUSH1 0x40 MLOAD PUSH32 0x8C379A000000000000000000000000000000000000000000000000000000000 DUP2 MSTORE PUSH1 0x4 ADD PUSH2 0x17F7 SWAP1 PUSH2 0x45DC JUMP JUMPDEST PUSH1 0x40 MLOAD DUP1 SWAP2 SUB SWAP1 REVERT JUMPDEST PUSH1 0x0 JUMPDEST DUP4 DUP4 SWAP1 POP DUP2 LT ISZERO PUSH2 0x19E3 JUMPI PUSH1 0x0 DUP5 DUP5 DUP4 DUP2 DUP2 LT PUSH2 0x1849 JUMPI PUSH32 0x4E487B7100000000000000000000000000000000000000000000000000000000 PUSH1 0x0 MSTORE PUSH1 0x32 PUSH1 0x4 MSTORE PUSH1 0x24 PUSH1 0x0 REVERT JUMPDEST SWAP1 POP PUSH1 0x20 MUL ADD PUSH1 0x20 DUP2 ADD SWAP1 PUSH2 0x185E SWAP2 SWAP1 PUSH2 0x39A8 JUMP JUMPDEST PUSH20 0xFFFFFFFFFFFFFFFFFFFFFFFFFFFFFFFFFFFFFFFF AND PUSH4 0x70A08231 ADDRESS PUSH1 0x40 MLOAD DUP3 PUSH4 0xFFFFFFFF AND PUSH1 0xE0 SHL DUP2 MSTORE PUSH1 0x4 ADD PUSH2 0x1896 SWAP2 SWAP1 PUSH2 0x43E8 JUMP JUMPDEST PUSH1 0x20 PUSH1 0x40 MLOAD DUP1 DUP4 SUB DUP2 DUP7 DUP1 EXTCODESIZE ISZERO DUP1 ISZERO PUSH2 0x18AE JUMPI PUSH1 0x0 DUP1 REVERT JUMPDEST POP GAS STATICCALL ISZERO DUP1 ISZERO PUSH2 0x18C2 JUMPI RETURNDATASIZE PUSH1 0x0 DUP1 RETURNDATACOPY RETURNDATASIZE PUSH1 0x0 REVERT JUMPDEST POP POP POP POP PUSH1 0x40 MLOAD RETURNDATASIZE PUSH1 0x1F NOT PUSH1 0x1F DUP3 ADD AND DUP3 ADD DUP1 PUSH1 0x40 MSTORE POP DUP2 ADD SWAP1 PUSH2 0x18E6 SWAP2 SWAP1 PUSH2 0x3D63 JUMP JUMPDEST SWAP1 POP PUSH1 0x0 DUP2 GT ISZERO PUSH2 0x19CF JUMPI DUP5 DUP5 DUP4 DUP2 DUP2 LT PUSH2 0x192A JUMPI PUSH32 0x4E487B7100000000000000000000000000000000000000000000000000000000 PUSH1 0x0 MSTORE PUSH1 0x32 PUSH1 0x4 MSTORE PUSH1 0x24 PUSH1 0x0 REVERT JUMPDEST SWAP1 POP PUSH1 0x20 MUL ADD PUSH1 0x20 DUP2 ADD SWAP1 PUSH2 0x193F SWAP2 SWAP1 PUSH2 0x39A8 JUMP JUMPDEST PUSH20 0xFFFFFFFFFFFFFFFFFFFFFFFFFFFFFFFFFFFFFFFF AND PUSH4 0x23B872DD ADDRESS DUP6 DUP5 PUSH1 0x40 MLOAD DUP5 PUSH4 0xFFFFFFFF AND PUSH1 0xE0 SHL DUP2 MSTORE PUSH1 0x4 ADD PUSH2 0x197B SWAP4 SWAP3 SWAP2 SWAP1 PUSH2 0x442C JUMP JUMPDEST PUSH1 0x20 PUSH1 0x40 MLOAD DUP1 DUP4 SUB DUP2 PUSH1 0x0 DUP8 DUP1 EXTCODESIZE ISZERO DUP1 ISZERO PUSH2 0x1995 JUMPI PUSH1 0x0 DUP1 REVERT JUMPDEST POP GAS CALL ISZERO DUP1 ISZERO PUSH2 0x19A9 JUMPI RETURNDATASIZE PUSH1 0x0 DUP1 RETURNDATACOPY RETURNDATASIZE PUSH1 0x0 REVERT JUMPDEST POP POP POP POP PUSH1 0x40 MLOAD RETURNDATASIZE PUSH1 0x1F NOT PUSH1 0x1F DUP3 ADD AND DUP3 ADD DUP1 PUSH1 0x40 MSTORE POP DUP2 ADD SWAP1 PUSH2 0x19CD SWAP2 SWAP1 PUSH2 0x3C28 JUMP JUMPDEST POP JUMPDEST POP DUP1 DUP1 PUSH2 0x19DB SWAP1 PUSH2 0x4CD7 JUMP JUMPDEST SWAP2 POP POP PUSH2 0x1803 JUMP JUMPDEST POP POP POP POP JUMP JUMPDEST PUSH1 0x3 DUP2 DUP1 PUSH1 0x20 ADD SWAP1 PUSH2 0x19FB SWAP2 SWAP1 PUSH2 0x47E3 JUMP JUMPDEST SWAP1 POP LT ISZERO PUSH2 0x1A3E JUMPI PUSH1 0x40 MLOAD PUSH32 0x8C379A000000000000000000000000000000000000000000000000000000000 DUP2 MSTORE PUSH1 0x4 ADD PUSH2 0x1A35 SWAP1 PUSH2 0x455C JUMP JUMPDEST PUSH1 0x40 MLOAD DUP1 SWAP2 SUB SWAP1 REVERT JUMPDEST DUP1 DUP1 PUSH1 0x20 ADD SWAP1 PUSH2 0x1A4E SWAP2 SWAP1 PUSH2 0x47E3 JUMP JUMPDEST PUSH1 0x1 DUP4 DUP1 PUSH1 0x20 ADD SWAP1 PUSH2 0x1A60 SWAP2 SWAP1 PUSH2 0x47E3 JUMP JUMPDEST SWAP1 POP PUSH2 0x1A6C SWAP2 SWAP1 PUSH2 0x4B99 JUMP JUMPDEST DUP2 DUP2 LT PUSH2 0x1AA2 JUMPI PUSH32 0x4E487B7100000000000000000000000000000000000000000000000000000000 PUSH1 0x0 MSTORE PUSH1 0x32 PUSH1 0x4 MSTORE PUSH1 0x24 PUSH1 0x0 REVERT JUMPDEST SWAP1 POP PUSH1 0x20 MUL ADD PUSH1 0x20 DUP2 ADD SWAP1 PUSH2 0x1AB7 SWAP2 SWAP1 PUSH2 0x39A8 JUMP JUMPDEST PUSH20 0xFFFFFFFFFFFFFFFFFFFFFFFFFFFFFFFFFFFFFFFF AND DUP2 DUP1 PUSH1 0x20 ADD SWAP1 PUSH2 0x1ADD SWAP2 SWAP1 PUSH2 0x47E3 JUMP JUMPDEST PUSH1 0x0 DUP2 DUP2 LT PUSH2 0x1B15 JUMPI PUSH32 0x4E487B7100000000000000000000000000000000000000000000000000000000 PUSH1 0x0 MSTORE PUSH1 0x32 PUSH1 0x4 MSTORE PUSH1 0x24 PUSH1 0x0 REVERT JUMPDEST SWAP1 POP PUSH1 0x20 MUL ADD PUSH1 0x20 DUP2 ADD SWAP1 PUSH2 0x1B2A SWAP2 SWAP1 PUSH2 0x39A8 JUMP JUMPDEST PUSH20 0xFFFFFFFFFFFFFFFFFFFFFFFFFFFFFFFFFFFFFFFF AND EQ PUSH2 0x1B80 JUMPI PUSH1 0x40 MLOAD PUSH32 0x8C379A000000000000000000000000000000000000000000000000000000000 DUP2 MSTORE PUSH1 0x4 ADD PUSH2 0x1B77 SWAP1 PUSH2 0x461C JUMP JUMPDEST PUSH1 0x40 MLOAD DUP1 SWAP2 SUB SWAP1 REVERT JUMPDEST PUSH1 0x0 DUP2 DUP1 PUSH1 0x20 ADD SWAP1 PUSH2 0x1B92 SWAP2 SWAP1 PUSH2 0x47E3 JUMP JUMPDEST PUSH1 0x0 DUP2 DUP2 LT PUSH2 0x1BCA JUMPI PUSH32 0x4E487B7100000000000000000000000000000000000000000000000000000000 PUSH1 0x0 MSTORE PUSH1 0x32 PUSH1 0x4 MSTORE PUSH1 0x24 PUSH1 0x0 REVERT JUMPDEST SWAP1 POP PUSH1 0x20 MUL ADD PUSH1 0x20 DUP2 ADD SWAP1 PUSH2 0x1BDF SWAP2 SWAP1 PUSH2 0x39A8 JUMP JUMPDEST SWAP1 POP PUSH1 0x0 DUP3 PUSH1 0x0 ADD CALLDATALOAD SWAP1 POP PUSH1 0x0 PUSH20 0xDAC17F958D2EE523A2206206994597C13D831EC7 SWAP1 POP PUSH1 0x0 PUSH20 0xD9E1CE17F2641F24AE83637AB66A2CCA9C378B9F SWAP1 POP PUSH1 0x0 PUSH20 0x6DA0FD433C1A5D7A4FAA01111C044910A184553 SWAP1 POP PUSH1 0x0 DUP1 DUP7 DUP6 SWAP2 POP SWAP2 POP PUSH1 0x0 PUSH2 0x1C4A DUP4 DUP4 PUSH2 0x2BE1 JUMP JUMPDEST POP SWAP1 POP DUP8 PUSH20 0xFFFFFFFFFFFFFFFFFFFFFFFFFFFFFFFFFFFFFFFF AND DUP2 PUSH20 0xFFFFFFFFFFFFFFFFFFFFFFFFFFFFFFFFFFFFFFFF AND EQ ISZERO PUSH2 0x1D17 JUMPI DUP4 PUSH20 0xFFFFFFFFFFFFFFFFFFFFFFFFFFFFFFFFFFFFFFFF AND PUSH4 0x22C0D9F DUP9 PUSH1 0x0 ADDRESS DUP14 PUSH1 0x40 MLOAD PUSH1 0x20 ADD PUSH2 0x1CB2 SWAP2 SWAP1 PUSH2 0x46DE JUMP JUMPDEST PUSH1 0x40 MLOAD PUSH1 0x20 DUP2 DUP4 SUB SUB DUP2 MSTORE SWAP1 PUSH1 0x40 MSTORE PUSH1 0x40 MLOAD DUP6 PUSH4 0xFFFFFFFF AND PUSH1 0xE0 SHL DUP2 MSTORE PUSH1 0x4 ADD PUSH2 0x1CE0 SWAP5 SWAP4 SWAP3 SWAP2 SWAP1 PUSH2 0x474B JUMP JUMPDEST PUSH1 0x0 PUSH1 0x40 MLOAD DUP1 DUP4 SUB DUP2 PUSH1 0x0 DUP8 DUP1 EXTCODESIZE ISZERO DUP1 ISZERO PUSH2 0x1CFA JUMPI PUSH1 0x0 DUP1 REVERT JUMPDEST POP GAS CALL ISZERO DUP1 ISZERO PUSH2 0x1D0E JUMPI RETURNDATASIZE PUSH1 0x0 DUP1 RETURNDATACOPY RETURNDATASIZE PUSH1 0x0 REVERT JUMPDEST POP POP POP POP PUSH2 0x1DA9 JUMP JUMPDEST DUP4 PUSH20 0xFFFFFFFFFFFFFFFFFFFFFFFFFFFFFFFFFFFFFFFF AND PUSH4 0x22C0D9F PUSH1 0x0 DUP10 ADDRESS DUP14 PUSH1 0x40 MLOAD PUSH1 0x20 ADD PUSH2 0x1D48 SWAP2 SWAP1 PUSH2 0x46DE JUMP JUMPDEST PUSH1 0x40 MLOAD PUSH1 0x20 DUP2 DUP4 SUB SUB DUP2 MSTORE SWAP1 PUSH1 0x40 MSTORE PUSH1 0x40 MLOAD DUP6 PUSH4 0xFFFFFFFF AND PUSH1 0xE0 SHL DUP2 MSTORE PUSH1 0x4 ADD PUSH2 0x1D76 SWAP5 SWAP4 SWAP3 SWAP2 SWAP1 PUSH2 0x44D0 JUMP JUMPDEST PUSH1 0x0 PUSH1 0x40 MLOAD DUP1 DUP4 SUB DUP2 PUSH1 0x0 DUP8 DUP1 EXTCODESIZE ISZERO DUP1 ISZERO PUSH2 0x1D90 JUMPI PUSH1 0x0 DUP1 REVERT JUMPDEST POP GAS CALL ISZERO DUP1 ISZERO PUSH2 0x1DA4 JUMPI RETURNDATASIZE PUSH1 0x0 DUP1 RETURNDATACOPY RETURNDATASIZE PUSH1 0x0 REVERT JUMPDEST POP POP POP POP JUMPDEST DUP8 PUSH20 0xFFFFFFFFFFFFFFFFFFFFFFFFFFFFFFFFFFFFFFFF AND PUSH4 0xA9059CBB CALLER DUP11 PUSH20 0xFFFFFFFFFFFFFFFFFFFFFFFFFFFFFFFFFFFFFFFF AND PUSH4 0x70A08231 ADDRESS PUSH1 0x40 MLOAD DUP3 PUSH4 0xFFFFFFFF AND PUSH1 0xE0 SHL DUP2 MSTORE PUSH1 0x4 ADD PUSH2 0x1DFF SWAP2 SWAP1 PUSH2 0x43E8 JUMP JUMPDEST PUSH1 0x20 PUSH1 0x40 MLOAD DUP1 DUP4 SUB DUP2 DUP7 DUP1 EXTCODESIZE ISZERO DUP1 ISZERO PUSH2 0x1E17 JUMPI PUSH1 0x0 DUP1 REVERT JUMPDEST POP GAS STATICCALL ISZERO DUP1 ISZERO PUSH2 0x1E2B JUMPI RETURNDATASIZE PUSH1 0x0 DUP1 RETURNDATACOPY RETURNDATASIZE PUSH1 0x0 REVERT JUMPDEST POP POP POP POP PUSH1 0x40 MLOAD RETURNDATASIZE PUSH1 0x1F NOT PUSH1 0x1F DUP3 ADD AND DUP3 ADD DUP1 PUSH1 0x40 MSTORE POP DUP2 ADD SWAP1 PUSH2 0x1E4F SWAP2 SWAP1 PUSH2 0x3D63 JUMP JUMPDEST PUSH1 0x40 MLOAD DUP4 PUSH4 0xFFFFFFFF AND PUSH1 0xE0 SHL DUP2 MSTORE PUSH1 0x4 ADD PUSH2 0x1E6C SWAP3 SWAP2 SWAP1 PUSH2 0x4463 JUMP JUMPDEST PUSH1 0x20 PUSH1 0x40 MLOAD DUP1 DUP4 SUB DUP2 PUSH1 0x0 DUP8 DUP1 EXTCODESIZE ISZERO DUP1 ISZERO PUSH2 0x1E86 JUMPI PUSH1 0x0 DUP1 REVERT JUMPDEST POP GAS CALL ISZERO DUP1 ISZERO PUSH2 0x1E9A JUMPI RETURNDATASIZE PUSH1 0x0 DUP1 RETURNDATACOPY RETURNDATASIZE PUSH1 0x0 REVERT JUMPDEST POP POP POP POP PUSH1 0x40 MLOAD RETURNDATASIZE PUSH1 0x1F NOT PUSH1 0x1F DUP3 ADD AND DUP3 ADD DUP1 PUSH1 0x40 MSTORE POP DUP2 ADD SWAP1 PUSH2 0x1EBE SWAP2 SWAP1 PUSH2 0x3C28 JUMP JUMPDEST POP POP POP POP POP POP POP POP POP POP JUMP JUMPDEST PUSH1 0x60 PUSH1 0x0 DUP4 DUP4 SWAP1 POP PUSH8 0xFFFFFFFFFFFFFFFF DUP2 GT ISZERO PUSH2 0x1F11 JUMPI PUSH32 0x4E487B7100000000000000000000000000000000000000000000000000000000 PUSH1 0x0 MSTORE PUSH1 0x41 PUSH1 0x4 MSTORE PUSH1 0x24 PUSH1 0x0 REVERT JUMPDEST PUSH1 0x40 MLOAD SWAP1 DUP1 DUP3 MSTORE DUP1 PUSH1 0x20 MUL PUSH1 0x20 ADD DUP3 ADD PUSH1 0x40 MSTORE DUP1 ISZERO PUSH2 0x1F3F JUMPI DUP2 PUSH1 0x20 ADD PUSH1 0x20 DUP3 MUL DUP1 CALLDATASIZE DUP4 CALLDATACOPY DUP1 DUP3 ADD SWAP2 POP POP SWAP1 POP JUMPDEST POP SWAP1 POP PUSH1 0x0 JUMPDEST DUP5 DUP5 SWAP1 POP DUP2 LT ISZERO PUSH2 0x20C7 JUMPI ADDRESS PUSH20 0xFFFFFFFFFFFFFFFFFFFFFFFFFFFFFFFFFFFFFFFF AND PUSH4 0x9D35296 DUP7 DUP7 DUP5 DUP2 DUP2 LT PUSH2 0x1FA5 JUMPI PUSH32 0x4E487B7100000000000000000000000000000000000000000000000000000000 PUSH1 0x0 MSTORE PUSH1 0x32 PUSH1 0x4 MSTORE PUSH1 0x24 PUSH1 0x0 REVERT JUMPDEST SWAP1 POP PUSH1 0x20 MUL DUP2 ADD SWAP1 PUSH2 0x1FB7 SWAP2 SWAP1 PUSH2 0x483A JUMP JUMPDEST PUSH1 0x40 MLOAD DUP3 PUSH4 0xFFFFFFFF AND PUSH1 0xE0 SHL DUP2 MSTORE PUSH1 0x4 ADD PUSH2 0x1FD3 SWAP2 SWAP1 PUSH2 0x46DE JUMP JUMPDEST PUSH1 0x20 PUSH1 0x40 MLOAD DUP1 DUP4 SUB DUP2 DUP7 DUP1 EXTCODESIZE ISZERO DUP1 ISZERO PUSH2 0x1FEB JUMPI PUSH1 0x0 DUP1 REVERT JUMPDEST POP GAS STATICCALL SWAP3 POP POP POP DUP1 ISZERO PUSH2 0x201C JUMPI POP PUSH1 0x40 MLOAD RETURNDATASIZE PUSH1 0x1F NOT PUSH1 0x1F DUP3 ADD AND DUP3 ADD DUP1 PUSH1 0x40 MSTORE POP DUP2 ADD SWAP1 PUSH2 0x2019 SWAP2 SWAP1 PUSH2 0x3D63 JUMP JUMPDEST PUSH1 0x1 JUMPDEST PUSH2 0x206C JUMPI PUSH1 0x0 DUP3 DUP3 DUP2 MLOAD DUP2 LT PUSH2 0x205B JUMPI PUSH32 0x4E487B7100000000000000000000000000000000000000000000000000000000 PUSH1 0x0 MSTORE PUSH1 0x32 PUSH1 0x4 MSTORE PUSH1 0x24 PUSH1 0x0 REVERT JUMPDEST PUSH1 0x20 MUL PUSH1 0x20 ADD ADD DUP2 DUP2 MSTORE POP POP PUSH2 0x20B4 JUMP JUMPDEST DUP1 DUP4 DUP4 DUP2 MLOAD DUP2 LT PUSH2 0x20A6 JUMPI PUSH32 0x4E487B7100000000000000000000000000000000000000000000000000000000 PUSH1 0x0 MSTORE PUSH1 0x32 PUSH1 0x4 MSTORE PUSH1 0x24 PUSH1 0x0 REVERT JUMPDEST PUSH1 0x20 MUL PUSH1 0x20 ADD ADD DUP2 DUP2 MSTORE POP POP POP JUMPDEST DUP1 DUP1 PUSH2 0x20BF SWAP1 PUSH2 0x4CD7 JUMP JUMPDEST SWAP2 POP POP PUSH2 0x1F45 JUMP JUMPDEST POP DUP1 SWAP2 POP POP SWAP3 SWAP2 POP POP JUMP JUMPDEST PUSH1 0x0 DUP1 PUSH1 0x0 SWAP1 SLOAD SWAP1 PUSH2 0x100 EXP SWAP1 DIV PUSH20 0xFFFFFFFFFFFFFFFFFFFFFFFFFFFFFFFFFFFFFFFF AND SWAP1 POP SWAP1 JUMP JUMPDEST PUSH1 0x3 DUP2 PUSH1 0x20 ADD MLOAD MLOAD LT ISZERO PUSH2 0x2144 JUMPI PUSH1 0x40 MLOAD PUSH32 0x8C379A000000000000000000000000000000000000000000000000000000000 DUP2 MSTORE PUSH1 0x4 ADD PUSH2 0x213B SWAP1 PUSH2 0x455C JUMP JUMPDEST PUSH1 0x40 MLOAD DUP1 SWAP2 SUB SWAP1 REVERT JUMPDEST DUP1 PUSH1 0x20 ADD MLOAD PUSH1 0x1 DUP3 PUSH1 0x20 ADD MLOAD MLOAD PUSH2 0x215B SWAP2 SWAP1 PUSH2 0x4B99 JUMP JUMPDEST DUP2 MLOAD DUP2 LT PUSH2 0x2192 JUMPI PUSH32 0x4E487B7100000000000000000000000000000000000000000000000000000000 PUSH1 0x0 MSTORE PUSH1 0x32 PUSH1 0x4 MSTORE PUSH1 0x24 PUSH1 0x0 REVERT JUMPDEST PUSH1 0x20 MUL PUSH1 0x20 ADD ADD MLOAD PUSH20 0xFFFFFFFFFFFFFFFFFFFFFFFFFFFFFFFFFFFFFFFF AND DUP2 PUSH1 0x20 ADD MLOAD PUSH1 0x0 DUP2 MLOAD DUP2 LT PUSH2 0x21EE JUMPI PUSH32 0x4E487B7100000000000000000000000000000000000000000000000000000000 PUSH1 0x0 MSTORE PUSH1 0x32 PUSH1 0x4 MSTORE PUSH1 0x24 PUSH1 0x0 REVERT JUMPDEST PUSH1 0x20 MUL PUSH1 0x20 ADD ADD MLOAD PUSH20 0xFFFFFFFFFFFFFFFFFFFFFFFFFFFFFFFFFFFFFFFF AND EQ PUSH2 0x224C JUMPI PUSH1 0x40 MLOAD PUSH32 0x8C379A000000000000000000000000000000000000000000000000000000000 DUP2 MSTORE PUSH1 0x4 ADD PUSH2 0x2243 SWAP1 PUSH2 0x461C JUMP JUMPDEST PUSH1 0x40 MLOAD DUP1 SWAP2 SUB SWAP1 REVERT JUMPDEST PUSH1 0x0 PUSH2 0x2257 DUP3 PUSH2 0x10B5 JUMP JUMPDEST SWAP1 POP DUP1 PUSH1 0x0 DUP2 MLOAD DUP2 LT PUSH2 0x2293 JUMPI PUSH32 0x4E487B7100000000000000000000000000000000000000000000000000000000 PUSH1 0x0 MSTORE PUSH1 0x32 PUSH1 0x4 MSTORE PUSH1 0x24 PUSH1 0x0 REVERT JUMPDEST PUSH1 0x20 MUL PUSH1 0x20 ADD ADD MLOAD DUP2 PUSH1 0x1 DUP4 MLOAD PUSH2 0x22AA SWAP2 SWAP1 PUSH2 0x4B99 JUMP JUMPDEST DUP2 MLOAD DUP2 LT PUSH2 0x22E1 JUMPI PUSH32 0x4E487B7100000000000000000000000000000000000000000000000000000000 PUSH1 0x0 MSTORE PUSH1 0x32 PUSH1 0x4 MSTORE PUSH1 0x24 PUSH1 0x0 REVERT JUMPDEST PUSH1 0x20 MUL PUSH1 0x20 ADD ADD MLOAD GT PUSH2 0x2329 JUMPI PUSH1 0x40 MLOAD PUSH32 0x8C379A000000000000000000000000000000000000000000000000000000000 DUP2 MSTORE PUSH1 0x4 ADD PUSH2 0x2320 SWAP1 PUSH2 0x465C JUMP JUMPDEST PUSH1 0x40 MLOAD DUP1 SWAP2 SUB SWAP1 REVERT JUMPDEST PUSH1 0x0 DUP3 PUSH1 0x20 ADD MLOAD PUSH1 0x0 DUP2 MLOAD DUP2 LT PUSH2 0x2369 JUMPI PUSH32 0x4E487B7100000000000000000000000000000000000000000000000000000000 PUSH1 0x0 MSTORE PUSH1 0x32 PUSH1 0x4 MSTORE PUSH1 0x24 PUSH1 0x0 REVERT JUMPDEST PUSH1 0x20 MUL PUSH1 0x20 ADD ADD MLOAD PUSH20 0xFFFFFFFFFFFFFFFFFFFFFFFFFFFFFFFFFFFFFFFF AND PUSH4 0x70A08231 ADDRESS PUSH1 0x40 MLOAD DUP3 PUSH4 0xFFFFFFFF AND PUSH1 0xE0 SHL DUP2 MSTORE PUSH1 0x4 ADD PUSH2 0x23A9 SWAP2 SWAP1 PUSH2 0x43E8 JUMP JUMPDEST PUSH1 0x20 PUSH1 0x40 MLOAD DUP1 DUP4 SUB DUP2 DUP7 DUP1 EXTCODESIZE ISZERO DUP1 ISZERO PUSH2 0x23C1 JUMPI PUSH1 0x0 DUP1 REVERT JUMPDEST POP GAS STATICCALL ISZERO DUP1 ISZERO PUSH2 0x23D5 JUMPI RETURNDATASIZE PUSH1 0x0 DUP1 RETURNDATACOPY RETURNDATASIZE PUSH1 0x0 REVERT JUMPDEST POP POP POP POP PUSH1 0x40 MLOAD RETURNDATASIZE PUSH1 0x1F NOT PUSH1 0x1F DUP3 ADD AND DUP3 ADD DUP1 PUSH1 0x40 MSTORE POP DUP2 ADD SWAP1 PUSH2 0x23F9 SWAP2 SWAP1 PUSH2 0x3D63 JUMP JUMPDEST SWAP1 POP PUSH2 0x240E DUP3 DUP5 PUSH1 0x20 ADD MLOAD DUP6 PUSH1 0x40 ADD MLOAD PUSH2 0x2E5B JUMP JUMPDEST PUSH1 0x0 DUP4 PUSH1 0x20 ADD MLOAD PUSH1 0x0 DUP2 MLOAD DUP2 LT PUSH2 0x244E JUMPI PUSH32 0x4E487B7100000000000000000000000000000000000000000000000000000000 PUSH1 0x0 MSTORE PUSH1 0x32 PUSH1 0x4 MSTORE PUSH1 0x24 PUSH1 0x0 REVERT JUMPDEST PUSH1 0x20 MUL PUSH1 0x20 ADD ADD MLOAD PUSH20 0xFFFFFFFFFFFFFFFFFFFFFFFFFFFFFFFFFFFFFFFF AND PUSH4 0x70A08231 ADDRESS PUSH1 0x40 MLOAD DUP3 PUSH4 0xFFFFFFFF AND PUSH1 0xE0 SHL DUP2 MSTORE PUSH1 0x4 ADD PUSH2 0x248E SWAP2 SWAP1 PUSH2 0x43E8 JUMP JUMPDEST PUSH1 0x20 PUSH1 0x40 MLOAD DUP1 DUP4 SUB DUP2 DUP7 DUP1 EXTCODESIZE ISZERO DUP1 ISZERO PUSH2 0x24A6 JUMPI PUSH1 0x0 DUP1 REVERT JUMPDEST POP GAS STATICCALL ISZERO DUP1 ISZERO PUSH2 0x24BA JUMPI RETURNDATASIZE PUSH1 0x0 DUP1 RETURNDATACOPY RETURNDATASIZE PUSH1 0x0 REVERT JUMPDEST POP POP POP POP PUSH1 0x40 MLOAD RETURNDATASIZE PUSH1 0x1F NOT PUSH1 0x1F DUP3 ADD AND DUP3 ADD DUP1 PUSH1 0x40 MSTORE POP DUP2 ADD SWAP1 PUSH2 0x24DE SWAP2 SWAP1 PUSH2 0x3D63 JUMP JUMPDEST SWAP1 POP DUP2 DUP2 GT PUSH2 0x2522 JUMPI PUSH1 0x40 MLOAD PUSH32 0x8C379A000000000000000000000000000000000000000000000000000000000 DUP2 MSTORE PUSH1 0x4 ADD PUSH2 0x2519 SWAP1 PUSH2 0x457C JUMP JUMPDEST PUSH1 0x40 MLOAD DUP1 SWAP2 SUB SWAP1 REVERT JUMPDEST POP POP POP POP JUMP JUMPDEST PUSH2 0x2530 PUSH2 0x3559 JUMP JUMPDEST PUSH1 0x0 DUP4 PUSH20 0xFFFFFFFFFFFFFFFFFFFFFFFFFFFFFFFFFFFFFFFF AND PUSH4 0x1E3DD18B DUP5 PUSH1 0x40 MLOAD DUP3 PUSH4 0xFFFFFFFF AND PUSH1 0xE0 SHL DUP2 MSTORE PUSH1 0x4 ADD PUSH2 0x256B SWAP2 SWAP1 PUSH2 0x4700 JUMP JUMPDEST PUSH1 0x20 PUSH1 0x40 MLOAD DUP1 DUP4 SUB DUP2 DUP7 DUP1 EXTCODESIZE ISZERO DUP1 ISZERO PUSH2 0x2583 JUMPI PUSH1 0x0 DUP1 REVERT JUMPDEST POP GAS STATICCALL ISZERO DUP1 ISZERO PUSH2 0x2597 JUMPI RETURNDATASIZE PUSH1 0x0 DUP1 RETURNDATACOPY RETURNDATASIZE PUSH1 0x0 REVERT JUMPDEST POP POP POP POP PUSH1 0x40 MLOAD RETURNDATASIZE PUSH1 0x1F NOT PUSH1 0x1F DUP3 ADD AND DUP3 ADD DUP1 PUSH1 0x40 MSTORE POP DUP2 ADD SWAP1 PUSH2 0x25BB SWAP2 SWAP1 PUSH2 0x39D1 JUMP JUMPDEST SWAP1 POP PUSH1 0x0 DUP2 PUSH20 0xFFFFFFFFFFFFFFFFFFFFFFFFFFFFFFFFFFFFFFFF AND PUSH4 0xDFE1681 PUSH1 0x40 MLOAD DUP2 PUSH4 0xFFFFFFFF AND PUSH1 0xE0 SHL DUP2 MSTORE PUSH1 0x4 ADD PUSH1 0x20 PUSH1 0x40 MLOAD DUP1 DUP4 SUB DUP2 DUP7 DUP1 EXTCODESIZE ISZERO DUP1 ISZERO PUSH2 0x2605 JUMPI PUSH1 0x0 DUP1 REVERT JUMPDEST POP GAS STATICCALL ISZERO DUP1 ISZERO PUSH2 0x2619 JUMPI RETURNDATASIZE PUSH1 0x0 DUP1 RETURNDATACOPY RETURNDATASIZE PUSH1 0x0 REVERT JUMPDEST POP POP POP POP PUSH1 0x40 MLOAD RETURNDATASIZE PUSH1 0x1F NOT PUSH1 0x1F DUP3 ADD AND DUP3 ADD DUP1 PUSH1 0x40 MSTORE POP DUP2 ADD SWAP1 PUSH2 0x263D SWAP2 SWAP1 PUSH2 0x39D1 JUMP JUMPDEST SWAP1 POP PUSH1 0x0 PUSH2 0x264A DUP3 PUSH2 0x3459 JUMP JUMPDEST SWAP1 POP PUSH1 0x0 DUP4 PUSH20 0xFFFFFFFFFFFFFFFFFFFFFFFFFFFFFFFFFFFFFFFF AND PUSH4 0xD21220A7 PUSH1 0x40 MLOAD DUP2 PUSH4 0xFFFFFFFF AND PUSH1 0xE0 SHL DUP2 MSTORE PUSH1 0x4 ADD PUSH1 0x20 PUSH1 0x40 MLOAD DUP1 DUP4 SUB DUP2 DUP7 DUP1 EXTCODESIZE ISZERO DUP1 ISZERO PUSH2 0x2694 JUMPI PUSH1 0x0 DUP1 REVERT JUMPDEST POP GAS STATICCALL ISZERO DUP1 ISZERO PUSH2 0x26A8 JUMPI RETURNDATASIZE PUSH1 0x0 DUP1 RETURNDATACOPY RETURNDATASIZE PUSH1 0x0 REVERT JUMPDEST POP POP POP POP PUSH1 0x40 MLOAD RETURNDATASIZE PUSH1 0x1F NOT PUSH1 0x1F DUP3 ADD AND DUP3 ADD DUP1 PUSH1 0x40 MSTORE POP DUP2 ADD SWAP1 PUSH2 0x26CC SWAP2 SWAP1 PUSH2 0x39D1 JUMP JUMPDEST SWAP1 POP PUSH1 0x0 PUSH2 0x26D9 DUP3 PUSH2 0x3459 JUMP JUMPDEST SWAP1 POP PUSH1 0x0 DUP1 DUP7 PUSH20 0xFFFFFFFFFFFFFFFFFFFFFFFFFFFFFFFFFFFFFFFF AND PUSH4 0x902F1AC PUSH1 0x40 MLOAD DUP2 PUSH4 0xFFFFFFFF AND PUSH1 0xE0 SHL DUP2 MSTORE PUSH1 0x4 ADD PUSH1 0x60 PUSH1 0x40 MLOAD DUP1 DUP4 SUB DUP2 DUP7 DUP1 EXTCODESIZE ISZERO DUP1 ISZERO PUSH2 0x2724 JUMPI PUSH1 0x0 DUP1 REVERT JUMPDEST POP GAS STATICCALL ISZERO DUP1 ISZERO PUSH2 0x2738 JUMPI RETURNDATASIZE PUSH1 0x0 DUP1 RETURNDATACOPY RETURNDATASIZE PUSH1 0x0 REVERT JUMPDEST POP POP POP POP PUSH1 0x40 MLOAD RETURNDATASIZE PUSH1 0x1F NOT PUSH1 0x1F DUP3 ADD AND DUP3 ADD DUP1 PUSH1 0x40 MSTORE POP DUP2 ADD SWAP1 PUSH2 0x275C SWAP2 SWAP1 PUSH2 0x3D14 JUMP JUMPDEST POP SWAP2 POP SWAP2 POP PUSH1 0x40 MLOAD DUP1 PUSH1 0xE0 ADD PUSH1 0x40 MSTORE DUP1 DUP9 PUSH20 0xFFFFFFFFFFFFFFFFFFFFFFFFFFFFFFFFFFFFFFFF AND DUP2 MSTORE PUSH1 0x20 ADD DUP8 PUSH20 0xFFFFFFFFFFFFFFFFFFFFFFFFFFFFFFFFFFFFFFFF AND DUP2 MSTORE PUSH1 0x20 ADD DUP6 PUSH20 0xFFFFFFFFFFFFFFFFFFFFFFFFFFFFFFFFFFFFFFFF AND DUP2 MSTORE PUSH1 0x20 ADD DUP7 DUP2 MSTORE PUSH1 0x20 ADD DUP5 DUP2 MSTORE PUSH1 0x20 ADD DUP4 PUSH14 0xFFFFFFFFFFFFFFFFFFFFFFFFFFFF AND DUP2 MSTORE PUSH1 0x20 ADD DUP3 PUSH14 0xFFFFFFFFFFFFFFFFFFFFFFFFFFFF AND DUP2 MSTORE POP SWAP8 POP POP POP POP POP POP POP POP SWAP3 SWAP2 POP POP JUMP JUMPDEST PUSH2 0x2812 DUP6 DUP6 DUP6 DUP6 DUP6 PUSH2 0x2928 JUMP JUMPDEST POP POP POP POP POP JUMP JUMPDEST POP JUMP JUMPDEST PUSH2 0x2829 DUP6 DUP6 DUP6 DUP6 DUP6 PUSH2 0x2928 JUMP JUMPDEST POP POP POP POP POP JUMP JUMPDEST PUSH2 0x2838 PUSH2 0x2E53 JUMP JUMPDEST PUSH20 0xFFFFFFFFFFFFFFFFFFFFFFFFFFFFFFFFFFFFFFFF AND PUSH2 0x2856 PUSH2 0x20D2 JUMP JUMPDEST PUSH20 0xFFFFFFFFFFFFFFFFFFFFFFFFFFFFFFFFFFFFFFFF AND EQ PUSH2 0x28AC JUMPI PUSH1 0x40 MLOAD PUSH32 0x8C379A000000000000000000000000000000000000000000000000000000000 DUP2 MSTORE PUSH1 0x4 ADD PUSH2 0x28A3 SWAP1 PUSH2 0x45DC JUMP JUMPDEST PUSH1 0x40 MLOAD DUP1 SWAP2 SUB SWAP1 REVERT JUMPDEST PUSH1 0x0 PUSH20 0xFFFFFFFFFFFFFFFFFFFFFFFFFFFFFFFFFFFFFFFF AND DUP2 PUSH20 0xFFFFFFFFFFFFFFFFFFFFFFFFFFFFFFFFFFFFFFFF AND EQ ISZERO PUSH2 0x291C JUMPI PUSH1 0x40 MLOAD PUSH32 0x8C379A000000000000000000000000000000000000000000000000000000000 DUP2 MSTORE PUSH1 0x4 ADD PUSH2 0x2913 SWAP1 PUSH2 0x451C JUMP JUMPDEST PUSH1 0x40 MLOAD DUP1 SWAP2 SUB SWAP1 REVERT JUMPDEST PUSH2 0x2925 DUP2 PUSH2 0x3395 JUMP JUMPDEST POP JUMP JUMPDEST PUSH1 0x0 PUSH8 0xFFFFFFFFFFFFFFFF DUP2 GT ISZERO PUSH2 0x2969 JUMPI PUSH32 0x4E487B7100000000000000000000000000000000000000000000000000000000 PUSH1 0x0 MSTORE PUSH1 0x41 PUSH1 0x4 MSTORE PUSH1 0x24 PUSH1 0x0 REVERT JUMPDEST PUSH1 0x40 MLOAD SWAP1 DUP1 DUP3 MSTORE DUP1 PUSH1 0x1F ADD PUSH1 0x1F NOT AND PUSH1 0x20 ADD DUP3 ADD PUSH1 0x40 MSTORE DUP1 ISZERO PUSH2 0x299B JUMPI DUP2 PUSH1 0x20 ADD PUSH1 0x1 DUP3 MUL DUP1 CALLDATASIZE DUP4 CALLDATACOPY DUP1 DUP3 ADD SWAP2 POP POP SWAP1 POP JUMPDEST POP DUP1 MLOAD SWAP1 PUSH1 0x20 ADD KECCAK256 DUP3 DUP3 PUSH1 0x40 MLOAD PUSH2 0x29B3 SWAP3 SWAP2 SWAP1 PUSH2 0x43CF JUMP JUMPDEST PUSH1 0x40 MLOAD DUP1 SWAP2 SUB SWAP1 KECCAK256 EQ PUSH2 0x2BDA JUMPI PUSH1 0x0 CALLER PUSH20 0xFFFFFFFFFFFFFFFFFFFFFFFFFFFFFFFFFFFFFFFF AND PUSH4 0xDFE1681 PUSH1 0x40 MLOAD DUP2 PUSH4 0xFFFFFFFF AND PUSH1 0xE0 SHL DUP2 MSTORE PUSH1 0x4 ADD PUSH1 0x20 PUSH1 0x40 MLOAD DUP1 DUP4 SUB DUP2 DUP7 DUP1 EXTCODESIZE ISZERO DUP1 ISZERO PUSH2 0x2A08 JUMPI PUSH1 0x0 DUP1 REVERT JUMPDEST POP GAS STATICCALL ISZERO DUP1 ISZERO PUSH2 0x2A1C JUMPI RETURNDATASIZE PUSH1 0x0 DUP1 RETURNDATACOPY RETURNDATASIZE PUSH1 0x0 REVERT JUMPDEST POP POP POP POP PUSH1 0x40 MLOAD RETURNDATASIZE PUSH1 0x1F NOT PUSH1 0x1F DUP3 ADD AND DUP3 ADD DUP1 PUSH1 0x40 MSTORE POP DUP2 ADD SWAP1 PUSH2 0x2A40 SWAP2 SWAP1 PUSH2 0x39D1 JUMP JUMPDEST SWAP1 POP PUSH1 0x0 CALLER PUSH20 0xFFFFFFFFFFFFFFFFFFFFFFFFFFFFFFFFFFFFFFFF AND PUSH4 0xD21220A7 PUSH1 0x40 MLOAD DUP2 PUSH4 0xFFFFFFFF AND PUSH1 0xE0 SHL DUP2 MSTORE PUSH1 0x4 ADD PUSH1 0x20 PUSH1 0x40 MLOAD DUP1 DUP4 SUB DUP2 DUP7 DUP1 EXTCODESIZE ISZERO DUP1 ISZERO PUSH2 0x2A8A JUMPI PUSH1 0x0 DUP1 REVERT JUMPDEST POP GAS STATICCALL ISZERO DUP1 ISZERO PUSH2 0x2A9E JUMPI RETURNDATASIZE PUSH1 0x0 DUP1 RETURNDATACOPY RETURNDATASIZE PUSH1 0x0 REVERT JUMPDEST POP POP POP POP PUSH1 0x40 MLOAD RETURNDATASIZE PUSH1 0x1F NOT PUSH1 0x1F DUP3 ADD AND DUP3 ADD DUP1 PUSH1 0x40 MSTORE POP DUP2 ADD SWAP1 PUSH2 0x2AC2 SWAP2 SWAP1 PUSH2 0x39D1 JUMP JUMPDEST SWAP1 POP PUSH2 0x2ADB DUP5 DUP5 DUP2 ADD SWAP1 PUSH2 0x2AD6 SWAP2 SWAP1 PUSH2 0x3CD3 JUMP JUMPDEST PUSH2 0x20FB JUMP JUMPDEST PUSH1 0x0 PUSH1 0x1 PUSH2 0x3E5 PUSH1 0x3 PUSH1 0x0 DUP11 GT PUSH2 0x2AF2 JUMPI DUP9 PUSH2 0x2AF4 JUMP JUMPDEST DUP10 JUMPDEST PUSH2 0x2AFE SWAP2 SWAP1 PUSH2 0x4B3F JUMP JUMPDEST PUSH2 0x2B08 SWAP2 SWAP1 PUSH2 0x4B0E JUMP JUMPDEST PUSH2 0x2B12 SWAP2 SWAP1 PUSH2 0x4AB8 JUMP JUMPDEST SWAP1 POP PUSH1 0x0 DUP2 PUSH1 0x0 DUP10 GT PUSH2 0x2B25 JUMPI DUP8 PUSH2 0x2B27 JUMP JUMPDEST DUP9 JUMPDEST PUSH2 0x2B31 SWAP2 SWAP1 PUSH2 0x4AB8 JUMP JUMPDEST SWAP1 POP PUSH1 0x0 DUP1 DUP10 GT PUSH2 0x2B42 JUMPI DUP4 PUSH2 0x2B44 JUMP JUMPDEST DUP5 JUMPDEST SWAP1 POP DUP1 PUSH20 0xFFFFFFFFFFFFFFFFFFFFFFFFFFFFFFFFFFFFFFFF AND PUSH4 0xA9059CBB CALLER DUP5 PUSH1 0x40 MLOAD DUP4 PUSH4 0xFFFFFFFF AND PUSH1 0xE0 SHL DUP2 MSTORE PUSH1 0x4 ADD PUSH2 0x2B81 SWAP3 SWAP2 SWAP1 PUSH2 0x4463 JUMP JUMPDEST PUSH1 0x20 PUSH1 0x40 MLOAD DUP1 DUP4 SUB DUP2 PUSH1 0x0 DUP8 DUP1 EXTCODESIZE ISZERO DUP1 ISZERO PUSH2 0x2B9B JUMPI PUSH1 0x0 DUP1 REVERT JUMPDEST POP GAS CALL ISZERO DUP1 ISZERO PUSH2 0x2BAF JUMPI RETURNDATASIZE PUSH1 0x0 DUP1 RETURNDATACOPY RETURNDATASIZE PUSH1 0x0 REVERT JUMPDEST POP POP POP POP PUSH1 0x40 MLOAD RETURNDATASIZE PUSH1 0x1F NOT PUSH1 0x1F DUP3 ADD AND DUP3 ADD DUP1 PUSH1 0x40 MSTORE POP DUP2 ADD SWAP1 PUSH2 0x2BD3 SWAP2 SWAP1 PUSH2 0x3C28 JUMP JUMPDEST POP POP POP POP POP POP JUMPDEST POP POP POP POP POP JUMP JUMPDEST PUSH1 0x0 DUP1 DUP3 PUSH20 0xFFFFFFFFFFFFFFFFFFFFFFFFFFFFFFFFFFFFFFFF AND DUP5 PUSH20 0xFFFFFFFFFFFFFFFFFFFFFFFFFFFFFFFFFFFFFFFF AND EQ ISZERO PUSH2 0x2C53 JUMPI PUSH1 0x40 MLOAD PUSH32 0x8C379A000000000000000000000000000000000000000000000000000000000 DUP2 MSTORE PUSH1 0x4 ADD PUSH2 0x2C4A SWAP1 PUSH2 0x459C JUMP JUMPDEST PUSH1 0x40 MLOAD DUP1 SWAP2 SUB SWAP1 REVERT JUMPDEST DUP3 PUSH20 0xFFFFFFFFFFFFFFFFFFFFFFFFFFFFFFFFFFFFFFFF AND DUP5 PUSH20 0xFFFFFFFFFFFFFFFFFFFFFFFFFFFFFFFFFFFFFFFF AND LT PUSH2 0x2C8D JUMPI DUP3 DUP5 PUSH2 0x2C90 JUMP JUMPDEST DUP4 DUP4 JUMPDEST DUP1 SWAP3 POP DUP2 SWAP4 POP POP POP PUSH1 0x0 PUSH20 0xFFFFFFFFFFFFFFFFFFFFFFFFFFFFFFFFFFFFFFFF AND DUP3 PUSH20 0xFFFFFFFFFFFFFFFFFFFFFFFFFFFFFFFFFFFFFFFF AND EQ ISZERO PUSH2 0x2D08 JUMPI PUSH1 0x40 MLOAD PUSH32 0x8C379A000000000000000000000000000000000000000000000000000000000 DUP2 MSTORE PUSH1 0x4 ADD PUSH2 0x2CFF SWAP1 PUSH2 0x467C JUMP JUMPDEST PUSH1 0x40 MLOAD DUP1 SWAP2 SUB SWAP1 REVERT JUMPDEST SWAP3 POP SWAP3 SWAP1 POP JUMP JUMPDEST PUSH1 0x0 DUP1 DUP5 PUSH20 0xFFFFFFFFFFFFFFFFFFFFFFFFFFFFFFFFFFFFFFFF AND PUSH4 0xC45A0155 PUSH1 0x40 MLOAD DUP2 PUSH4 0xFFFFFFFF AND PUSH1 0xE0 SHL DUP2 MSTORE PUSH1 0x4 ADD PUSH1 0x20 PUSH1 0x40 MLOAD DUP1 DUP4 SUB DUP2 DUP7 DUP1 EXTCODESIZE ISZERO DUP1 ISZERO PUSH2 0x2D58 JUMPI PUSH1 0x0 DUP1 REVERT JUMPDEST POP GAS STATICCALL ISZERO DUP1 ISZERO PUSH2 0x2D6C JUMPI RETURNDATASIZE PUSH1 0x0 DUP1 RETURNDATACOPY RETURNDATASIZE PUSH1 0x0 REVERT JUMPDEST POP POP POP POP PUSH1 0x40 MLOAD RETURNDATASIZE PUSH1 0x1F NOT PUSH1 0x1F DUP3 ADD AND DUP3 ADD DUP1 PUSH1 0x40 MSTORE POP DUP2 ADD SWAP1 PUSH2 0x2D90 SWAP2 SWAP1 PUSH2 0x39D1 JUMP JUMPDEST SWAP1 POP DUP1 PUSH20 0xFFFFFFFFFFFFFFFFFFFFFFFFFFFFFFFFFFFFFFFF AND PUSH4 0xE6A43905 DUP6 DUP6 PUSH1 0x40 MLOAD DUP4 PUSH4 0xFFFFFFFF AND PUSH1 0xE0 SHL DUP2 MSTORE PUSH1 0x4 ADD PUSH2 0x2DCD SWAP3 SWAP2 SWAP1 PUSH2 0x4403 JUMP JUMPDEST PUSH1 0x20 PUSH1 0x40 MLOAD DUP1 DUP4 SUB DUP2 DUP7 DUP1 EXTCODESIZE ISZERO DUP1 ISZERO PUSH2 0x2DE5 JUMPI PUSH1 0x0 DUP1 REVERT JUMPDEST POP GAS STATICCALL ISZERO DUP1 ISZERO PUSH2 0x2DF9 JUMPI RETURNDATASIZE PUSH1 0x0 DUP1 RETURNDATACOPY RETURNDATASIZE PUSH1 0x0 REVERT JUMPDEST POP POP POP POP PUSH1 0x40 MLOAD RETURNDATASIZE PUSH1 0x1F NOT PUSH1 0x1F DUP3 ADD AND DUP3 ADD DUP1 PUSH1 0x40 MSTORE POP DUP2 ADD SWAP1 PUSH2 0x2E1D SWAP2 SWAP1 PUSH2 0x39D1 JUMP JUMPDEST SWAP2 POP POP SWAP4 SWAP3 POP POP POP JUMP JUMPDEST PUSH1 0x0 DUP2 DUP4 PUSH2 0x2E35 SWAP2 SWAP1 PUSH2 0x4B3F JUMP JUMPDEST SWAP1 POP SWAP3 SWAP2 POP POP JUMP JUMPDEST PUSH1 0x0 DUP2 DUP4 PUSH2 0x2E4B SWAP2 SWAP1 PUSH2 0x4B99 JUMP JUMPDEST SWAP1 POP SWAP3 SWAP2 POP POP JUMP JUMPDEST PUSH1 0x0 CALLER SWAP1 POP SWAP1 JUMP JUMPDEST PUSH1 0x0 PUSH2 0x2F2B DUP3 PUSH1 0x0 DUP2 MLOAD DUP2 LT PUSH2 0x2E9A JUMPI PUSH32 0x4E487B7100000000000000000000000000000000000000000000000000000000 PUSH1 0x0 MSTORE PUSH1 0x32 PUSH1 0x4 MSTORE PUSH1 0x24 PUSH1 0x0 REVERT JUMPDEST PUSH1 0x20 MUL PUSH1 0x20 ADD ADD MLOAD DUP5 PUSH1 0x0 DUP2 MLOAD DUP2 LT PUSH2 0x2EDC JUMPI PUSH32 0x4E487B7100000000000000000000000000000000000000000000000000000000 PUSH1 0x0 MSTORE PUSH1 0x32 PUSH1 0x4 MSTORE PUSH1 0x24 PUSH1 0x0 REVERT JUMPDEST PUSH1 0x20 MUL PUSH1 0x20 ADD ADD MLOAD DUP6 PUSH1 0x1 DUP2 MLOAD DUP2 LT PUSH2 0x2F1E JUMPI PUSH32 0x4E487B7100000000000000000000000000000000000000000000000000000000 PUSH1 0x0 MSTORE PUSH1 0x32 PUSH1 0x4 MSTORE PUSH1 0x24 PUSH1 0x0 REVERT JUMPDEST PUSH1 0x20 MUL PUSH1 0x20 ADD ADD MLOAD PUSH2 0x2D0F JUMP JUMPDEST SWAP1 POP DUP3 PUSH1 0x0 DUP2 MLOAD DUP2 LT PUSH2 0x2F67 JUMPI PUSH32 0x4E487B7100000000000000000000000000000000000000000000000000000000 PUSH1 0x0 MSTORE PUSH1 0x32 PUSH1 0x4 MSTORE PUSH1 0x24 PUSH1 0x0 REVERT JUMPDEST PUSH1 0x20 MUL PUSH1 0x20 ADD ADD MLOAD PUSH20 0xFFFFFFFFFFFFFFFFFFFFFFFFFFFFFFFFFFFFFFFF AND PUSH4 0xA9059CBB DUP3 DUP7 PUSH1 0x0 DUP2 MLOAD DUP2 LT PUSH2 0x2FC5 JUMPI PUSH32 0x4E487B7100000000000000000000000000000000000000000000000000000000 PUSH1 0x0 MSTORE PUSH1 0x32 PUSH1 0x4 MSTORE PUSH1 0x24 PUSH1 0x0 REVERT JUMPDEST PUSH1 0x20 MUL PUSH1 0x20 ADD ADD MLOAD PUSH1 0x40 MLOAD DUP4 PUSH4 0xFFFFFFFF AND PUSH1 0xE0 SHL DUP2 MSTORE PUSH1 0x4 ADD PUSH2 0x2FEA SWAP3 SWAP2 SWAP1 PUSH2 0x4463 JUMP JUMPDEST PUSH1 0x20 PUSH1 0x40 MLOAD DUP1 DUP4 SUB DUP2 PUSH1 0x0 DUP8 DUP1 EXTCODESIZE ISZERO DUP1 ISZERO PUSH2 0x3004 JUMPI PUSH1 0x0 DUP1 REVERT JUMPDEST POP GAS CALL ISZERO DUP1 ISZERO PUSH2 0x3018 JUMPI RETURNDATASIZE PUSH1 0x0 DUP1 RETURNDATACOPY RETURNDATASIZE PUSH1 0x0 REVERT JUMPDEST POP POP POP POP PUSH1 0x40 MLOAD RETURNDATASIZE PUSH1 0x1F NOT PUSH1 0x1F DUP3 ADD AND DUP3 ADD DUP1 PUSH1 0x40 MSTORE POP DUP2 ADD SWAP1 PUSH2 0x303C SWAP2 SWAP1 PUSH2 0x3C28 JUMP JUMPDEST POP PUSH1 0x0 JUMPDEST DUP3 MLOAD DUP2 LT ISZERO PUSH2 0x338E JUMPI PUSH1 0x0 DUP1 DUP6 DUP4 DUP2 MLOAD DUP2 LT PUSH2 0x3085 JUMPI PUSH32 0x4E487B7100000000000000000000000000000000000000000000000000000000 PUSH1 0x0 MSTORE PUSH1 0x32 PUSH1 0x4 MSTORE PUSH1 0x24 PUSH1 0x0 REVERT JUMPDEST PUSH1 0x20 MUL PUSH1 0x20 ADD ADD MLOAD DUP7 PUSH1 0x1 DUP6 PUSH2 0x309B SWAP2 SWAP1 PUSH2 0x4AB8 JUMP JUMPDEST DUP2 MLOAD DUP2 LT PUSH2 0x30D2 JUMPI PUSH32 0x4E487B7100000000000000000000000000000000000000000000000000000000 PUSH1 0x0 MSTORE PUSH1 0x32 PUSH1 0x4 MSTORE PUSH1 0x24 PUSH1 0x0 REVERT JUMPDEST PUSH1 0x20 MUL PUSH1 0x20 ADD ADD MLOAD SWAP2 POP SWAP2 POP PUSH1 0x0 PUSH2 0x30EA DUP4 DUP4 PUSH2 0x2BE1 JUMP JUMPDEST POP SWAP1 POP PUSH1 0x0 DUP9 PUSH1 0x1 DUP7 PUSH2 0x30FD SWAP2 SWAP1 PUSH2 0x4AB8 JUMP JUMPDEST DUP2 MLOAD DUP2 LT PUSH2 0x3134 JUMPI PUSH32 0x4E487B7100000000000000000000000000000000000000000000000000000000 PUSH1 0x0 MSTORE PUSH1 0x32 PUSH1 0x4 MSTORE PUSH1 0x24 PUSH1 0x0 REVERT JUMPDEST PUSH1 0x20 MUL PUSH1 0x20 ADD ADD MLOAD SWAP1 POP PUSH1 0x0 DUP1 DUP4 PUSH20 0xFFFFFFFFFFFFFFFFFFFFFFFFFFFFFFFFFFFFFFFF AND DUP7 PUSH20 0xFFFFFFFFFFFFFFFFFFFFFFFFFFFFFFFFFFFFFFFF AND EQ PUSH2 0x317C JUMPI DUP3 PUSH1 0x0 PUSH2 0x3180 JUMP JUMPDEST PUSH1 0x0 DUP4 JUMPDEST SWAP2 POP SWAP2 POP PUSH1 0x0 PUSH1 0x1 DUP11 MLOAD PUSH2 0x3194 SWAP2 SWAP1 PUSH2 0x4B99 JUMP JUMPDEST DUP9 LT PUSH2 0x31A0 JUMPI ADDRESS PUSH2 0x3244 JUMP JUMPDEST PUSH2 0x3243 DUP11 PUSH1 0x1 DUP11 PUSH2 0x31B1 SWAP2 SWAP1 PUSH2 0x4AB8 JUMP JUMPDEST DUP2 MLOAD DUP2 LT PUSH2 0x31E8 JUMPI PUSH32 0x4E487B7100000000000000000000000000000000000000000000000000000000 PUSH1 0x0 MSTORE PUSH1 0x32 PUSH1 0x4 MSTORE PUSH1 0x24 PUSH1 0x0 REVERT JUMPDEST PUSH1 0x20 MUL PUSH1 0x20 ADD ADD MLOAD DUP8 DUP14 PUSH1 0x2 DUP13 PUSH2 0x31FF SWAP2 SWAP1 PUSH2 0x4AB8 JUMP JUMPDEST DUP2 MLOAD DUP2 LT PUSH2 0x3236 JUMPI PUSH32 0x4E487B7100000000000000000000000000000000000000000000000000000000 PUSH1 0x0 MSTORE PUSH1 0x32 PUSH1 0x4 MSTORE PUSH1 0x24 PUSH1 0x0 REVERT JUMPDEST PUSH1 0x20 MUL PUSH1 0x20 ADD ADD MLOAD PUSH2 0x2D0F JUMP JUMPDEST JUMPDEST SWAP1 POP PUSH2 0x3291 DUP11 DUP10 DUP2 MLOAD DUP2 LT PUSH2 0x3282 JUMPI PUSH32 0x4E487B7100000000000000000000000000000000000000000000000000000000 PUSH1 0x0 MSTORE PUSH1 0x32 PUSH1 0x4 MSTORE PUSH1 0x24 PUSH1 0x0 REVERT JUMPDEST PUSH1 0x20 MUL PUSH1 0x20 ADD ADD MLOAD DUP9 DUP9 PUSH2 0x2D0F JUMP JUMPDEST PUSH20 0xFFFFFFFFFFFFFFFFFFFFFFFFFFFFFFFFFFFFFFFF AND PUSH4 0x22C0D9F DUP5 DUP5 DUP5 PUSH1 0x0 PUSH8 0xFFFFFFFFFFFFFFFF DUP2 GT ISZERO PUSH2 0x32F0 JUMPI PUSH32 0x4E487B7100000000000000000000000000000000000000000000000000000000 PUSH1 0x0 MSTORE PUSH1 0x41 PUSH1 0x4 MSTORE PUSH1 0x24 PUSH1 0x0 REVERT JUMPDEST PUSH1 0x40 MLOAD SWAP1 DUP1 DUP3 MSTORE DUP1 PUSH1 0x1F ADD PUSH1 0x1F NOT AND PUSH1 0x20 ADD DUP3 ADD PUSH1 0x40 MSTORE DUP1 ISZERO PUSH2 0x3322 JUMPI DUP2 PUSH1 0x20 ADD PUSH1 0x1 DUP3 MUL DUP1 CALLDATASIZE DUP4 CALLDATACOPY DUP1 DUP3 ADD SWAP2 POP POP SWAP1 POP JUMPDEST POP PUSH1 0x40 MLOAD DUP6 PUSH4 0xFFFFFFFF AND PUSH1 0xE0 SHL DUP2 MSTORE PUSH1 0x4 ADD PUSH2 0x3342 SWAP5 SWAP4 SWAP3 SWAP2 SWAP1 PUSH2 0x4797 JUMP JUMPDEST PUSH1 0x0 PUSH1 0x40 MLOAD DUP1 DUP4 SUB DUP2 PUSH1 0x0 DUP8 DUP1 EXTCODESIZE ISZERO DUP1 ISZERO PUSH2 0x335C JUMPI PUSH1 0x0 DUP1 REVERT JUMPDEST POP GAS CALL ISZERO DUP1 ISZERO PUSH2 0x3370 JUMPI RETURNDATASIZE PUSH1 0x0 DUP1 RETURNDATACOPY RETURNDATASIZE PUSH1 0x0 REVERT JUMPDEST POP POP POP POP POP POP POP POP POP POP POP DUP1 DUP1 PUSH2 0x3386 SWAP1 PUSH2 0x4CD7 JUMP JUMPDEST SWAP2 POP POP PUSH2 0x3040 JUMP JUMPDEST POP POP POP POP POP JUMP JUMPDEST PUSH1 0x0 DUP1 PUSH1 0x0 SWAP1 SLOAD SWAP1 PUSH2 0x100 EXP SWAP1 DIV PUSH20 0xFFFFFFFFFFFFFFFFFFFFFFFFFFFFFFFFFFFFFFFF AND SWAP1 POP DUP2 PUSH1 0x0 DUP1 PUSH2 0x100 EXP DUP2 SLOAD DUP2 PUSH20 0xFFFFFFFFFFFFFFFFFFFFFFFFFFFFFFFFFFFFFFFF MUL NOT AND SWAP1 DUP4 PUSH20 0xFFFFFFFFFFFFFFFFFFFFFFFFFFFFFFFFFFFFFFFF AND MUL OR SWAP1 SSTORE POP DUP2 PUSH20 0xFFFFFFFFFFFFFFFFFFFFFFFFFFFFFFFFFFFFFFFF AND DUP2 PUSH20 0xFFFFFFFFFFFFFFFFFFFFFFFFFFFFFFFFFFFFFFFF AND PUSH32 0x8BE0079C531659141344CD1FD0A4F28419497F9722A3DAAFE3B4186F6B6457E0 PUSH1 0x40 MLOAD PUSH1 0x40 MLOAD DUP1 SWAP2 SUB SWAP1 LOG3 POP POP JUMP JUMPDEST PUSH1 0x60 PUSH2 0x347A DUP3 PUSH20 0xFFFFFFFFFFFFFFFFFFFFFFFFFFFFFFFFFFFFFFFF AND PUSH2 0x3536 JUMP JUMPDEST PUSH2 0x3495 JUMPI PUSH1 0x40 MLOAD DUP1 PUSH1 0x20 ADD PUSH1 0x40 MSTORE DUP1 PUSH1 0x0 DUP2 MSTORE POP SWAP1 POP PUSH2 0x3531 JUMP JUMPDEST DUP2 PUSH20 0xFFFFFFFFFFFFFFFFFFFFFFFFFFFFFFFFFFFFFFFF AND PUSH4 0x95D89B41 PUSH1 0x40 MLOAD DUP2 PUSH4 0xFFFFFFFF AND PUSH1 0xE0 SHL DUP2 MSTORE PUSH1 0x4 ADD PUSH1 0x0 PUSH1 0x40 MLOAD DUP1 DUP4 SUB DUP2 DUP7 DUP1 EXTCODESIZE ISZERO DUP1 ISZERO PUSH2 0x34DB JUMPI PUSH1 0x0 DUP1 REVERT JUMPDEST POP GAS STATICCALL SWAP3 POP POP POP DUP1 ISZERO PUSH2 0x3511 JUMPI POP PUSH1 0x40 MLOAD RETURNDATASIZE PUSH1 0x0 DUP3 RETURNDATACOPY RETURNDATASIZE PUSH1 0x1F NOT PUSH1 0x1F DUP3 ADD AND DUP3 ADD DUP1 PUSH1 0x40 MSTORE POP DUP2 ADD SWAP1 PUSH2 0x350E SWAP2 SWAP1 PUSH2 0x3C51 JUMP JUMPDEST PUSH1 0x1 JUMPDEST PUSH2 0x352C JUMPI PUSH1 0x40 MLOAD DUP1 PUSH1 0x20 ADD PUSH1 0x40 MSTORE DUP1 PUSH1 0x0 DUP2 MSTORE POP SWAP1 POP PUSH2 0x3531 JUMP JUMPDEST DUP1 SWAP2 POP POP JUMPDEST SWAP2 SWAP1 POP JUMP JUMPDEST PUSH1 0x0 DUP1 DUP3 PUSH20 0xFFFFFFFFFFFFFFFFFFFFFFFFFFFFFFFFFFFFFFFF AND EXTCODESIZE GT SWAP1 POP SWAP2 SWAP1 POP JUMP JUMPDEST PUSH1 0x40 MLOAD DUP1 PUSH1 0xE0 ADD PUSH1 0x40 MSTORE DUP1 PUSH1 0x0 PUSH20 0xFFFFFFFFFFFFFFFFFFFFFFFFFFFFFFFFFFFFFFFF AND DUP2 MSTORE PUSH1 0x20 ADD PUSH1 0x0 PUSH20 0xFFFFFFFFFFFFFFFFFFFFFFFFFFFFFFFFFFFFFFFF AND DUP2 MSTORE PUSH1 0x20 ADD PUSH1 0x0 PUSH20 0xFFFFFFFFFFFFFFFFFFFFFFFFFFFFFFFFFFFFFFFF AND DUP2 MSTORE PUSH1 0x20 ADD PUSH1 0x60 DUP2 MSTORE PUSH1 0x20 ADD PUSH1 0x60 DUP2 MSTORE PUSH1 0x20 ADD PUSH1 0x0 PUSH14 0xFFFFFFFFFFFFFFFFFFFFFFFFFFFF AND DUP2 MSTORE PUSH1 0x20 ADD PUSH1 0x0 PUSH14 0xFFFFFFFFFFFFFFFFFFFFFFFFFFFF AND DUP2 MSTORE POP SWAP1 JUMP JUMPDEST PUSH1 0x0 PUSH2 0x360B PUSH2 0x3606 DUP5 PUSH2 0x4883 JUMP JUMPDEST PUSH2 0x485E JUMP JUMPDEST SWAP1 POP DUP1 DUP4 DUP3 MSTORE PUSH1 0x20 DUP3 ADD SWAP1 POP DUP3 DUP6 PUSH1 0x20 DUP7 MUL DUP3 ADD GT ISZERO PUSH2 0x362A JUMPI PUSH1 0x0 DUP1 REVERT JUMPDEST PUSH1 0x0 JUMPDEST DUP6 DUP2 LT ISZERO PUSH2 0x365A JUMPI DUP2 PUSH2 0x3640 DUP9 DUP3 PUSH2 0x370E JUMP JUMPDEST DUP5 MSTORE PUSH1 0x20 DUP5 ADD SWAP4 POP PUSH1 0x20 DUP4 ADD SWAP3 POP POP PUSH1 0x1 DUP2 ADD SWAP1 POP PUSH2 0x362D JUMP JUMPDEST POP POP POP SWAP4 SWAP3 POP POP POP JUMP JUMPDEST PUSH1 0x0 PUSH2 0x3677 PUSH2 0x3672 DUP5 PUSH2 0x48AF JUMP JUMPDEST PUSH2 0x485E JUMP JUMPDEST SWAP1 POP DUP1 DUP4 DUP3 MSTORE PUSH1 0x20 DUP3 ADD SWAP1 POP DUP3 DUP6 PUSH1 0x20 DUP7 MUL DUP3 ADD GT ISZERO PUSH2 0x3696 JUMPI PUSH1 0x0 DUP1 REVERT JUMPDEST PUSH1 0x0 JUMPDEST DUP6 DUP2 LT ISZERO PUSH2 0x36C6 JUMPI DUP2 PUSH2 0x36AC DUP9 DUP3 PUSH2 0x397E JUMP JUMPDEST DUP5 MSTORE PUSH1 0x20 DUP5 ADD SWAP4 POP PUSH1 0x20 DUP4 ADD SWAP3 POP POP PUSH1 0x1 DUP2 ADD SWAP1 POP PUSH2 0x3699 JUMP JUMPDEST POP POP POP SWAP4 SWAP3 POP POP POP JUMP JUMPDEST PUSH1 0x0 PUSH2 0x36E3 PUSH2 0x36DE DUP5 PUSH2 0x48DB JUMP JUMPDEST PUSH2 0x485E JUMP JUMPDEST SWAP1 POP DUP3 DUP2 MSTORE PUSH1 0x20 DUP2 ADD DUP5 DUP5 DUP5 ADD GT ISZERO PUSH2 0x36FB JUMPI PUSH1 0x0 DUP1 REVERT JUMPDEST PUSH2 0x3706 DUP5 DUP3 DUP6 PUSH2 0x4C73 JUMP JUMPDEST POP SWAP4 SWAP3 POP POP POP JUMP JUMPDEST PUSH1 0x0 DUP2 CALLDATALOAD SWAP1 POP PUSH2 0x371D DUP2 PUSH2 0x501F JUMP JUMPDEST SWAP3 SWAP2 POP POP JUMP JUMPDEST PUSH1 0x0 DUP2 MLOAD SWAP1 POP PUSH2 0x3732 DUP2 PUSH2 0x501F JUMP JUMPDEST SWAP3 SWAP2 POP POP JUMP JUMPDEST PUSH1 0x0 DUP1 DUP4 PUSH1 0x1F DUP5 ADD SLT PUSH2 0x374A JUMPI PUSH1 0x0 DUP1 REVERT JUMPDEST DUP3 CALLDATALOAD SWAP1 POP PUSH8 0xFFFFFFFFFFFFFFFF DUP2 GT ISZERO PUSH2 0x3763 JUMPI PUSH1 0x0 DUP1 REVERT JUMPDEST PUSH1 0x20 DUP4 ADD SWAP2 POP DUP4 PUSH1 0x20 DUP3 MUL DUP4 ADD GT ISZERO PUSH2 0x377B JUMPI PUSH1 0x0 DUP1 REVERT JUMPDEST SWAP3 POP SWAP3 SWAP1 POP JUMP JUMPDEST PUSH1 0x0 DUP3 PUSH1 0x1F DUP4 ADD SLT PUSH2 0x3793 JUMPI PUSH1 0x0 DUP1 REVERT JUMPDEST DUP2 CALLDATALOAD PUSH2 0x37A3 DUP5 DUP3 PUSH1 0x20 DUP7 ADD PUSH2 0x35F8 JUMP JUMPDEST SWAP2 POP POP SWAP3 SWAP2 POP POP JUMP JUMPDEST PUSH1 0x0 DUP1 DUP4 PUSH1 0x1F DUP5 ADD SLT PUSH2 0x37BE JUMPI PUSH1 0x0 DUP1 REVERT JUMPDEST DUP3 CALLDATALOAD SWAP1 POP PUSH8 0xFFFFFFFFFFFFFFFF DUP2 GT ISZERO PUSH2 0x37D7 JUMPI PUSH1 0x0 DUP1 REVERT JUMPDEST PUSH1 0x20 DUP4 ADD SWAP2 POP DUP4 PUSH1 0x20 DUP3 MUL DUP4 ADD GT ISZERO PUSH2 0x37EF JUMPI PUSH1 0x0 DUP1 REVERT JUMPDEST SWAP3 POP SWAP3 SWAP1 POP JUMP JUMPDEST PUSH1 0x0 DUP3 PUSH1 0x1F DUP4 ADD SLT PUSH2 0x3807 JUMPI PUSH1 0x0 DUP1 REVERT JUMPDEST DUP2 MLOAD PUSH2 0x3817 DUP5 DUP3 PUSH1 0x20 DUP7 ADD PUSH2 0x3664 JUMP JUMPDEST SWAP2 POP POP SWAP3 SWAP2 POP POP JUMP JUMPDEST PUSH1 0x0 DUP2 MLOAD SWAP1 POP PUSH2 0x382F DUP2 PUSH2 0x5036 JUMP JUMPDEST SWAP3 SWAP2 POP POP JUMP JUMPDEST PUSH1 0x0 DUP1 DUP4 PUSH1 0x1F DUP5 ADD SLT PUSH2 0x3847 JUMPI PUSH1 0x0 DUP1 REVERT JUMPDEST DUP3 CALLDATALOAD SWAP1 POP PUSH8 0xFFFFFFFFFFFFFFFF DUP2 GT ISZERO PUSH2 0x3860 JUMPI PUSH1 0x0 DUP1 REVERT JUMPDEST PUSH1 0x20 DUP4 ADD SWAP2 POP DUP4 PUSH1 0x1 DUP3 MUL DUP4 ADD GT ISZERO PUSH2 0x3878 JUMPI PUSH1 0x0 DUP1 REVERT JUMPDEST SWAP3 POP SWAP3 SWAP1 POP JUMP JUMPDEST PUSH1 0x0 DUP3 PUSH1 0x1F DUP4 ADD SLT PUSH2 0x3890 JUMPI PUSH1 0x0 DUP1 REVERT JUMPDEST DUP2 MLOAD PUSH2 0x38A0 DUP5 DUP3 PUSH1 0x20 DUP7 ADD PUSH2 0x36D0 JUMP JUMPDEST SWAP2 POP POP SWAP3 SWAP2 POP POP JUMP JUMPDEST PUSH1 0x0 PUSH1 0x60 DUP3 DUP5 SUB SLT ISZERO PUSH2 0x38BB JUMPI PUSH1 0x0 DUP1 REVERT JUMPDEST DUP2 SWAP1 POP SWAP3 SWAP2 POP POP JUMP JUMPDEST PUSH1 0x0 PUSH1 0x60 DUP3 DUP5 SUB SLT ISZERO PUSH2 0x38D6 JUMPI PUSH1 0x0 DUP1 REVERT JUMPDEST PUSH2 0x38E0 PUSH1 0x60 PUSH2 0x485E JUMP JUMPDEST SWAP1 POP PUSH1 0x0 PUSH2 0x38F0 DUP5 DUP3 DUP6 ADD PUSH2 0x3969 JUMP JUMPDEST PUSH1 0x0 DUP4 ADD MSTORE POP PUSH1 0x20 DUP3 ADD CALLDATALOAD PUSH8 0xFFFFFFFFFFFFFFFF DUP2 GT ISZERO PUSH2 0x3910 JUMPI PUSH1 0x0 DUP1 REVERT JUMPDEST PUSH2 0x391C DUP5 DUP3 DUP6 ADD PUSH2 0x3782 JUMP JUMPDEST PUSH1 0x20 DUP4 ADD MSTORE POP PUSH1 0x40 DUP3 ADD CALLDATALOAD PUSH8 0xFFFFFFFFFFFFFFFF DUP2 GT ISZERO PUSH2 0x393C JUMPI PUSH1 0x0 DUP1 REVERT JUMPDEST PUSH2 0x3948 DUP5 DUP3 DUP6 ADD PUSH2 0x3782 JUMP JUMPDEST PUSH1 0x40 DUP4 ADD MSTORE POP SWAP3 SWAP2 POP POP JUMP JUMPDEST PUSH1 0x0 DUP2 MLOAD SWAP1 POP PUSH2 0x3963 DUP2 PUSH2 0x504D JUMP JUMPDEST SWAP3 SWAP2 POP POP JUMP JUMPDEST PUSH1 0x0 DUP2 CALLDATALOAD SWAP1 POP PUSH2 0x3978 DUP2 PUSH2 0x5064 JUMP JUMPDEST SWAP3 SWAP2 POP POP JUMP JUMPDEST PUSH1 0x0 DUP2 MLOAD SWAP1 POP PUSH2 0x398D DUP2 PUSH2 0x5064 JUMP JUMPDEST SWAP3 SWAP2 POP POP JUMP JUMPDEST PUSH1 0x0 DUP2 MLOAD SWAP1 POP PUSH2 0x39A2 DUP2 PUSH2 0x507B JUMP JUMPDEST SWAP3 SWAP2 POP POP JUMP JUMPDEST PUSH1 0x0 PUSH1 0x20 DUP3 DUP5 SUB SLT ISZERO PUSH2 0x39BA JUMPI PUSH1 0x0 DUP1 REVERT JUMPDEST PUSH1 0x0 PUSH2 0x39C8 DUP5 DUP3 DUP6 ADD PUSH2 0x370E JUMP JUMPDEST SWAP2 POP POP SWAP3 SWAP2 POP POP JUMP JUMPDEST PUSH1 0x0 PUSH1 0x20 DUP3 DUP5 SUB SLT ISZERO PUSH2 0x39E3 JUMPI PUSH1 0x0 DUP1 REVERT JUMPDEST PUSH1 0x0 PUSH2 0x39F1 DUP5 DUP3 DUP6 ADD PUSH2 0x3723 JUMP JUMPDEST SWAP2 POP POP SWAP3 SWAP2 POP POP JUMP JUMPDEST PUSH1 0x0 DUP1 PUSH1 0x40 DUP4 DUP6 SUB SLT ISZERO PUSH2 0x3A0D JUMPI PUSH1 0x0 DUP1 REVERT JUMPDEST PUSH1 0x0 PUSH2 0x3A1B DUP6 DUP3 DUP7 ADD PUSH2 0x370E JUMP JUMPDEST SWAP3 POP POP PUSH1 0x20 PUSH2 0x3A2C DUP6 DUP3 DUP7 ADD PUSH2 0x3969 JUMP JUMPDEST SWAP2 POP POP SWAP3 POP SWAP3 SWAP1 POP JUMP JUMPDEST PUSH1 0x0 DUP1 PUSH1 0x0 PUSH1 0x60 DUP5 DUP7 SUB SLT ISZERO PUSH2 0x3A4B JUMPI PUSH1 0x0 DUP1 REVERT JUMPDEST PUSH1 0x0 PUSH2 0x3A59 DUP7 DUP3 DUP8 ADD PUSH2 0x370E JUMP JUMPDEST SWAP4 POP POP PUSH1 0x20 PUSH2 0x3A6A DUP7 DUP3 DUP8 ADD PUSH2 0x3969 JUMP JUMPDEST SWAP3 POP POP PUSH1 0x40 PUSH2 0x3A7B DUP7 DUP3 DUP8 ADD PUSH2 0x3969 JUMP JUMPDEST SWAP2 POP POP SWAP3 POP SWAP3 POP SWAP3 JUMP JUMPDEST PUSH1 0x0 DUP1 PUSH1 0x0 DUP1 PUSH1 0x0 PUSH1 0x80 DUP7 DUP9 SUB SLT ISZERO PUSH2 0x3A9D JUMPI PUSH1 0x0 DUP1 REVERT JUMPDEST PUSH1 0x0 PUSH2 0x3AAB DUP9 DUP3 DUP10 ADD PUSH2 0x370E JUMP JUMPDEST SWAP6 POP POP PUSH1 0x20 PUSH2 0x3ABC DUP9 DUP3 DUP10 ADD PUSH2 0x3969 JUMP JUMPDEST SWAP5 POP POP PUSH1 0x40 PUSH2 0x3ACD DUP9 DUP3 DUP10 ADD PUSH2 0x3969 JUMP JUMPDEST SWAP4 POP POP PUSH1 0x60 DUP7 ADD CALLDATALOAD PUSH8 0xFFFFFFFFFFFFFFFF DUP2 GT ISZERO PUSH2 0x3AEA JUMPI PUSH1 0x0 DUP1 REVERT JUMPDEST PUSH2 0x3AF6 DUP9 DUP3 DUP10 ADD PUSH2 0x3835 JUMP JUMPDEST SWAP3 POP SWAP3 POP POP SWAP3 SWAP6 POP SWAP3 SWAP6 SWAP1 SWAP4 POP JUMP JUMPDEST PUSH1 0x0 DUP1 PUSH1 0x20 DUP4 DUP6 SUB SLT ISZERO PUSH2 0x3B18 JUMPI PUSH1 0x0 DUP1 REVERT JUMPDEST PUSH1 0x0 DUP4 ADD CALLDATALOAD PUSH8 0xFFFFFFFFFFFFFFFF DUP2 GT ISZERO PUSH2 0x3B32 JUMPI PUSH1 0x0 DUP1 REVERT JUMPDEST PUSH2 0x3B3E DUP6 DUP3 DUP7 ADD PUSH2 0x3738 JUMP JUMPDEST SWAP3 POP SWAP3 POP POP SWAP3 POP SWAP3 SWAP1 POP JUMP JUMPDEST PUSH1 0x0 DUP1 PUSH1 0x0 PUSH1 0x40 DUP5 DUP7 SUB SLT ISZERO PUSH2 0x3B5F JUMPI PUSH1 0x0 DUP1 REVERT JUMPDEST PUSH1 0x0 DUP5 ADD CALLDATALOAD PUSH8 0xFFFFFFFFFFFFFFFF DUP2 GT ISZERO PUSH2 0x3B79 JUMPI PUSH1 0x0 DUP1 REVERT JUMPDEST PUSH2 0x3B85 DUP7 DUP3 DUP8 ADD PUSH2 0x3738 JUMP JUMPDEST SWAP4 POP SWAP4 POP POP PUSH1 0x20 PUSH2 0x3B98 DUP7 DUP3 DUP8 ADD PUSH2 0x370E JUMP JUMPDEST SWAP2 POP POP SWAP3 POP SWAP3 POP SWAP3 JUMP JUMPDEST PUSH1 0x0 DUP1 PUSH1 0x20 DUP4 DUP6 SUB SLT ISZERO PUSH2 0x3BB5 JUMPI PUSH1 0x0 DUP1 REVERT JUMPDEST PUSH1 0x0 DUP4 ADD CALLDATALOAD PUSH8 0xFFFFFFFFFFFFFFFF DUP2 GT ISZERO PUSH2 0x3BCF JUMPI PUSH1 0x0 DUP1 REVERT JUMPDEST PUSH2 0x3BDB DUP6 DUP3 DUP7 ADD PUSH2 0x37AC JUMP JUMPDEST SWAP3 POP SWAP3 POP POP SWAP3 POP SWAP3 SWAP1 POP JUMP JUMPDEST PUSH1 0x0 PUSH1 0x20 DUP3 DUP5 SUB SLT ISZERO PUSH2 0x3BF9 JUMPI PUSH1 0x0 DUP1 REVERT JUMPDEST PUSH1 0x0 DUP3 ADD MLOAD PUSH8 0xFFFFFFFFFFFFFFFF DUP2 GT ISZERO PUSH2 0x3C13 JUMPI PUSH1 0x0 DUP1 REVERT JUMPDEST PUSH2 0x3C1F DUP5 DUP3 DUP6 ADD PUSH2 0x37F6 JUMP JUMPDEST SWAP2 POP POP SWAP3 SWAP2 POP POP JUMP JUMPDEST PUSH1 0x0 PUSH1 0x20 DUP3 DUP5 SUB SLT ISZERO PUSH2 0x3C3A JUMPI PUSH1 0x0 DUP1 REVERT JUMPDEST PUSH1 0x0 PUSH2 0x3C48 DUP5 DUP3 DUP6 ADD PUSH2 0x3820 JUMP JUMPDEST SWAP2 POP POP SWAP3 SWAP2 POP POP JUMP JUMPDEST PUSH1 0x0 PUSH1 0x20 DUP3 DUP5 SUB SLT ISZERO PUSH2 0x3C63 JUMPI PUSH1 0x0 DUP1 REVERT JUMPDEST PUSH1 0x0 DUP3 ADD MLOAD PUSH8 0xFFFFFFFFFFFFFFFF DUP2 GT ISZERO PUSH2 0x3C7D JUMPI PUSH1 0x0 DUP1 REVERT JUMPDEST PUSH2 0x3C89 DUP5 DUP3 DUP6 ADD PUSH2 0x387F JUMP JUMPDEST SWAP2 POP POP SWAP3 SWAP2 POP POP JUMP JUMPDEST PUSH1 0x0 PUSH1 0x20 DUP3 DUP5 SUB SLT ISZERO PUSH2 0x3CA4 JUMPI PUSH1 0x0 DUP1 REVERT JUMPDEST PUSH1 0x0 DUP3 ADD CALLDATALOAD PUSH8 0xFFFFFFFFFFFFFFFF DUP2 GT ISZERO PUSH2 0x3CBE JUMPI PUSH1 0x0 DUP1 REVERT JUMPDEST PUSH2 0x3CCA DUP5 DUP3 DUP6 ADD PUSH2 0x38A9 JUMP JUMPDEST SWAP2 POP POP SWAP3 SWAP2 POP POP JUMP JUMPDEST PUSH1 0x0 PUSH1 0x20 DUP3 DUP5 SUB SLT ISZERO PUSH2 0x3CE5 JUMPI PUSH1 0x0 DUP1 REVERT JUMPDEST PUSH1 0x0 DUP3 ADD CALLDATALOAD PUSH8 0xFFFFFFFFFFFFFFFF DUP2 GT ISZERO PUSH2 0x3CFF JUMPI PUSH1 0x0 DUP1 REVERT JUMPDEST PUSH2 0x3D0B DUP5 DUP3 DUP6 ADD PUSH2 0x38C4 JUMP JUMPDEST SWAP2 POP POP SWAP3 SWAP2 POP POP JUMP JUMPDEST PUSH1 0x0 DUP1 PUSH1 0x0 PUSH1 0x60 DUP5 DUP7 SUB SLT ISZERO PUSH2 0x3D29 JUMPI PUSH1 0x0 DUP1 REVERT JUMPDEST PUSH1 0x0 PUSH2 0x3D37 DUP7 DUP3 DUP8 ADD PUSH2 0x3954 JUMP JUMPDEST SWAP4 POP POP PUSH1 0x20 PUSH2 0x3D48 DUP7 DUP3 DUP8 ADD PUSH2 0x3954 JUMP JUMPDEST SWAP3 POP POP PUSH1 0x40 PUSH2 0x3D59 DUP7 DUP3 DUP8 ADD PUSH2 0x3993 JUMP JUMPDEST SWAP2 POP POP SWAP3 POP SWAP3 POP SWAP3 JUMP JUMPDEST PUSH1 0x0 PUSH1 0x20 DUP3 DUP5 SUB SLT ISZERO PUSH2 0x3D75 JUMPI PUSH1 0x0 DUP1 REVERT JUMPDEST PUSH1 0x0 PUSH2 0x3D83 DUP5 DUP3 DUP6 ADD PUSH2 0x397E JUMP JUMPDEST SWAP2 POP POP SWAP3 SWAP2 POP POP JUMP JUMPDEST PUSH1 0x0 PUSH2 0x3D98 DUP4 DUP4 PUSH2 0x3DD0 JUMP JUMPDEST PUSH1 0x20 DUP4 ADD SWAP1 POP SWAP3 SWAP2 POP POP JUMP JUMPDEST PUSH1 0x0 PUSH2 0x3DB0 DUP4 DUP4 PUSH2 0x41E9 JUMP JUMPDEST SWAP1 POP SWAP3 SWAP2 POP POP JUMP JUMPDEST PUSH1 0x0 PUSH2 0x3DC4 DUP4 DUP4 PUSH2 0x43B1 JUMP JUMPDEST PUSH1 0x20 DUP4 ADD SWAP1 POP SWAP3 SWAP2 POP POP JUMP JUMPDEST PUSH2 0x3DD9 DUP2 PUSH2 0x4BCD JUMP JUMPDEST DUP3 MSTORE POP POP JUMP JUMPDEST PUSH2 0x3DE8 DUP2 PUSH2 0x4BCD JUMP JUMPDEST DUP3 MSTORE POP POP JUMP JUMPDEST PUSH1 0x0 PUSH2 0x3DFA DUP4 DUP6 PUSH2 0x49B1 JUMP JUMPDEST SWAP4 POP PUSH2 0x3E05 DUP3 PUSH2 0x490C JUMP JUMPDEST DUP1 PUSH1 0x0 JUMPDEST DUP6 DUP2 LT ISZERO PUSH2 0x3E3E JUMPI PUSH2 0x3E1B DUP3 DUP5 PUSH2 0x4A33 JUMP JUMPDEST PUSH2 0x3E25 DUP9 DUP3 PUSH2 0x3D8C JUMP JUMPDEST SWAP8 POP PUSH2 0x3E30 DUP4 PUSH2 0x497D JUMP JUMPDEST SWAP3 POP POP PUSH1 0x1 DUP2 ADD SWAP1 POP PUSH2 0x3E09 JUMP JUMPDEST POP DUP6 SWAP3 POP POP POP SWAP4 SWAP3 POP POP POP JUMP JUMPDEST PUSH1 0x0 PUSH2 0x3E56 DUP3 PUSH2 0x4946 JUMP JUMPDEST PUSH2 0x3E60 DUP2 DUP6 PUSH2 0x49C2 JUMP JUMPDEST SWAP4 POP PUSH2 0x3E6B DUP4 PUSH2 0x4916 JUMP JUMPDEST DUP1 PUSH1 0x0 JUMPDEST DUP4 DUP2 LT ISZERO PUSH2 0x3E9C JUMPI DUP2 MLOAD PUSH2 0x3E83 DUP9 DUP3 PUSH2 0x3D8C JUMP JUMPDEST SWAP8 POP PUSH2 0x3E8E DUP4 PUSH2 0x498A JUMP JUMPDEST SWAP3 POP POP PUSH1 0x1 DUP2 ADD SWAP1 POP PUSH2 0x3E6F JUMP JUMPDEST POP DUP6 SWAP4 POP POP POP POP SWAP3 SWAP2 POP POP JUMP JUMPDEST PUSH1 0x0 PUSH2 0x3EB4 DUP3 PUSH2 0x4951 JUMP JUMPDEST PUSH2 0x3EBE DUP2 DUP6 PUSH2 0x49D3 JUMP JUMPDEST SWAP4 POP DUP4 PUSH1 0x20 DUP3 MUL DUP6 ADD PUSH2 0x3ED0 DUP6 PUSH2 0x4926 JUMP JUMPDEST DUP1 PUSH1 0x0 JUMPDEST DUP6 DUP2 LT ISZERO PUSH2 0x3F0C JUMPI DUP5 DUP5 SUB DUP10 MSTORE DUP2 MLOAD PUSH2 0x3EED DUP6 DUP3 PUSH2 0x3DA4 JUMP JUMPDEST SWAP5 POP PUSH2 0x3EF8 DUP4 PUSH2 0x4997 JUMP JUMPDEST SWAP3 POP PUSH1 0x20 DUP11 ADD SWAP10 POP POP PUSH1 0x1 DUP2 ADD SWAP1 POP PUSH2 0x3ED4 JUMP JUMPDEST POP DUP3 SWAP8 POP DUP8 SWAP6 POP POP POP POP POP POP SWAP3 SWAP2 POP POP JUMP JUMPDEST PUSH1 0x0 PUSH2 0x3F29 DUP3 PUSH2 0x495C JUMP JUMPDEST PUSH2 0x3F33 DUP2 DUP6 PUSH2 0x49E4 JUMP JUMPDEST SWAP4 POP PUSH2 0x3F3E DUP4 PUSH2 0x4936 JUMP JUMPDEST DUP1 PUSH1 0x0 JUMPDEST DUP4 DUP2 LT ISZERO PUSH2 0x3F6F JUMPI DUP2 MLOAD PUSH2 0x3F56 DUP9 DUP3 PUSH2 0x3DB8 JUMP JUMPDEST SWAP8 POP PUSH2 0x3F61 DUP4 PUSH2 0x49A4 JUMP JUMPDEST SWAP3 POP POP PUSH1 0x1 DUP2 ADD SWAP1 POP PUSH2 0x3F42 JUMP JUMPDEST POP DUP6 SWAP4 POP POP POP POP SWAP3 SWAP2 POP POP JUMP JUMPDEST PUSH1 0x0 PUSH2 0x3F88 DUP4 DUP6 PUSH2 0x4A06 JUMP JUMPDEST SWAP4 POP PUSH2 0x3F95 DUP4 DUP6 DUP5 PUSH2 0x4C64 JUMP JUMPDEST DUP3 DUP5 ADD SWAP1 POP SWAP4 SWAP3 POP POP POP JUMP JUMPDEST PUSH1 0x0 PUSH2 0x3FAC DUP3 PUSH2 0x4967 JUMP JUMPDEST PUSH2 0x3FB6 DUP2 DUP6 PUSH2 0x49F5 JUMP JUMPDEST SWAP4 POP PUSH2 0x3FC6 DUP2 DUP6 PUSH1 0x20 DUP7 ADD PUSH2 0x4C73 JUMP JUMPDEST PUSH2 0x3FCF DUP2 PUSH2 0x4DAD JUMP JUMPDEST DUP5 ADD SWAP2 POP POP SWAP3 SWAP2 POP POP JUMP JUMPDEST PUSH2 0x3FE3 DUP2 PUSH2 0x4C3F JUMP JUMPDEST DUP3 MSTORE POP POP JUMP JUMPDEST PUSH1 0x0 PUSH2 0x3FF4 DUP3 PUSH2 0x4972 JUMP JUMPDEST PUSH2 0x3FFE DUP2 DUP6 PUSH2 0x4A11 JUMP JUMPDEST SWAP4 POP PUSH2 0x400E DUP2 DUP6 PUSH1 0x20 DUP7 ADD PUSH2 0x4C73 JUMP JUMPDEST PUSH2 0x4017 DUP2 PUSH2 0x4DAD JUMP JUMPDEST DUP5 ADD SWAP2 POP POP SWAP3 SWAP2 POP POP JUMP JUMPDEST PUSH1 0x0 PUSH2 0x402F PUSH1 0x26 DUP4 PUSH2 0x4A22 JUMP JUMPDEST SWAP2 POP PUSH2 0x403A DUP3 PUSH2 0x4DBE JUMP JUMPDEST PUSH1 0x40 DUP3 ADD SWAP1 POP SWAP2 SWAP1 POP JUMP JUMPDEST PUSH1 0x0 PUSH2 0x4052 PUSH1 0xB DUP4 PUSH2 0x4A22 JUMP JUMPDEST SWAP2 POP PUSH2 0x405D DUP3 PUSH2 0x4E0D JUMP JUMPDEST PUSH1 0x20 DUP3 ADD SWAP1 POP SWAP2 SWAP1 POP JUMP JUMPDEST PUSH1 0x0 PUSH2 0x4075 PUSH1 0xA DUP4 PUSH2 0x4A22 JUMP JUMPDEST SWAP2 POP PUSH2 0x4080 DUP3 PUSH2 0x4E36 JUMP JUMPDEST PUSH1 0x20 DUP3 ADD SWAP1 POP SWAP2 SWAP1 POP JUMP JUMPDEST PUSH1 0x0 PUSH2 0x4098 PUSH1 0x11 DUP4 PUSH2 0x4A22 JUMP JUMPDEST SWAP2 POP PUSH2 0x40A3 DUP3 PUSH2 0x4E5F JUMP JUMPDEST PUSH1 0x20 DUP3 ADD SWAP1 POP SWAP2 SWAP1 POP JUMP JUMPDEST PUSH1 0x0 PUSH2 0x40BB PUSH1 0x25 DUP4 PUSH2 0x4A22 JUMP JUMPDEST SWAP2 POP PUSH2 0x40C6 DUP3 PUSH2 0x4E88 JUMP JUMPDEST PUSH1 0x40 DUP3 ADD SWAP1 POP SWAP2 SWAP1 POP JUMP JUMPDEST PUSH1 0x0 PUSH2 0x40DE PUSH1 0xC DUP4 PUSH2 0x4A22 JUMP JUMPDEST SWAP2 POP PUSH2 0x40E9 DUP3 PUSH2 0x4ED7 JUMP JUMPDEST PUSH1 0x20 DUP3 ADD SWAP1 POP SWAP2 SWAP1 POP JUMP JUMPDEST PUSH1 0x0 PUSH2 0x4101 PUSH1 0x20 DUP4 PUSH2 0x4A22 JUMP JUMPDEST SWAP2 POP PUSH2 0x410C DUP3 PUSH2 0x4F00 JUMP JUMPDEST PUSH1 0x20 DUP3 ADD SWAP1 POP SWAP2 SWAP1 POP JUMP JUMPDEST PUSH1 0x0 PUSH2 0x4124 PUSH1 0xB DUP4 PUSH2 0x4A22 JUMP JUMPDEST SWAP2 POP PUSH2 0x412F DUP3 PUSH2 0x4F29 JUMP JUMPDEST PUSH1 0x20 DUP3 ADD SWAP1 POP SWAP2 SWAP1 POP JUMP JUMPDEST PUSH1 0x0 PUSH2 0x4147 PUSH1 0xB DUP4 PUSH2 0x4A22 JUMP JUMPDEST SWAP2 POP PUSH2 0x4152 DUP3 PUSH2 0x4F52 JUMP JUMPDEST PUSH1 0x20 DUP3 ADD SWAP1 POP SWAP2 SWAP1 POP JUMP JUMPDEST PUSH1 0x0 PUSH2 0x416A PUSH1 0x14 DUP4 PUSH2 0x4A22 JUMP JUMPDEST SWAP2 POP PUSH2 0x4175 DUP3 PUSH2 0x4F7B JUMP JUMPDEST PUSH1 0x20 DUP3 ADD SWAP1 POP SWAP2 SWAP1 POP JUMP JUMPDEST PUSH1 0x0 PUSH2 0x418D PUSH1 0xC DUP4 PUSH2 0x4A22 JUMP JUMPDEST SWAP2 POP PUSH2 0x4198 DUP3 PUSH2 0x4FA4 JUMP JUMPDEST PUSH1 0x20 DUP3 ADD SWAP1 POP SWAP2 SWAP1 POP JUMP JUMPDEST PUSH1 0x0 PUSH2 0x41B0 PUSH1 0x1E DUP4 PUSH2 0x4A22 JUMP JUMPDEST SWAP2 POP PUSH2 0x41BB DUP3 PUSH2 0x4FCD JUMP JUMPDEST PUSH1 0x20 DUP3 ADD SWAP1 POP SWAP2 SWAP1 POP JUMP JUMPDEST PUSH1 0x0 PUSH2 0x41D3 PUSH1 0x20 DUP4 PUSH2 0x4A22 JUMP JUMPDEST SWAP2 POP PUSH2 0x41DE DUP3 PUSH2 0x4FF6 JUMP JUMPDEST PUSH1 0x20 DUP3 ADD SWAP1 POP SWAP2 SWAP1 POP JUMP JUMPDEST PUSH1 0x0 PUSH1 0xE0 DUP4 ADD PUSH1 0x0 DUP4 ADD MLOAD PUSH2 0x4201 PUSH1 0x0 DUP7 ADD DUP3 PUSH2 0x3DD0 JUMP JUMPDEST POP PUSH1 0x20 DUP4 ADD MLOAD PUSH2 0x4214 PUSH1 0x20 DUP7 ADD DUP3 PUSH2 0x3DD0 JUMP JUMPDEST POP PUSH1 0x40 DUP4 ADD MLOAD PUSH2 0x4227 PUSH1 0x40 DUP7 ADD DUP3 PUSH2 0x3DD0 JUMP JUMPDEST POP PUSH1 0x60 DUP4 ADD MLOAD DUP5 DUP3 SUB PUSH1 0x60 DUP7 ADD MSTORE PUSH2 0x423F DUP3 DUP3 PUSH2 0x3FE9 JUMP JUMPDEST SWAP2 POP POP PUSH1 0x80 DUP4 ADD MLOAD DUP5 DUP3 SUB PUSH1 0x80 DUP7 ADD MSTORE PUSH2 0x4259 DUP3 DUP3 PUSH2 0x3FE9 JUMP JUMPDEST SWAP2 POP POP PUSH1 0xA0 DUP4 ADD MLOAD PUSH2 0x426E PUSH1 0xA0 DUP7 ADD DUP3 PUSH2 0x43A2 JUMP JUMPDEST POP PUSH1 0xC0 DUP4 ADD MLOAD PUSH2 0x4281 PUSH1 0xC0 DUP7 ADD DUP3 PUSH2 0x43A2 JUMP JUMPDEST POP DUP1 SWAP2 POP POP SWAP3 SWAP2 POP POP JUMP JUMPDEST PUSH1 0x0 PUSH1 0xE0 DUP4 ADD PUSH1 0x0 DUP4 ADD MLOAD PUSH2 0x42A4 PUSH1 0x0 DUP7 ADD DUP3 PUSH2 0x3DD0 JUMP JUMPDEST POP PUSH1 0x20 DUP4 ADD MLOAD PUSH2 0x42B7 PUSH1 0x20 DUP7 ADD DUP3 PUSH2 0x3DD0 JUMP JUMPDEST POP PUSH1 0x40 DUP4 ADD MLOAD PUSH2 0x42CA PUSH1 0x40 DUP7 ADD DUP3 PUSH2 0x3DD0 JUMP JUMPDEST POP PUSH1 0x60 DUP4 ADD MLOAD DUP5 DUP3 SUB PUSH1 0x60 DUP7 ADD MSTORE PUSH2 0x42E2 DUP3 DUP3 PUSH2 0x3FE9 JUMP JUMPDEST SWAP2 POP POP PUSH1 0x80 DUP4 ADD MLOAD DUP5 DUP3 SUB PUSH1 0x80 DUP7 ADD MSTORE PUSH2 0x42FC DUP3 DUP3 PUSH2 0x3FE9 JUMP JUMPDEST SWAP2 POP POP PUSH1 0xA0 DUP4 ADD MLOAD PUSH2 0x4311 PUSH1 0xA0 DUP7 ADD DUP3 PUSH2 0x43A2 JUMP JUMPDEST POP PUSH1 0xC0 DUP4 ADD MLOAD PUSH2 0x4324 PUSH1 0xC0 DUP7 ADD DUP3 PUSH2 0x43A2 JUMP JUMPDEST POP DUP1 SWAP2 POP POP SWAP3 SWAP2 POP POP JUMP JUMPDEST PUSH1 0x0 PUSH1 0x60 DUP4 ADD PUSH2 0x4342 PUSH1 0x0 DUP5 ADD DUP5 PUSH2 0x4AA1 JUMP JUMPDEST PUSH2 0x434F PUSH1 0x0 DUP7 ADD DUP3 PUSH2 0x43B1 JUMP JUMPDEST POP PUSH2 0x435D PUSH1 0x20 DUP5 ADD DUP5 PUSH2 0x4A4A JUMP JUMPDEST DUP6 DUP4 SUB PUSH1 0x20 DUP8 ADD MSTORE PUSH2 0x4370 DUP4 DUP3 DUP5 PUSH2 0x3DEE JUMP JUMPDEST SWAP3 POP POP POP PUSH2 0x4381 PUSH1 0x40 DUP5 ADD DUP5 PUSH2 0x4A4A JUMP JUMPDEST DUP6 DUP4 SUB PUSH1 0x40 DUP8 ADD MSTORE PUSH2 0x4394 DUP4 DUP3 DUP5 PUSH2 0x3DEE JUMP JUMPDEST SWAP3 POP POP POP DUP1 SWAP2 POP POP SWAP3 SWAP2 POP POP JUMP JUMPDEST PUSH2 0x43AB DUP2 PUSH2 0x4BEB JUMP JUMPDEST DUP3 MSTORE POP POP JUMP JUMPDEST PUSH2 0x43BA DUP2 PUSH2 0x4C25 JUMP JUMPDEST DUP3 MSTORE POP POP JUMP JUMPDEST PUSH2 0x43C9 DUP2 PUSH2 0x4C25 JUMP JUMPDEST DUP3 MSTORE POP POP JUMP JUMPDEST PUSH1 0x0 PUSH2 0x43DC DUP3 DUP5 DUP7 PUSH2 0x3F7C JUMP JUMPDEST SWAP2 POP DUP2 SWAP1 POP SWAP4 SWAP3 POP POP POP JUMP JUMPDEST PUSH1 0x0 PUSH1 0x20 DUP3 ADD SWAP1 POP PUSH2 0x43FD PUSH1 0x0 DUP4 ADD DUP5 PUSH2 0x3DDF JUMP JUMPDEST SWAP3 SWAP2 POP POP JUMP JUMPDEST PUSH1 0x0 PUSH1 0x40 DUP3 ADD SWAP1 POP PUSH2 0x4418 PUSH1 0x0 DUP4 ADD DUP6 PUSH2 0x3DDF JUMP JUMPDEST PUSH2 0x4425 PUSH1 0x20 DUP4 ADD DUP5 PUSH2 0x3DDF JUMP JUMPDEST SWAP4 SWAP3 POP POP POP JUMP JUMPDEST PUSH1 0x0 PUSH1 0x60 DUP3 ADD SWAP1 POP PUSH2 0x4441 PUSH1 0x0 DUP4 ADD DUP7 PUSH2 0x3DDF JUMP JUMPDEST PUSH2 0x444E PUSH1 0x20 DUP4 ADD DUP6 PUSH2 0x3DDF JUMP JUMPDEST PUSH2 0x445B PUSH1 0x40 DUP4 ADD DUP5 PUSH2 0x43C0 JUMP JUMPDEST SWAP5 SWAP4 POP POP POP POP JUMP JUMPDEST PUSH1 0x0 PUSH1 0x40 DUP3 ADD SWAP1 POP PUSH2 0x4478 PUSH1 0x0 DUP4 ADD DUP6 PUSH2 0x3DDF JUMP JUMPDEST PUSH2 0x4485 PUSH1 0x20 DUP4 ADD DUP5 PUSH2 0x43C0 JUMP JUMPDEST SWAP4 SWAP3 POP POP POP JUMP JUMPDEST PUSH1 0x0 PUSH1 0x20 DUP3 ADD SWAP1 POP DUP2 DUP2 SUB PUSH1 0x0 DUP4 ADD MSTORE PUSH2 0x44A6 DUP2 DUP5 PUSH2 0x3EA9 JUMP JUMPDEST SWAP1 POP SWAP3 SWAP2 POP POP JUMP JUMPDEST PUSH1 0x0 PUSH1 0x20 DUP3 ADD SWAP1 POP DUP2 DUP2 SUB PUSH1 0x0 DUP4 ADD MSTORE PUSH2 0x44C8 DUP2 DUP5 PUSH2 0x3F1E JUMP JUMPDEST SWAP1 POP SWAP3 SWAP2 POP POP JUMP JUMPDEST PUSH1 0x0 PUSH1 0x80 DUP3 ADD SWAP1 POP PUSH2 0x44E5 PUSH1 0x0 DUP4 ADD DUP8 PUSH2 0x3FDA JUMP JUMPDEST PUSH2 0x44F2 PUSH1 0x20 DUP4 ADD DUP7 PUSH2 0x43C0 JUMP JUMPDEST PUSH2 0x44FF PUSH1 0x40 DUP4 ADD DUP6 PUSH2 0x3DDF JUMP JUMPDEST DUP2 DUP2 SUB PUSH1 0x60 DUP4 ADD MSTORE PUSH2 0x4511 DUP2 DUP5 PUSH2 0x3FA1 JUMP JUMPDEST SWAP1 POP SWAP6 SWAP5 POP POP POP POP POP JUMP JUMPDEST PUSH1 0x0 PUSH1 0x20 DUP3 ADD SWAP1 POP DUP2 DUP2 SUB PUSH1 0x0 DUP4 ADD MSTORE PUSH2 0x4535 DUP2 PUSH2 0x4022 JUMP JUMPDEST SWAP1 POP SWAP2 SWAP1 POP JUMP JUMPDEST PUSH1 0x0 PUSH1 0x20 DUP3 ADD SWAP1 POP DUP2 DUP2 SUB PUSH1 0x0 DUP4 ADD MSTORE PUSH2 0x4555 DUP2 PUSH2 0x4045 JUMP JUMPDEST SWAP1 POP SWAP2 SWAP1 POP JUMP JUMPDEST PUSH1 0x0 PUSH1 0x20 DUP3 ADD SWAP1 POP DUP2 DUP2 SUB PUSH1 0x0 DUP4 ADD MSTORE PUSH2 0x4575 DUP2 PUSH2 0x4068 JUMP JUMPDEST SWAP1 POP SWAP2 SWAP1 POP JUMP JUMPDEST PUSH1 0x0 PUSH1 0x20 DUP3 ADD SWAP1 POP DUP2 DUP2 SUB PUSH1 0x0 DUP4 ADD MSTORE PUSH2 0x4595 DUP2 PUSH2 0x408B JUMP JUMPDEST SWAP1 POP SWAP2 SWAP1 POP JUMP JUMPDEST PUSH1 0x0 PUSH1 0x20 DUP3 ADD SWAP1 POP DUP2 DUP2 SUB PUSH1 0x0 DUP4 ADD MSTORE PUSH2 0x45B5 DUP2 PUSH2 0x40AE JUMP JUMPDEST SWAP1 POP SWAP2 SWAP1 POP JUMP JUMPDEST PUSH1 0x0 PUSH1 0x20 DUP3 ADD SWAP1 POP DUP2 DUP2 SUB PUSH1 0x0 DUP4 ADD MSTORE PUSH2 0x45D5 DUP2 PUSH2 0x40D1 JUMP JUMPDEST SWAP1 POP SWAP2 SWAP1 POP JUMP JUMPDEST PUSH1 0x0 PUSH1 0x20 DUP3 ADD SWAP1 POP DUP2 DUP2 SUB PUSH1 0x0 DUP4 ADD MSTORE PUSH2 0x45F5 DUP2 PUSH2 0x40F4 JUMP JUMPDEST SWAP1 POP SWAP2 SWAP1 POP JUMP JUMPDEST PUSH1 0x0 PUSH1 0x20 DUP3 ADD SWAP1 POP DUP2 DUP2 SUB PUSH1 0x0 DUP4 ADD MSTORE PUSH2 0x4615 DUP2 PUSH2 0x4117 JUMP JUMPDEST SWAP1 POP SWAP2 SWAP1 POP JUMP JUMPDEST PUSH1 0x0 PUSH1 0x20 DUP3 ADD SWAP1 POP DUP2 DUP2 SUB PUSH1 0x0 DUP4 ADD MSTORE PUSH2 0x4635 DUP2 PUSH2 0x413A JUMP JUMPDEST SWAP1 POP SWAP2 SWAP1 POP JUMP JUMPDEST PUSH1 0x0 PUSH1 0x20 DUP3 ADD SWAP1 POP DUP2 DUP2 SUB PUSH1 0x0 DUP4 ADD MSTORE PUSH2 0x4655 DUP2 PUSH2 0x415D JUMP JUMPDEST SWAP1 POP SWAP2 SWAP1 POP JUMP JUMPDEST PUSH1 0x0 PUSH1 0x20 DUP3 ADD SWAP1 POP DUP2 DUP2 SUB PUSH1 0x0 DUP4 ADD MSTORE PUSH2 0x4675 DUP2 PUSH2 0x4180 JUMP JUMPDEST SWAP1 POP SWAP2 SWAP1 POP JUMP JUMPDEST PUSH1 0x0 PUSH1 0x20 DUP3 ADD SWAP1 POP DUP2 DUP2 SUB PUSH1 0x0 DUP4 ADD MSTORE PUSH2 0x4695 DUP2 PUSH2 0x41A3 JUMP JUMPDEST SWAP1 POP SWAP2 SWAP1 POP JUMP JUMPDEST PUSH1 0x0 PUSH1 0x20 DUP3 ADD SWAP1 POP DUP2 DUP2 SUB PUSH1 0x0 DUP4 ADD MSTORE PUSH2 0x46B5 DUP2 PUSH2 0x41C6 JUMP JUMPDEST SWAP1 POP SWAP2 SWAP1 POP JUMP JUMPDEST PUSH1 0x0 PUSH1 0x20 DUP3 ADD SWAP1 POP DUP2 DUP2 SUB PUSH1 0x0 DUP4 ADD MSTORE PUSH2 0x46D6 DUP2 DUP5 PUSH2 0x428C JUMP JUMPDEST SWAP1 POP SWAP3 SWAP2 POP POP JUMP JUMPDEST PUSH1 0x0 PUSH1 0x20 DUP3 ADD SWAP1 POP DUP2 DUP2 SUB PUSH1 0x0 DUP4 ADD MSTORE PUSH2 0x46F8 DUP2 DUP5 PUSH2 0x432F JUMP JUMPDEST SWAP1 POP SWAP3 SWAP2 POP POP JUMP JUMPDEST PUSH1 0x0 PUSH1 0x20 DUP3 ADD SWAP1 POP PUSH2 0x4715 PUSH1 0x0 DUP4 ADD DUP5 PUSH2 0x43C0 JUMP JUMPDEST SWAP3 SWAP2 POP POP JUMP JUMPDEST PUSH1 0x0 PUSH1 0x40 DUP3 ADD SWAP1 POP PUSH2 0x4730 PUSH1 0x0 DUP4 ADD DUP6 PUSH2 0x43C0 JUMP JUMPDEST DUP2 DUP2 SUB PUSH1 0x20 DUP4 ADD MSTORE PUSH2 0x4742 DUP2 DUP5 PUSH2 0x3E4B JUMP JUMPDEST SWAP1 POP SWAP4 SWAP3 POP POP POP JUMP JUMPDEST PUSH1 0x0 PUSH1 0x80 DUP3 ADD SWAP1 POP PUSH2 0x4760 PUSH1 0x0 DUP4 ADD DUP8 PUSH2 0x43C0 JUMP JUMPDEST PUSH2 0x476D PUSH1 0x20 DUP4 ADD DUP7 PUSH2 0x3FDA JUMP JUMPDEST PUSH2 0x477A PUSH1 0x40 DUP4 ADD DUP6 PUSH2 0x3DDF JUMP JUMPDEST DUP2 DUP2 SUB PUSH1 0x60 DUP4 ADD MSTORE PUSH2 0x478C DUP2 DUP5 PUSH2 0x3FA1 JUMP JUMPDEST SWAP1 POP SWAP6 SWAP5 POP POP POP POP POP JUMP JUMPDEST PUSH1 0x0 PUSH1 0x80 DUP3 ADD SWAP1 POP PUSH2 0x47AC PUSH1 0x0 DUP4 ADD DUP8 PUSH2 0x43C0 JUMP JUMPDEST PUSH2 0x47B9 PUSH1 0x20 DUP4 ADD DUP7 PUSH2 0x43C0 JUMP JUMPDEST PUSH2 0x47C6 PUSH1 0x40 DUP4 ADD DUP6 PUSH2 0x3DDF JUMP JUMPDEST DUP2 DUP2 SUB PUSH1 0x60 DUP4 ADD MSTORE PUSH2 0x47D8 DUP2 DUP5 PUSH2 0x3FA1 JUMP JUMPDEST SWAP1 POP SWAP6 SWAP5 POP POP POP POP POP JUMP JUMPDEST PUSH1 0x0 DUP1 DUP4 CALLDATALOAD PUSH1 0x1 PUSH1 0x20 SUB DUP5 CALLDATASIZE SUB SUB DUP2 SLT PUSH2 0x47FC JUMPI PUSH1 0x0 DUP1 REVERT JUMPDEST DUP1 DUP5 ADD SWAP3 POP DUP3 CALLDATALOAD SWAP2 POP PUSH8 0xFFFFFFFFFFFFFFFF DUP3 GT ISZERO PUSH2 0x481A JUMPI PUSH1 0x0 DUP1 REVERT JUMPDEST PUSH1 0x20 DUP4 ADD SWAP3 POP PUSH1 0x20 DUP3 MUL CALLDATASIZE SUB DUP4 SGT ISZERO PUSH2 0x4832 JUMPI PUSH1 0x0 DUP1 REVERT JUMPDEST POP SWAP3 POP SWAP3 SWAP1 POP JUMP JUMPDEST PUSH1 0x0 DUP3 CALLDATALOAD PUSH1 0x1 PUSH1 0x60 SUB DUP4 CALLDATASIZE SUB SUB DUP2 SLT PUSH2 0x4852 JUMPI PUSH1 0x0 DUP1 REVERT JUMPDEST DUP1 DUP4 ADD SWAP2 POP POP SWAP3 SWAP2 POP POP JUMP JUMPDEST PUSH1 0x0 PUSH2 0x4868 PUSH2 0x4879 JUMP JUMPDEST SWAP1 POP PUSH2 0x4874 DUP3 DUP3 PUSH2 0x4CA6 JUMP JUMPDEST SWAP2 SWAP1 POP JUMP JUMPDEST PUSH1 0x0 PUSH1 0x40 MLOAD SWAP1 POP SWAP1 JUMP JUMPDEST PUSH1 0x0 PUSH8 0xFFFFFFFFFFFFFFFF DUP3 GT ISZERO PUSH2 0x489E JUMPI PUSH2 0x489D PUSH2 0x4D7E JUMP JUMPDEST JUMPDEST PUSH1 0x20 DUP3 MUL SWAP1 POP PUSH1 0x20 DUP2 ADD SWAP1 POP SWAP2 SWAP1 POP JUMP JUMPDEST PUSH1 0x0 PUSH8 0xFFFFFFFFFFFFFFFF DUP3 GT ISZERO PUSH2 0x48CA JUMPI PUSH2 0x48C9 PUSH2 0x4D7E JUMP JUMPDEST JUMPDEST PUSH1 0x20 DUP3 MUL SWAP1 POP PUSH1 0x20 DUP2 ADD SWAP1 POP SWAP2 SWAP1 POP JUMP JUMPDEST PUSH1 0x0 PUSH8 0xFFFFFFFFFFFFFFFF DUP3 GT ISZERO PUSH2 0x48F6 JUMPI PUSH2 0x48F5 PUSH2 0x4D7E JUMP JUMPDEST JUMPDEST PUSH2 0x48FF DUP3 PUSH2 0x4DAD JUMP JUMPDEST SWAP1 POP PUSH1 0x20 DUP2 ADD SWAP1 POP SWAP2 SWAP1 POP JUMP JUMPDEST PUSH1 0x0 DUP2 SWAP1 POP SWAP2 SWAP1 POP JUMP JUMPDEST PUSH1 0x0 DUP2 SWAP1 POP PUSH1 0x20 DUP3 ADD SWAP1 POP SWAP2 SWAP1 POP JUMP JUMPDEST PUSH1 0x0 DUP2 SWAP1 POP PUSH1 0x20 DUP3 ADD SWAP1 POP SWAP2 SWAP1 POP JUMP JUMPDEST PUSH1 0x0 DUP2 SWAP1 POP PUSH1 0x20 DUP3 ADD SWAP1 POP SWAP2 SWAP1 POP JUMP JUMPDEST PUSH1 0x0 DUP2 MLOAD SWAP1 POP SWAP2 SWAP1 POP JUMP JUMPDEST PUSH1 0x0 DUP2 MLOAD SWAP1 POP SWAP2 SWAP1 POP JUMP JUMPDEST PUSH1 0x0 DUP2 MLOAD SWAP1 POP SWAP2 SWAP1 POP JUMP JUMPDEST PUSH1 0x0 DUP2 MLOAD SWAP1 POP SWAP2 SWAP1 POP JUMP JUMPDEST PUSH1 0x0 DUP2 MLOAD SWAP1 POP SWAP2 SWAP1 POP JUMP JUMPDEST PUSH1 0x0 PUSH1 0x20 DUP3 ADD SWAP1 POP SWAP2 SWAP1 POP JUMP JUMPDEST PUSH1 0x0 PUSH1 0x20 DUP3 ADD SWAP1 POP SWAP2 SWAP1 POP JUMP JUMPDEST PUSH1 0x0 PUSH1 0x20 DUP3 ADD SWAP1 POP SWAP2 SWAP1 POP JUMP JUMPDEST PUSH1 0x0 PUSH1 0x20 DUP3 ADD SWAP1 POP SWAP2 SWAP1 POP JUMP JUMPDEST PUSH1 0x0 DUP3 DUP3 MSTORE PUSH1 0x20 DUP3 ADD SWAP1 POP SWAP3 SWAP2 POP POP JUMP JUMPDEST PUSH1 0x0 DUP3 DUP3 MSTORE PUSH1 0x20 DUP3 ADD SWAP1 POP SWAP3 SWAP2 POP POP JUMP JUMPDEST PUSH1 0x0 DUP3 DUP3 MSTORE PUSH1 0x20 DUP3 ADD SWAP1 POP SWAP3 SWAP2 POP POP JUMP JUMPDEST PUSH1 0x0 DUP3 DUP3 MSTORE PUSH1 0x20 DUP3 ADD SWAP1 POP SWAP3 SWAP2 POP POP JUMP JUMPDEST PUSH1 0x0 DUP3 DUP3 MSTORE PUSH1 0x20 DUP3 ADD SWAP1 POP SWAP3 SWAP2 POP POP JUMP JUMPDEST PUSH1 0x0 DUP2 SWAP1 POP SWAP3 SWAP2 POP POP JUMP JUMPDEST PUSH1 0x0 DUP3 DUP3 MSTORE PUSH1 0x20 DUP3 ADD SWAP1 POP SWAP3 SWAP2 POP POP JUMP JUMPDEST PUSH1 0x0 DUP3 DUP3 MSTORE PUSH1 0x20 DUP3 ADD SWAP1 POP SWAP3 SWAP2 POP POP JUMP JUMPDEST PUSH1 0x0 PUSH2 0x4A42 PUSH1 0x20 DUP5 ADD DUP5 PUSH2 0x370E JUMP JUMPDEST SWAP1 POP SWAP3 SWAP2 POP POP JUMP JUMPDEST PUSH1 0x0 DUP1 DUP4 CALLDATALOAD PUSH1 0x1 PUSH1 0x20 SUB DUP5 CALLDATASIZE SUB SUB DUP2 SLT PUSH2 0x4A63 JUMPI PUSH1 0x0 DUP1 REVERT JUMPDEST DUP4 DUP2 ADD SWAP3 POP DUP3 CALLDATALOAD SWAP2 POP PUSH1 0x20 DUP4 ADD SWAP3 POP PUSH8 0xFFFFFFFFFFFFFFFF DUP3 GT ISZERO PUSH2 0x4A87 JUMPI PUSH1 0x0 DUP1 REVERT JUMPDEST PUSH1 0x20 DUP3 MUL CALLDATASIZE SUB DUP5 SGT ISZERO PUSH2 0x4A99 JUMPI PUSH1 0x0 DUP1 REVERT JUMPDEST POP SWAP3 POP SWAP3 SWAP1 POP JUMP JUMPDEST PUSH1 0x0 PUSH2 0x4AB0 PUSH1 0x20 DUP5 ADD DUP5 PUSH2 0x3969 JUMP JUMPDEST SWAP1 POP SWAP3 SWAP2 POP POP JUMP JUMPDEST PUSH1 0x0 PUSH2 0x4AC3 DUP3 PUSH2 0x4C25 JUMP JUMPDEST SWAP2 POP PUSH2 0x4ACE DUP4 PUSH2 0x4C25 JUMP JUMPDEST SWAP3 POP DUP3 PUSH32 0xFFFFFFFFFFFFFFFFFFFFFFFFFFFFFFFFFFFFFFFFFFFFFFFFFFFFFFFFFFFFFFFF SUB DUP3 GT ISZERO PUSH2 0x4B03 JUMPI PUSH2 0x4B02 PUSH2 0x4D20 JUMP JUMPDEST JUMPDEST DUP3 DUP3 ADD SWAP1 POP SWAP3 SWAP2 POP POP JUMP JUMPDEST PUSH1 0x0 PUSH2 0x4B19 DUP3 PUSH2 0x4C25 JUMP JUMPDEST SWAP2 POP PUSH2 0x4B24 DUP4 PUSH2 0x4C25 JUMP JUMPDEST SWAP3 POP DUP3 PUSH2 0x4B34 JUMPI PUSH2 0x4B33 PUSH2 0x4D4F JUMP JUMPDEST JUMPDEST DUP3 DUP3 DIV SWAP1 POP SWAP3 SWAP2 POP POP JUMP JUMPDEST PUSH1 0x0 PUSH2 0x4B4A DUP3 PUSH2 0x4C25 JUMP JUMPDEST SWAP2 POP PUSH2 0x4B55 DUP4 PUSH2 0x4C25 JUMP JUMPDEST SWAP3 POP DUP2 PUSH32 0xFFFFFFFFFFFFFFFFFFFFFFFFFFFFFFFFFFFFFFFFFFFFFFFFFFFFFFFFFFFFFFFF DIV DUP4 GT DUP3 ISZERO ISZERO AND ISZERO PUSH2 0x4B8E JUMPI PUSH2 0x4B8D PUSH2 0x4D20 JUMP JUMPDEST JUMPDEST DUP3 DUP3 MUL SWAP1 POP SWAP3 SWAP2 POP POP JUMP JUMPDEST PUSH1 0x0 PUSH2 0x4BA4 DUP3 PUSH2 0x4C25 JUMP JUMPDEST SWAP2 POP PUSH2 0x4BAF DUP4 PUSH2 0x4C25 JUMP JUMPDEST SWAP3 POP DUP3 DUP3 LT ISZERO PUSH2 0x4BC2 JUMPI PUSH2 0x4BC1 PUSH2 0x4D20 JUMP JUMPDEST JUMPDEST DUP3 DUP3 SUB SWAP1 POP SWAP3 SWAP2 POP POP JUMP JUMPDEST PUSH1 0x0 PUSH2 0x4BD8 DUP3 PUSH2 0x4C05 JUMP JUMPDEST SWAP1 POP SWAP2 SWAP1 POP JUMP JUMPDEST PUSH1 0x0 DUP2 ISZERO ISZERO SWAP1 POP SWAP2 SWAP1 POP JUMP JUMPDEST PUSH1 0x0 PUSH14 0xFFFFFFFFFFFFFFFFFFFFFFFFFFFF DUP3 AND SWAP1 POP SWAP2 SWAP1 POP JUMP JUMPDEST PUSH1 0x0 PUSH20 0xFFFFFFFFFFFFFFFFFFFFFFFFFFFFFFFFFFFFFFFF DUP3 AND SWAP1 POP SWAP2 SWAP1 POP JUMP JUMPDEST PUSH1 0x0 DUP2 SWAP1 POP SWAP2 SWAP1 POP JUMP JUMPDEST PUSH1 0x0 PUSH4 0xFFFFFFFF DUP3 AND SWAP1 POP SWAP2 SWAP1 POP JUMP JUMPDEST PUSH1 0x0 PUSH2 0x4C4A DUP3 PUSH2 0x4C25 JUMP JUMPDEST SWAP1 POP SWAP2 SWAP1 POP JUMP JUMPDEST PUSH1 0x0 PUSH2 0x4C5D CALLDATASIZE DUP4 PUSH2 0x38C4 JUMP JUMPDEST SWAP1 POP SWAP2 SWAP1 POP JUMP JUMPDEST DUP3 DUP2 DUP4 CALLDATACOPY PUSH1 0x0 DUP4 DUP4 ADD MSTORE POP POP POP JUMP JUMPDEST PUSH1 0x0 JUMPDEST DUP4 DUP2 LT ISZERO PUSH2 0x4C91 JUMPI DUP1 DUP3 ADD MLOAD DUP2 DUP5 ADD MSTORE PUSH1 0x20 DUP2 ADD SWAP1 POP PUSH2 0x4C76 JUMP JUMPDEST DUP4 DUP2 GT ISZERO PUSH2 0x4CA0 JUMPI PUSH1 0x0 DUP5 DUP5 ADD MSTORE JUMPDEST POP POP POP POP JUMP JUMPDEST PUSH2 0x4CAF DUP3 PUSH2 0x4DAD JUMP JUMPDEST DUP2 ADD DUP2 DUP2 LT PUSH8 0xFFFFFFFFFFFFFFFF DUP3 GT OR ISZERO PUSH2 0x4CCE JUMPI PUSH2 0x4CCD PUSH2 0x4D7E JUMP JUMPDEST JUMPDEST DUP1 PUSH1 0x40 MSTORE POP POP POP JUMP JUMPDEST PUSH1 0x0 PUSH2 0x4CE2 DUP3 PUSH2 0x4C25 JUMP JUMPDEST SWAP2 POP PUSH32 0xFFFFFFFFFFFFFFFFFFFFFFFFFFFFFFFFFFFFFFFFFFFFFFFFFFFFFFFFFFFFFFFF DUP3 EQ ISZERO PUSH2 0x4D15 JUMPI PUSH2 0x4D14 PUSH2 0x4D20 JUMP JUMPDEST JUMPDEST PUSH1 0x1 DUP3 ADD SWAP1 POP SWAP2 SWAP1 POP JUMP JUMPDEST PUSH32 0x4E487B7100000000000000000000000000000000000000000000000000000000 PUSH1 0x0 MSTORE PUSH1 0x11 PUSH1 0x4 MSTORE PUSH1 0x24 PUSH1 0x0 REVERT JUMPDEST PUSH32 0x4E487B7100000000000000000000000000000000000000000000000000000000 PUSH1 0x0 MSTORE PUSH1 0x12 PUSH1 0x4 MSTORE PUSH1 0x24 PUSH1 0x0 REVERT JUMPDEST PUSH32 0x4E487B7100000000000000000000000000000000000000000000000000000000 PUSH1 0x0 MSTORE PUSH1 0x41 PUSH1 0x4 MSTORE PUSH1 0x24 PUSH1 0x0 REVERT JUMPDEST PUSH1 0x0 PUSH1 0x1F NOT PUSH1 0x1F DUP4 ADD AND SWAP1 POP SWAP2 SWAP1 POP JUMP JUMPDEST PUSH32 0x4F776E61626C653A206E6577206F776E657220697320746865207A65726F2061 PUSH1 0x0 DUP3 ADD MSTORE PUSH32 0x6464726573730000000000000000000000000000000000000000000000000000 PUSH1 0x20 DUP3 ADD MSTORE POP JUMP JUMPDEST PUSH32 0x466C617368426F743A204B000000000000000000000000000000000000000000 PUSH1 0x0 DUP3 ADD MSTORE POP JUMP JUMPDEST PUSH32 0x50415448204552524F5200000000000000000000000000000000000000000000 PUSH1 0x0 DUP3 ADD MSTORE POP JUMP JUMPDEST PUSH32 0x415242495452414745204641494C555245000000000000000000000000000000 PUSH1 0x0 DUP3 ADD MSTORE POP JUMP JUMPDEST PUSH32 0x556E697377617056324C6962726172793A204944454E544943414C5F41444452 PUSH1 0x0 DUP3 ADD MSTORE PUSH32 0x4553534553000000000000000000000000000000000000000000000000000000 PUSH1 0x20 DUP3 ADD MSTORE POP JUMP JUMPDEST PUSH32 0x524F55544552204552524F520000000000000000000000000000000000000000 PUSH1 0x0 DUP3 ADD MSTORE POP JUMP JUMPDEST PUSH32 0x4F776E61626C653A2063616C6C6572206973206E6F7420746865206F776E6572 PUSH1 0x0 DUP3 ADD MSTORE POP JUMP JUMPDEST PUSH32 0x494E444558204552524F52000000000000000000000000000000000000000000 PUSH1 0x0 DUP3 ADD MSTORE POP JUMP JUMPDEST PUSH32 0x544F4B454E204552524F52000000000000000000000000000000000000000000 PUSH1 0x0 DUP3 ADD MSTORE POP JUMP JUMPDEST PUSH32 0x494E53554646494349454E542042414C414E4345000000000000000000000000 PUSH1 0x0 DUP3 ADD MSTORE POP JUMP JUMPDEST PUSH32 0x4E4F204152424954524147450000000000000000000000000000000000000000 PUSH1 0x0 DUP3 ADD MSTORE POP JUMP JUMPDEST PUSH32 0x556E697377617056324C6962726172793A205A45524F5F414444524553530000 PUSH1 0x0 DUP3 ADD MSTORE POP JUMP JUMPDEST PUSH32 0x466C617368426F743A20494E53554646494349454E545F4C4951554944495459 PUSH1 0x0 DUP3 ADD MSTORE POP JUMP JUMPDEST PUSH2 0x5028 DUP2 PUSH2 0x4BCD JUMP JUMPDEST DUP2 EQ PUSH2 0x5033 JUMPI PUSH1 0x0 DUP1 REVERT JUMPDEST POP JUMP JUMPDEST PUSH2 0x503F DUP2 PUSH2 0x4BDF JUMP JUMPDEST DUP2 EQ PUSH2 0x504A JUMPI PUSH1 0x0 DUP1 REVERT JUMPDEST POP JUMP JUMPDEST PUSH2 0x5056 DUP2 PUSH2 0x4BEB JUMP JUMPDEST DUP2 EQ PUSH2 0x5061 JUMPI PUSH1 0x0 DUP1 REVERT JUMPDEST POP JUMP JUMPDEST PUSH2 0x506D DUP2 PUSH2 0x4C25 JUMP JUMPDEST DUP2 EQ PUSH2 0x5078 JUMPI PUSH1 0x0 DUP1 REVERT JUMPDEST POP JUMP JUMPDEST PUSH2 0x5084 DUP2 PUSH2 0x4C2F JUMP JUMPDEST DUP2 EQ PUSH2 0x508F JUMPI PUSH1 0x0 DUP1 REVERT JUMPDEST POP JUMP INVALID LOG2 PUSH5 0x6970667358 0x22 SLT KECCAK256 0xC3 PUSH18 0xB108FF84EF44892D125469A4A7ABE2D409C0 0xE4 0xC3 0xC8 EXTCODECOPY 0xC0 DUP12 PUSH6 0x28075B062864 PUSH20 0x6F6C634300080400330000000000000000000000 "},"methodIdentifiers":{"apeCall(address,uint256,uint256,bytes)":"becda363","batchPairInfo(address,uint256,uint256)":"2bc6aa97","batchSwapAmountOut((uint256,address[],address[])[])":"867f8ad0","cafeCall(address,uint256,uint256,bytes)":"ec78ce50","computeSwapAmountOut((uint256,address[],address[]))":"09d35296","computeSwapAmountsOut((uint256,address[],address[]))":"7125010d","elkCall(address,uint256,uint256,bytes)":"07d3513a","executeArbitrageFlashSwap((uint256,address[],address[]))":"eb799234","executeArbitrageSwap((uint256,address[],address[]))":"b8aaacff","executeFlashSwap((uint256,address[],address[]))":"07845469","executeSwap((uint256,address[],address[]))":"415efd95","getPairInfo(address,uint256)":"b93a4c6e","jetswapCall(address,uint256,uint256,bytes)":"3fc01685","owner()":"8da5cb5b","renounceOwnership()":"715018a6","startFlash((uint256,address[],address[]))":"859657a2","transferOwnership(address)":"f2fde38b","uniswapV2Call(address,uint256,uint256,bytes)":"10d1e85c","waultSwapCall(address,uint256,uint256,bytes)":"485f3994","withdraw()":"3ccfd60b","withdrawTo(address)":"72b0d90c","withdrawToken(address[])":"4b0879fe","withdrawToken(address[],address)":"7b191ff2"}}}}}