{
  "_format": "hh-sol-artifact-1",
  "contractName": "FlashBot",
  "sourceName": "contracts/FlashBot.sol",
  "abi": [
    {
      "anonymous": false,
      "inputs": [
        {
          "indexed": true,
          "internalType": "address",
          "name": "previousOwner",
          "type": "address"
        },
        {
          "indexed": true,
          "internalType": "address",
          "name": "newOwner",
          "type": "address"
        }
      ],
      "name": "OwnershipTransferred",
      "type": "event"
    },
    {
      "stateMutability": "payable",
      "type": "fallback"
    },
    {
      "inputs": [
        {
          "internalType": "address",
          "name": "sender",
          "type": "address"
        },
        {
          "internalType": "uint256",
          "name": "amount0",
          "type": "uint256"
        },
        {
          "internalType": "uint256",
          "name": "amount1",
          "type": "uint256"
        },
        {
          "internalType": "bytes",
          "name": "data",
          "type": "bytes"
        }
      ],
      "name": "apeCall",
      "outputs": [],
      "stateMutability": "nonpayable",
      "type": "function"
    },
    {
      "inputs": [
        {
          "internalType": "address",
          "name": "factoryAddress",
          "type": "address"
        },
        {
          "internalType": "uint256",
          "name": "startIndex",
          "type": "uint256"
        },
        {
          "internalType": "uint256",
          "name": "endIndex",
          "type": "uint256"
        }
      ],
      "name": "batchPairInfo",
      "outputs": [
        {
          "components": [
            {
              "internalType": "address",
              "name": "pairAddress",
              "type": "address"
            },
            {
              "internalType": "address",
              "name": "token0Address",
              "type": "address"
            },
            {
              "internalType": "address",
              "name": "token1Address",
              "type": "address"
            },
            {
              "internalType": "string",
              "name": "token0Symbol",
              "type": "string"
            },
            {
              "internalType": "string",
              "name": "token1Symbol",
              "type": "string"
            },
            {
              "internalType": "uint112",
              "name": "reserve0",
              "type": "uint112"
            },
            {
              "internalType": "uint112",
              "name": "reserve1",
              "type": "uint112"
            }
          ],
          "internalType": "struct IFlashBot.PairInfo[]",
          "name": "",
          "type": "tuple[]"
        }
      ],
      "stateMutability": "view",
      "type": "function"
    },
    {
      "inputs": [
        {
          "components": [
            {
              "internalType": "uint256",
              "name": "amountIn",
              "type": "uint256"
            },
            {
              "internalType": "address[]",
              "name": "path",
              "type": "address[]"
            },
            {
              "internalType": "address[]",
              "name": "router",
              "type": "address[]"
            }
          ],
          "internalType": "struct IFlashBot.SwapParam[]",
          "name": "paramList",
          "type": "tuple[]"
        }
      ],
      "name": "batchSwapAmountOut",
      "outputs": [
        {
          "internalType": "uint256[]",
          "name": "",
          "type": "uint256[]"
        }
      ],
      "stateMutability": "view",
      "type": "function"
    },
    {
      "inputs": [
        {
          "internalType": "address",
          "name": "sender",
          "type": "address"
        },
        {
          "internalType": "uint256",
          "name": "amount0",
          "type": "uint256"
        },
        {
          "internalType": "uint256",
          "name": "amount1",
          "type": "uint256"
        },
        {
          "internalType": "bytes",
          "name": "data",
          "type": "bytes"
        }
      ],
      "name": "cafeCall",
      "outputs": [],
      "stateMutability": "nonpayable",
      "type": "function"
    },
    {
      "inputs": [
        {
          "components": [
            {
              "internalType": "uint256",
              "name": "amountIn",
              "type": "uint256"
            },
            {
              "internalType": "address[]",
              "name": "path",
              "type": "address[]"
            },
            {
              "internalType": "address[]",
              "name": "router",
              "type": "address[]"
            }
          ],
          "internalType": "struct IFlashBot.SwapParam",
          "name": "param",
          "type": "tuple"
        }
      ],
      "name": "computeSwapAmountOut",
      "outputs": [
        {
          "internalType": "uint256",
          "name": "",
          "type": "uint256"
        }
      ],
      "stateMutability": "view",
      "type": "function"
    },
    {
      "inputs": [
        {
          "components": [
            {
              "internalType": "uint256",
              "name": "amountIn",
              "type": "uint256"
            },
            {
              "internalType": "address[]",
              "name": "path",
              "type": "address[]"
            },
            {
              "internalType": "address[]",
              "name": "router",
              "type": "address[]"
            }
          ],
          "internalType": "struct IFlashBot.SwapParam",
          "name": "param",
          "type": "tuple"
        }
      ],
      "name": "computeSwapAmountsOut",
      "outputs": [
        {
          "internalType": "uint256[]",
          "name": "",
          "type": "uint256[]"
        }
      ],
      "stateMutability": "view",
      "type": "function"
    },
    {
      "inputs": [
        {
          "internalType": "address",
          "name": "sender",
          "type": "address"
        },
        {
          "internalType": "uint256",
          "name": "amount0",
          "type": "uint256"
        },
        {
          "internalType": "uint256",
          "name": "amount1",
          "type": "uint256"
        },
        {
          "internalType": "bytes",
          "name": "data",
          "type": "bytes"
        }
      ],
      "name": "elkCall",
      "outputs": [],
      "stateMutability": "nonpayable",
      "type": "function"
    },
    {
      "inputs": [
        {
          "components": [
            {
              "internalType": "uint256",
              "name": "amountIn",
              "type": "uint256"
            },
            {
              "internalType": "address[]",
              "name": "path",
              "type": "address[]"
            },
            {
              "internalType": "address[]",
              "name": "router",
              "type": "address[]"
            }
          ],
          "internalType": "struct IFlashBot.SwapParam",
          "name": "param",
          "type": "tuple"
        }
      ],
      "name": "executeArbitrageFlashSwap",
      "outputs": [],
      "stateMutability": "nonpayable",
      "type": "function"
    },
    {
      "inputs": [
        {
          "components": [
            {
              "internalType": "uint256",
              "name": "amountIn",
              "type": "uint256"
            },
            {
              "internalType": "address[]",
              "name": "path",
              "type": "address[]"
            },
            {
              "internalType": "address[]",
              "name": "router",
              "type": "address[]"
            }
          ],
          "internalType": "struct IFlashBot.SwapParam",
          "name": "param",
          "type": "tuple"
        }
      ],
      "name": "executeArbitrageSwap",
      "outputs": [],
      "stateMutability": "nonpayable",
      "type": "function"
    },
    {
      "inputs": [
        {
          "components": [
            {
              "internalType": "uint256",
              "name": "amountIn",
              "type": "uint256"
            },
            {
              "internalType": "address[]",
              "name": "path",
              "type": "address[]"
            },
            {
              "internalType": "address[]",
              "name": "router",
              "type": "address[]"
            }
          ],
          "internalType": "struct IFlashBot.SwapParam",
          "name": "param",
          "type": "tuple"
        }
      ],
      "name": "executeFlashSwap",
      "outputs": [],
      "stateMutability": "nonpayable",
      "type": "function"
    },
    {
      "inputs": [
        {
          "components": [
            {
              "internalType": "uint256",
              "name": "amountIn",
              "type": "uint256"
            },
            {
              "internalType": "address[]",
              "name": "path",
              "type": "address[]"
            },
            {
              "internalType": "address[]",
              "name": "router",
              "type": "address[]"
            }
          ],
          "internalType": "struct IFlashBot.SwapParam",
          "name": "param",
          "type": "tuple"
        }
      ],
      "name": "executeSwap",
      "outputs": [],
      "stateMutability": "nonpayable",
      "type": "function"
    },
    {
      "inputs": [
        {
          "internalType": "address",
          "name": "factoryAddress",
          "type": "address"
        },
        {
          "internalType": "uint256",
          "name": "index",
          "type": "uint256"
        }
      ],
      "name": "getPairInfo",
      "outputs": [
        {
          "components": [
            {
              "internalType": "address",
              "name": "pairAddress",
              "type": "address"
            },
            {
              "internalType": "address",
              "name": "token0Address",
              "type": "address"
            },
            {
              "internalType": "address",
              "name": "token1Address",
              "type": "address"
            },
            {
              "internalType": "string",
              "name": "token0Symbol",
              "type": "string"
            },
            {
              "internalType": "string",
              "name": "token1Symbol",
              "type": "string"
            },
            {
              "internalType": "uint112",
              "name": "reserve0",
              "type": "uint112"
            },
            {
              "internalType": "uint112",
              "name": "reserve1",
              "type": "uint112"
            }
          ],
          "internalType": "struct IFlashBot.PairInfo",
          "name": "",
          "type": "tuple"
        }
      ],
      "stateMutability": "view",
      "type": "function"
    },
    {
      "inputs": [
        {
          "internalType": "address",
          "name": "sender",
          "type": "address"
        },
        {
          "internalType": "uint256",
          "name": "amount0",
          "type": "uint256"
        },
        {
          "internalType": "uint256",
          "name": "amount1",
          "type": "uint256"
        },
        {
          "internalType": "bytes",
          "name": "data",
          "type": "bytes"
        }
      ],
      "name": "jetswapCall",
      "outputs": [],
      "stateMutability": "nonpayable",
      "type": "function"
    },
    {
      "inputs": [],
      "name": "owner",
      "outputs": [
        {
          "internalType": "address",
          "name": "",
          "type": "address"
        }
      ],
      "stateMutability": "view",
      "type": "function"
    },
    {
      "inputs": [],
      "name": "renounceOwnership",
      "outputs": [],
      "stateMutability": "nonpayable",
      "type": "function"
    },
    {
      "inputs": [
        {
          "components": [
            {
              "internalType": "uint256",
              "name": "amountIn",
              "type": "uint256"
            },
            {
              "internalType": "address[]",
              "name": "path",
              "type": "address[]"
            },
            {
              "internalType": "address[]",
              "name": "router",
              "type": "address[]"
            }
          ],
          "internalType": "struct IFlashBot.SwapParam",
          "name": "param",
          "type": "tuple"
        }
      ],
      "name": "startFlash",
      "outputs": [],
      "stateMutability": "nonpayable",
      "type": "function"
    },
    {
      "inputs": [
        {
          "internalType": "address",
          "name": "newOwner",
          "type": "address"
        }
      ],
      "name": "transferOwnership",
      "outputs": [],
      "stateMutability": "nonpayable",
      "type": "function"
    },
    {
      "inputs": [
        {
          "internalType": "address",
          "name": "sender",
          "type": "address"
        },
        {
          "internalType": "uint256",
          "name": "amount0",
          "type": "uint256"
        },
        {
          "internalType": "uint256",
          "name": "amount1",
          "type": "uint256"
        },
        {
          "internalType": "bytes",
          "name": "data",
          "type": "bytes"
        }
      ],
      "name": "uniswapV2Call",
      "outputs": [],
      "stateMutability": "nonpayable",
      "type": "function"
    },
    {
      "inputs": [
        {
          "internalType": "address",
          "name": "sender",
          "type": "address"
        },
        {
          "internalType": "uint256",
          "name": "amount0",
          "type": "uint256"
        },
        {
          "internalType": "uint256",
          "name": "amount1",
          "type": "uint256"
        },
        {
          "internalType": "bytes",
          "name": "data",
          "type": "bytes"
        }
      ],
      "name": "waultSwapCall",
      "outputs": [],
      "stateMutability": "nonpayable",
      "type": "function"
    },
    {
      "inputs": [],
      "name": "withdraw",
      "outputs": [],
      "stateMutability": "nonpayable",
      "type": "function"
    },
    {
      "inputs": [
        {
          "internalType": "address",
          "name": "to",
          "type": "address"
        }
      ],
      "name": "withdrawTo",
      "outputs": [],
      "stateMutability": "nonpayable",
      "type": "function"
    },
    {
      "inputs": [
        {
          "internalType": "address[]",
          "name": "tokens",
          "type": "address[]"
        }
      ],
      "name": "withdrawToken",
      "outputs": [],
      "stateMutability": "nonpayable",
      "type": "function"
    },
    {
      "inputs": [
        {
          "internalType": "address[]",
          "name": "tokens",
          "type": "address[]"
        },
        {
          "internalType": "address",
          "name": "to",
          "type": "address"
        }
      ],
      "name": "withdrawToken",
      "outputs": [],
      "stateMutability": "nonpayable",
      "type": "function"
    },
    {
      "stateMutability": "payable",
      "type": "receive"
    }
  ],
  "bytecode": "0x60806040523480156200001157600080fd5b5062000032620000266200003860201b60201c565b6200004060201b60201c565b62000104565b600033905090565b60008060009054906101000a900473ffffffffffffffffffffffffffffffffffffffff169050816000806101000a81548173ffffffffffffffffffffffffffffffffffffffff021916908373ffffffffffffffffffffffffffffffffffffffff1602179055508173ffffffffffffffffffffffffffffffffffffffff168173ffffffffffffffffffffffffffffffffffffffff167f8be0079c531659141344cd1fd0a4f28419497f9722a3daafe3b4186f6b6457e060405160405180910390a35050565b6150c880620001146000396000f3fe6080604052600436106101445760003560e01c8063715018a6116100b6578063b8aaacff1161006f578063b8aaacff14610434578063b93a4c6e1461045d578063becda3631461049a578063eb799234146104c3578063ec78ce50146104ec578063f2fde38b146105155761014b565b8063715018a61461033a57806372b0d90c146103515780637b191ff21461037a578063859657a2146103a3578063867f8ad0146103cc5780638da5cb5b146104095761014b565b80633ccfd60b116101085780633ccfd60b146102425780633fc0168514610259578063415efd9514610282578063485f3994146102ab5780634b0879fe146102d45780637125010d146102fd5761014b565b8063078454691461014d57806307d3513a1461017657806309d352961461019f57806310d1e85c146101dc5780632bc6aa97146102055761014b565b3661014b57005b005b34801561015957600080fd5b50610174600480360381019061016f9190613c92565b61053e565b005b34801561018257600080fd5b5061019d60048036038101906101989190613a85565b610541565b005b3480156101ab57600080fd5b506101c660048036038101906101c19190613c92565b610555565b6040516101d39190614700565b60405180910390f35b3480156101e857600080fd5b5061020360048036038101906101fe9190613a85565b610d32565b005b34801561021157600080fd5b5061022c60048036038101906102279190613a36565b610d46565b604051610239919061448c565b60405180910390f35b34801561024e57600080fd5b50610257610eaa565b005b34801561026557600080fd5b50610280600480360381019061027b9190613a85565b610f38565b005b34801561028e57600080fd5b506102a960048036038101906102a49190613c92565b610f4c565b005b3480156102b757600080fd5b506102d260048036038101906102cd9190613a85565b61100f565b005b3480156102e057600080fd5b506102fb60048036038101906102f69190613b05565b611023565b005b34801561030957600080fd5b50610324600480360381019061031f9190613cd3565b6110b5565b60405161033191906144ae565b60405180910390f35b34801561034657600080fd5b5061034f6115f3565b005b34801561035d57600080fd5b50610378600480360381019061037391906139a8565b61167b565b005b34801561038657600080fd5b506103a1600480360381019061039c9190613b4a565b611784565b005b3480156103af57600080fd5b506103ca60048036038101906103c59190613c92565b6119e9565b005b3480156103d857600080fd5b506103f360048036038101906103ee9190613ba2565b611eca565b60405161040091906144ae565b60405180910390f35b34801561041557600080fd5b5061041e6120d2565b60405161042b91906143e8565b60405180910390f35b34801561044057600080fd5b5061045b60048036038101906104569190613cd3565b6120fb565b005b34801561046957600080fd5b50610484600480360381019061047f91906139fa565b612528565b60405161049191906146bc565b60405180910390f35b3480156104a657600080fd5b506104c160048036038101906104bc9190613a85565b612805565b005b3480156104cf57600080fd5b506104ea60048036038101906104e59190613c92565b612819565b005b3480156104f857600080fd5b50610513600480360381019061050e9190613a85565b61281c565b005b34801561052157600080fd5b5061053c600480360381019061053791906139a8565b612830565b005b50565b61054e8585858585612928565b5050505050565b60008061056a8361056590614c51565b6110b5565b905060005b83806040019061057f91906147e3565b9050811015610cdb5760008085806020019061059b91906147e3565b848181106105d2577f4e487b7100000000000000000000000000000000000000000000000000000000600052603260045260246000fd5b90506020020160208101906105e791906139a8565b8680602001906105f791906147e3565b6001866106049190614ab8565b81811061063a577f4e487b7100000000000000000000000000000000000000000000000000000000600052603260045260246000fd5b905060200201602081019061064f91906139a8565b91509150600061065f8383612be1565b5090506000808273ffffffffffffffffffffffffffffffffffffffff168573ffffffffffffffffffffffffffffffffffffffff16146106e05760008787815181106106d3577f4e487b7100000000000000000000000000000000000000000000000000000000600052603260045260246000fd5b6020026020010151610724565b868681518110610719577f4e487b7100000000000000000000000000000000000000000000000000000000600052603260045260246000fd5b602002602001015160005b915091506000808473ffffffffffffffffffffffffffffffffffffffff168773ffffffffffffffffffffffffffffffffffffffff16146107b2578860018961076c9190614ab8565b815181106107a3577f4e487b7100000000000000000000000000000000000000000000000000000000600052603260045260246000fd5b60200260200101516000610802565b60008960018a6107c29190614ab8565b815181106107f9577f4e487b7100000000000000000000000000000000000000000000000000000000600052603260045260246000fd5b60200260200101515b91509150600061086e8c806040019061081b91906147e3565b8b818110610852577f4e487b7100000000000000000000000000000000000000000000000000000000600052603260045260246000fd5b905060200201602081019061086791906139a8565b8989612d0f565b90506000808273ffffffffffffffffffffffffffffffffffffffff16630902f1ac6040518163ffffffff1660e01b815260040160606040518083038186803b1580156108b957600080fd5b505afa1580156108cd573d6000803e3d6000fd5b505050506040513d601f19601f820116820180604052508101906108f19190613d14565b5091509150816dffffffffffffffffffffffffffff16851080156109245750806dffffffffffffffffffffffffffff1684105b610963576040517f08c379a000000000000000000000000000000000000000000000000000000000815260040161095a9061469c565b60405180910390fd5b60008086898673ffffffffffffffffffffffffffffffffffffffff16630dfe16816040518163ffffffff1660e01b815260040160206040518083038186803b1580156109ae57600080fd5b505afa1580156109c2573d6000803e3d6000fd5b505050506040513d601f19601f820116820180604052508101906109e691906139d1565b73ffffffffffffffffffffffffffffffffffffffff166370a08231886040518263ffffffff1660e01b8152600401610a1e91906143e8565b60206040518083038186803b158015610a3657600080fd5b505afa158015610a4a573d6000803e3d6000fd5b505050506040513d601f19601f82011682018060405250810190610a6e9190613d63565b610a789190614ab8565b610a829190614b99565b915085888673ffffffffffffffffffffffffffffffffffffffff1663d21220a76040518163ffffffff1660e01b815260040160206040518083038186803b158015610acc57600080fd5b505afa158015610ae0573d6000803e3d6000fd5b505050506040513d601f19601f82011682018060405250810190610b0491906139d1565b73ffffffffffffffffffffffffffffffffffffffff166370a08231886040518263ffffffff1660e01b8152600401610b3c91906143e8565b60206040518083038186803b158015610b5457600080fd5b505afa158015610b68573d6000803e3d6000fd5b505050506040513d601f19601f82011682018060405250810190610b8c9190613d63565b610b969190614ab8565b610ba09190614b99565b90506000610bde610bbb60038c612e2790919063ffffffff16565b610bd06103e886612e2790919063ffffffff16565b612e3d90919063ffffffff16565b90506000610c1c610bf960038c612e2790919063ffffffff16565b610c0e6103e886612e2790919063ffffffff16565b612e3d90919063ffffffff16565b9050610c66620f4240610c58876dffffffffffffffffffffffffffff16896dffffffffffffffffffffffffffff16612e2790919063ffffffff16565b612e2790919063ffffffff16565b610c798284612e2790919063ffffffff16565b1015610cba576040517f08c379a0000000000000000000000000000000000000000000000000000000008152600401610cb19061453c565b60405180910390fd5b50505050505050505050505050508080610cd390614cd7565b91505061056f565b508060018251610ceb9190614b99565b81518110610d22577f4e487b7100000000000000000000000000000000000000000000000000000000600052603260045260246000fd5b6020026020010151915050919050565b610d3f8585858585612928565b5050505050565b606082821015610d8b576040517f08c379a0000000000000000000000000000000000000000000000000000000008152600401610d82906145fc565b60405180910390fd5b600060018484610d9b9190614b99565b610da59190614ab8565b67ffffffffffffffff811115610de4577f4e487b7100000000000000000000000000000000000000000000000000000000600052604160045260246000fd5b604051908082528060200260200182016040528015610e1d57816020015b610e0a613559565b815260200190600190039081610e025790505b50905060005b8151811015610e9e5760008582610e3a9190614ab8565b9050610e468782612528565b838381518110610e7f577f4e487b7100000000000000000000000000000000000000000000000000000000600052603260045260246000fd5b6020026020010181905250508080610e9690614cd7565b915050610e23565b50809150509392505050565b610eb2612e53565b73ffffffffffffffffffffffffffffffffffffffff16610ed06120d2565b73ffffffffffffffffffffffffffffffffffffffff1614610f26576040517f08c379a0000000000000000000000000000000000000000000000000000000008152600401610f1d906145dc565b60405180910390fd5b610f36610f316120d2565b61167b565b565b610f458585858585612928565b5050505050565b6000610f6082610f5b90614c51565b6110b5565b905061100b81838060200190610f7691906147e3565b80806020026020016040519081016040528093929190818152602001838360200280828437600081840152601f19601f82011690508083019250505050505050848060400190610fc691906147e3565b80806020026020016040519081016040528093929190818152602001838360200280828437600081840152601f19601f82011690508083019250505050505050612e5b565b5050565b61101c8585858585612928565b5050505050565b61102b612e53565b73ffffffffffffffffffffffffffffffffffffffff166110496120d2565b73ffffffffffffffffffffffffffffffffffffffff161461109f576040517f08c379a0000000000000000000000000000000000000000000000000000000008152600401611096906145dc565b60405180910390fd5b6110b182826110ac6120d2565b611784565b5050565b606060028260200151511015611100576040517f08c379a00000000000000000000000000000000000000000000000000000000081526004016110f79061455c565b60405180910390fd5b81604001515160018360200151516111189190614b99565b14611158576040517f08c379a000000000000000000000000000000000000000000000000000000000815260040161114f906145bc565b60405180910390fd5b600082602001515167ffffffffffffffff81111561119f577f4e487b7100000000000000000000000000000000000000000000000000000000600052604160045260246000fd5b6040519080825280602002602001820160405280156111cd5781602001602082028036833780820191505090505b50905082600001518160008151811061120f577f4e487b7100000000000000000000000000000000000000000000000000000000600052603260045260246000fd5b60200260200101818152505060005b8360400151518110156115e9576000600267ffffffffffffffff81111561126e577f4e487b7100000000000000000000000000000000000000000000000000000000600052604160045260246000fd5b60405190808252806020026020018201604052801561129c5781602001602082028036833780820191505090505b509050846020015182815181106112dc577f4e487b7100000000000000000000000000000000000000000000000000000000600052603260045260246000fd5b60200260200101518160008151811061131e577f4e487b7100000000000000000000000000000000000000000000000000000000600052603260045260246000fd5b602002602001019073ffffffffffffffffffffffffffffffffffffffff16908173ffffffffffffffffffffffffffffffffffffffff1681525050846020015160018361136a9190614ab8565b815181106113a1577f4e487b7100000000000000000000000000000000000000000000000000000000600052603260045260246000fd5b6020026020010151816001815181106113e3577f4e487b7100000000000000000000000000000000000000000000000000000000600052603260045260246000fd5b602002602001019073ffffffffffffffffffffffffffffffffffffffff16908173ffffffffffffffffffffffffffffffffffffffff168152505060008560400151838151811061145c577f4e487b7100000000000000000000000000000000000000000000000000000000600052603260045260246000fd5b602002602001015173ffffffffffffffffffffffffffffffffffffffff1663d06ca61f8585815181106114b8577f4e487b7100000000000000000000000000000000000000000000000000000000600052603260045260246000fd5b6020026020010151846040518363ffffffff1660e01b81526004016114de92919061471b565b60006040518083038186803b1580156114f657600080fd5b505afa15801561150a573d6000803e3d6000fd5b505050506040513d6000823e3d601f19601f820116820180604052508101906115339190613be7565b905080600182516115449190614b99565b8151811061157b577f4e487b7100000000000000000000000000000000000000000000000000000000600052603260045260246000fd5b6020026020010151846001856115919190614ab8565b815181106115c8577f4e487b7100000000000000000000000000000000000000000000000000000000600052603260045260246000fd5b602002602001018181525050505080806115e190614cd7565b91505061121e565b5080915050919050565b6115fb612e53565b73ffffffffffffffffffffffffffffffffffffffff166116196120d2565b73ffffffffffffffffffffffffffffffffffffffff161461166f576040517f08c379a0000000000000000000000000000000000000000000000000000000008152600401611666906145dc565b60405180910390fd5b6116796000613395565b565b611683612e53565b73ffffffffffffffffffffffffffffffffffffffff166116a16120d2565b73ffffffffffffffffffffffffffffffffffffffff16146116f7576040517f08c379a00000000000000000000000000000000000000000000000000000000081526004016116ee906145dc565b60405180910390fd5b6000471161173a576040517f08c379a00000000000000000000000000000000000000000000000000000000081526004016117319061463c565b60405180910390fd5b8073ffffffffffffffffffffffffffffffffffffffff166108fc479081150290604051600060405180830381858888f19350505050158015611780573d6000803e3d6000fd5b5050565b61178c612e53565b73ffffffffffffffffffffffffffffffffffffffff166117aa6120d2565b73ffffffffffffffffffffffffffffffffffffffff1614611800576040517f08c379a00000000000000000000000000000000000000000000000000000000081526004016117f7906145dc565b60405180910390fd5b60005b838390508110156119e3576000848483818110611849577f4e487b7100000000000000000000000000000000000000000000000000000000600052603260045260246000fd5b905060200201602081019061185e91906139a8565b73ffffffffffffffffffffffffffffffffffffffff166370a08231306040518263ffffffff1660e01b815260040161189691906143e8565b60206040518083038186803b1580156118ae57600080fd5b505afa1580156118c2573d6000803e3d6000fd5b505050506040513d601f19601f820116820180604052508101906118e69190613d63565b905060008111156119cf5784848381811061192a577f4e487b7100000000000000000000000000000000000000000000000000000000600052603260045260246000fd5b905060200201602081019061193f91906139a8565b73ffffffffffffffffffffffffffffffffffffffff166323b872dd3085846040518463ffffffff1660e01b815260040161197b9392919061442c565b602060405180830381600087803b15801561199557600080fd5b505af11580156119a9573d6000803e3d6000fd5b505050506040513d601f19601f820116820180604052508101906119cd9190613c28565b505b5080806119db90614cd7565b915050611803565b50505050565b60038180602001906119fb91906147e3565b90501015611a3e576040517f08c379a0000000000000000000000000000000000000000000000000000000008152600401611a359061455c565b60405180910390fd5b808060200190611a4e91906147e3565b6001838060200190611a6091906147e3565b9050611a6c9190614b99565b818110611aa2577f4e487b7100000000000000000000000000000000000000000000000000000000600052603260045260246000fd5b9050602002016020810190611ab791906139a8565b73ffffffffffffffffffffffffffffffffffffffff16818060200190611add91906147e3565b6000818110611b15577f4e487b7100000000000000000000000000000000000000000000000000000000600052603260045260246000fd5b9050602002016020810190611b2a91906139a8565b73ffffffffffffffffffffffffffffffffffffffff1614611b80576040517f08c379a0000000000000000000000000000000000000000000000000000000008152600401611b779061461c565b60405180910390fd5b6000818060200190611b9291906147e3565b6000818110611bca577f4e487b7100000000000000000000000000000000000000000000000000000000600052603260045260246000fd5b9050602002016020810190611bdf91906139a8565b9050600082600001359050600073dac17f958d2ee523a2206206994597c13d831ec79050600073d9e1ce17f2641f24ae83637ab66a2cca9c378b9f905060007306da0fd433c1a5d7a4faa01111c044910a18455390506000808685915091506000611c4a8383612be1565b5090508773ffffffffffffffffffffffffffffffffffffffff168173ffffffffffffffffffffffffffffffffffffffff161415611d17578373ffffffffffffffffffffffffffffffffffffffff1663022c0d9f886000308d604051602001611cb291906146de565b6040516020818303038152906040526040518563ffffffff1660e01b8152600401611ce0949392919061474b565b600060405180830381600087803b158015611cfa57600080fd5b505af1158015611d0e573d6000803e3d6000fd5b50505050611da9565b8373ffffffffffffffffffffffffffffffffffffffff1663022c0d9f600089308d604051602001611d4891906146de565b6040516020818303038152906040526040518563ffffffff1660e01b8152600401611d7694939291906144d0565b600060405180830381600087803b158015611d9057600080fd5b505af1158015611da4573d6000803e3d6000fd5b505050505b8773ffffffffffffffffffffffffffffffffffffffff1663a9059cbb338a73ffffffffffffffffffffffffffffffffffffffff166370a08231306040518263ffffffff1660e01b8152600401611dff91906143e8565b60206040518083038186803b158015611e1757600080fd5b505afa158015611e2b573d6000803e3d6000fd5b505050506040513d601f19601f82011682018060405250810190611e4f9190613d63565b6040518363ffffffff1660e01b8152600401611e6c929190614463565b602060405180830381600087803b158015611e8657600080fd5b505af1158015611e9a573d6000803e3d6000fd5b505050506040513d601f19601f82011682018060405250810190611ebe9190613c28565b50505050505050505050565b606060008383905067ffffffffffffffff811115611f11577f4e487b7100000000000000000000000000000000000000000000000000000000600052604160045260246000fd5b604051908082528060200260200182016040528015611f3f5781602001602082028036833780820191505090505b50905060005b848490508110156120c7573073ffffffffffffffffffffffffffffffffffffffff166309d35296868684818110611fa5577f4e487b7100000000000000000000000000000000000000000000000000000000600052603260045260246000fd5b9050602002810190611fb7919061483a565b6040518263ffffffff1660e01b8152600401611fd391906146de565b60206040518083038186803b158015611feb57600080fd5b505afa92505050801561201c57506040513d601f19601f820116820180604052508101906120199190613d63565b60015b61206c57600082828151811061205b577f4e487b7100000000000000000000000000000000000000000000000000000000600052603260045260246000fd5b6020026020010181815250506120b4565b808383815181106120a6577f4e487b7100000000000000000000000000000000000000000000000000000000600052603260045260246000fd5b602002602001018181525050505b80806120bf90614cd7565b915050611f45565b508091505092915050565b60008060009054906101000a900473ffffffffffffffffffffffffffffffffffffffff16905090565b60038160200151511015612144576040517f08c379a000000000000000000000000000000000000000000000000000000000815260040161213b9061455c565b60405180910390fd5b8060200151600182602001515161215b9190614b99565b81518110612192577f4e487b7100000000000000000000000000000000000000000000000000000000600052603260045260246000fd5b602002602001015173ffffffffffffffffffffffffffffffffffffffff1681602001516000815181106121ee577f4e487b7100000000000000000000000000000000000000000000000000000000600052603260045260246000fd5b602002602001015173ffffffffffffffffffffffffffffffffffffffff161461224c576040517f08c379a00000000000000000000000000000000000000000000000000000000081526004016122439061461c565b60405180910390fd5b6000612257826110b5565b905080600081518110612293577f4e487b7100000000000000000000000000000000000000000000000000000000600052603260045260246000fd5b602002602001015181600183516122aa9190614b99565b815181106122e1577f4e487b7100000000000000000000000000000000000000000000000000000000600052603260045260246000fd5b602002602001015111612329576040517f08c379a00000000000000000000000000000000000000000000000000000000081526004016123209061465c565b60405180910390fd5b60008260200151600081518110612369577f4e487b7100000000000000000000000000000000000000000000000000000000600052603260045260246000fd5b602002602001015173ffffffffffffffffffffffffffffffffffffffff166370a08231306040518263ffffffff1660e01b81526004016123a991906143e8565b60206040518083038186803b1580156123c157600080fd5b505afa1580156123d5573d6000803e3d6000fd5b505050506040513d601f19601f820116820180604052508101906123f99190613d63565b905061240e8284602001518560400151612e5b565b6000836020015160008151811061244e577f4e487b7100000000000000000000000000000000000000000000000000000000600052603260045260246000fd5b602002602001015173ffffffffffffffffffffffffffffffffffffffff166370a08231306040518263ffffffff1660e01b815260040161248e91906143e8565b60206040518083038186803b1580156124a657600080fd5b505afa1580156124ba573d6000803e3d6000fd5b505050506040513d601f19601f820116820180604052508101906124de9190613d63565b9050818111612522576040517f08c379a00000000000000000000000000000000000000000000000000000000081526004016125199061457c565b60405180910390fd5b50505050565b612530613559565b60008373ffffffffffffffffffffffffffffffffffffffff16631e3dd18b846040518263ffffffff1660e01b815260040161256b9190614700565b60206040518083038186803b15801561258357600080fd5b505afa158015612597573d6000803e3d6000fd5b505050506040513d601f19601f820116820180604052508101906125bb91906139d1565b905060008173ffffffffffffffffffffffffffffffffffffffff16630dfe16816040518163ffffffff1660e01b815260040160206040518083038186803b15801561260557600080fd5b505afa158015612619573d6000803e3d6000fd5b505050506040513d601f19601f8201168201806040525081019061263d91906139d1565b9050600061264a82613459565b905060008373ffffffffffffffffffffffffffffffffffffffff1663d21220a76040518163ffffffff1660e01b815260040160206040518083038186803b15801561269457600080fd5b505afa1580156126a8573d6000803e3d6000fd5b505050506040513d601f19601f820116820180604052508101906126cc91906139d1565b905060006126d982613459565b90506000808673ffffffffffffffffffffffffffffffffffffffff16630902f1ac6040518163ffffffff1660e01b815260040160606040518083038186803b15801561272457600080fd5b505afa158015612738573d6000803e3d6000fd5b505050506040513d601f19601f8201168201806040525081019061275c9190613d14565b50915091506040518060e001604052808873ffffffffffffffffffffffffffffffffffffffff1681526020018773ffffffffffffffffffffffffffffffffffffffff1681526020018573ffffffffffffffffffffffffffffffffffffffff168152602001868152602001848152602001836dffffffffffffffffffffffffffff168152602001826dffffffffffffffffffffffffffff1681525097505050505050505092915050565b6128128585858585612928565b5050505050565b50565b6128298585858585612928565b5050505050565b612838612e53565b73ffffffffffffffffffffffffffffffffffffffff166128566120d2565b73ffffffffffffffffffffffffffffffffffffffff16146128ac576040517f08c379a00000000000000000000000000000000000000000000000000000000081526004016128a3906145dc565b60405180910390fd5b600073ffffffffffffffffffffffffffffffffffffffff168173ffffffffffffffffffffffffffffffffffffffff16141561291c576040517f08c379a00000000000000000000000000000000000000000000000000000000081526004016129139061451c565b60405180910390fd5b61292581613395565b50565b600067ffffffffffffffff811115612969577f4e487b7100000000000000000000000000000000000000000000000000000000600052604160045260246000fd5b6040519080825280601f01601f19166020018201604052801561299b5781602001600182028036833780820191505090505b508051906020012082826040516129b39291906143cf565b604051809103902014612bda5760003373ffffffffffffffffffffffffffffffffffffffff16630dfe16816040518163ffffffff1660e01b815260040160206040518083038186803b158015612a0857600080fd5b505afa158015612a1c573d6000803e3d6000fd5b505050506040513d601f19601f82011682018060405250810190612a4091906139d1565b905060003373ffffffffffffffffffffffffffffffffffffffff1663d21220a76040518163ffffffff1660e01b815260040160206040518083038186803b158015612a8a57600080fd5b505afa158015612a9e573d6000803e3d6000fd5b505050506040513d601f19601f82011682018060405250810190612ac291906139d1565b9050612adb8484810190612ad69190613cd3565b6120fb565b600060016103e5600360008a11612af25788612af4565b895b612afe9190614b3f565b612b089190614b0e565b612b129190614ab8565b905060008160008911612b255787612b27565b885b612b319190614ab8565b90506000808911612b425783612b44565b845b90508073ffffffffffffffffffffffffffffffffffffffff1663a9059cbb33846040518363ffffffff1660e01b8152600401612b81929190614463565b602060405180830381600087803b158015612b9b57600080fd5b505af1158015612baf573d6000803e3d6000fd5b505050506040513d601f19601f82011682018060405250810190612bd39190613c28565b5050505050505b5050505050565b6000808273ffffffffffffffffffffffffffffffffffffffff168473ffffffffffffffffffffffffffffffffffffffff161415612c53576040517f08c379a0000000000000000000000000000000000000000000000000000000008152600401612c4a9061459c565b60405180910390fd5b8273ffffffffffffffffffffffffffffffffffffffff168473ffffffffffffffffffffffffffffffffffffffff1610612c8d578284612c90565b83835b8092508193505050600073ffffffffffffffffffffffffffffffffffffffff168273ffffffffffffffffffffffffffffffffffffffff161415612d08576040517f08c379a0000000000000000000000000000000000000000000000000000000008152600401612cff9061467c565b60405180910390fd5b9250929050565b6000808473ffffffffffffffffffffffffffffffffffffffff1663c45a01556040518163ffffffff1660e01b815260040160206040518083038186803b158015612d5857600080fd5b505afa158015612d6c573d6000803e3d6000fd5b505050506040513d601f19601f82011682018060405250810190612d9091906139d1565b90508073ffffffffffffffffffffffffffffffffffffffff1663e6a4390585856040518363ffffffff1660e01b8152600401612dcd929190614403565b60206040518083038186803b158015612de557600080fd5b505afa158015612df9573d6000803e3d6000fd5b505050506040513d601f19601f82011682018060405250810190612e1d91906139d1565b9150509392505050565b60008183612e359190614b3f565b905092915050565b60008183612e4b9190614b99565b905092915050565b600033905090565b6000612f2b82600081518110612e9a577f4e487b7100000000000000000000000000000000000000000000000000000000600052603260045260246000fd5b602002602001015184600081518110612edc577f4e487b7100000000000000000000000000000000000000000000000000000000600052603260045260246000fd5b602002602001015185600181518110612f1e577f4e487b7100000000000000000000000000000000000000000000000000000000600052603260045260246000fd5b6020026020010151612d0f565b905082600081518110612f67577f4e487b7100000000000000000000000000000000000000000000000000000000600052603260045260246000fd5b602002602001015173ffffffffffffffffffffffffffffffffffffffff1663a9059cbb8286600081518110612fc5577f4e487b7100000000000000000000000000000000000000000000000000000000600052603260045260246000fd5b60200260200101516040518363ffffffff1660e01b8152600401612fea929190614463565b602060405180830381600087803b15801561300457600080fd5b505af1158015613018573d6000803e3d6000fd5b505050506040513d601f19601f8201168201806040525081019061303c9190613c28565b5060005b825181101561338e57600080858381518110613085577f4e487b7100000000000000000000000000000000000000000000000000000000600052603260045260246000fd5b60200260200101518660018561309b9190614ab8565b815181106130d2577f4e487b7100000000000000000000000000000000000000000000000000000000600052603260045260246000fd5b60200260200101519150915060006130ea8383612be1565b5090506000886001866130fd9190614ab8565b81518110613134577f4e487b7100000000000000000000000000000000000000000000000000000000600052603260045260246000fd5b602002602001015190506000808373ffffffffffffffffffffffffffffffffffffffff168673ffffffffffffffffffffffffffffffffffffffff161461317c57826000613180565b6000835b91509150600060018a516131949190614b99565b88106131a05730613244565b6132438a60018a6131b19190614ab8565b815181106131e8577f4e487b7100000000000000000000000000000000000000000000000000000000600052603260045260246000fd5b6020026020010151878d60028c6131ff9190614ab8565b81518110613236577f4e487b7100000000000000000000000000000000000000000000000000000000600052603260045260246000fd5b6020026020010151612d0f565b5b90506132918a8981518110613282577f4e487b7100000000000000000000000000000000000000000000000000000000600052603260045260246000fd5b60200260200101518888612d0f565b73ffffffffffffffffffffffffffffffffffffffff1663022c0d9f848484600067ffffffffffffffff8111156132f0577f4e487b7100000000000000000000000000000000000000000000000000000000600052604160045260246000fd5b6040519080825280601f01601f1916602001820160405280156133225781602001600182028036833780820191505090505b506040518563ffffffff1660e01b81526004016133429493929190614797565b600060405180830381600087803b15801561335c57600080fd5b505af1158015613370573d6000803e3d6000fd5b5050505050505050505050808061338690614cd7565b915050613040565b5050505050565b60008060009054906101000a900473ffffffffffffffffffffffffffffffffffffffff169050816000806101000a81548173ffffffffffffffffffffffffffffffffffffffff021916908373ffffffffffffffffffffffffffffffffffffffff1602179055508173ffffffffffffffffffffffffffffffffffffffff168173ffffffffffffffffffffffffffffffffffffffff167f8be0079c531659141344cd1fd0a4f28419497f9722a3daafe3b4186f6b6457e060405160405180910390a35050565b606061347a8273ffffffffffffffffffffffffffffffffffffffff16613536565b61349557604051806020016040528060008152509050613531565b8173ffffffffffffffffffffffffffffffffffffffff166395d89b416040518163ffffffff1660e01b815260040160006040518083038186803b1580156134db57600080fd5b505afa92505050801561351157506040513d6000823e3d601f19601f8201168201806040525081019061350e9190613c51565b60015b61352c57604051806020016040528060008152509050613531565b809150505b919050565b6000808273ffffffffffffffffffffffffffffffffffffffff163b119050919050565b6040518060e00160405280600073ffffffffffffffffffffffffffffffffffffffff168152602001600073ffffffffffffffffffffffffffffffffffffffff168152602001600073ffffffffffffffffffffffffffffffffffffffff168152602001606081526020016060815260200160006dffffffffffffffffffffffffffff16815260200160006dffffffffffffffffffffffffffff1681525090565b600061360b61360684614883565b61485e565b9050808382526020820190508285602086028201111561362a57600080fd5b60005b8581101561365a5781613640888261370e565b84526020840193506020830192505060018101905061362d565b5050509392505050565b6000613677613672846148af565b61485e565b9050808382526020820190508285602086028201111561369657600080fd5b60005b858110156136c657816136ac888261397e565b845260208401935060208301925050600181019050613699565b5050509392505050565b60006136e36136de846148db565b61485e565b9050828152602081018484840111156136fb57600080fd5b613706848285614c73565b509392505050565b60008135905061371d8161501f565b92915050565b6000815190506137328161501f565b92915050565b60008083601f84011261374a57600080fd5b8235905067ffffffffffffffff81111561376357600080fd5b60208301915083602082028301111561377b57600080fd5b9250929050565b600082601f83011261379357600080fd5b81356137a38482602086016135f8565b91505092915050565b60008083601f8401126137be57600080fd5b8235905067ffffffffffffffff8111156137d757600080fd5b6020830191508360208202830111156137ef57600080fd5b9250929050565b600082601f83011261380757600080fd5b8151613817848260208601613664565b91505092915050565b60008151905061382f81615036565b92915050565b60008083601f84011261384757600080fd5b8235905067ffffffffffffffff81111561386057600080fd5b60208301915083600182028301111561387857600080fd5b9250929050565b600082601f83011261389057600080fd5b81516138a08482602086016136d0565b91505092915050565b6000606082840312156138bb57600080fd5b81905092915050565b6000606082840312156138d657600080fd5b6138e0606061485e565b905060006138f084828501613969565b600083015250602082013567ffffffffffffffff81111561391057600080fd5b61391c84828501613782565b602083015250604082013567ffffffffffffffff81111561393c57600080fd5b61394884828501613782565b60408301525092915050565b6000815190506139638161504d565b92915050565b60008135905061397881615064565b92915050565b60008151905061398d81615064565b92915050565b6000815190506139a28161507b565b92915050565b6000602082840312156139ba57600080fd5b60006139c88482850161370e565b91505092915050565b6000602082840312156139e357600080fd5b60006139f184828501613723565b91505092915050565b60008060408385031215613a0d57600080fd5b6000613a1b8582860161370e565b9250506020613a2c85828601613969565b9150509250929050565b600080600060608486031215613a4b57600080fd5b6000613a598682870161370e565b9350506020613a6a86828701613969565b9250506040613a7b86828701613969565b9150509250925092565b600080600080600060808688031215613a9d57600080fd5b6000613aab8882890161370e565b9550506020613abc88828901613969565b9450506040613acd88828901613969565b935050606086013567ffffffffffffffff811115613aea57600080fd5b613af688828901613835565b92509250509295509295909350565b60008060208385031215613b1857600080fd5b600083013567ffffffffffffffff811115613b3257600080fd5b613b3e85828601613738565b92509250509250929050565b600080600060408486031215613b5f57600080fd5b600084013567ffffffffffffffff811115613b7957600080fd5b613b8586828701613738565b93509350506020613b988682870161370e565b9150509250925092565b60008060208385031215613bb557600080fd5b600083013567ffffffffffffffff811115613bcf57600080fd5b613bdb858286016137ac565b92509250509250929050565b600060208284031215613bf957600080fd5b600082015167ffffffffffffffff811115613c1357600080fd5b613c1f848285016137f6565b91505092915050565b600060208284031215613c3a57600080fd5b6000613c4884828501613820565b91505092915050565b600060208284031215613c6357600080fd5b600082015167ffffffffffffffff811115613c7d57600080fd5b613c898482850161387f565b91505092915050565b600060208284031215613ca457600080fd5b600082013567ffffffffffffffff811115613cbe57600080fd5b613cca848285016138a9565b91505092915050565b600060208284031215613ce557600080fd5b600082013567ffffffffffffffff811115613cff57600080fd5b613d0b848285016138c4565b91505092915050565b600080600060608486031215613d2957600080fd5b6000613d3786828701613954565b9350506020613d4886828701613954565b9250506040613d5986828701613993565b9150509250925092565b600060208284031215613d7557600080fd5b6000613d838482850161397e565b91505092915050565b6000613d988383613dd0565b60208301905092915050565b6000613db083836141e9565b905092915050565b6000613dc483836143b1565b60208301905092915050565b613dd981614bcd565b82525050565b613de881614bcd565b82525050565b6000613dfa83856149b1565b9350613e058261490c565b8060005b85811015613e3e57613e1b8284614a33565b613e258882613d8c565b9750613e308361497d565b925050600181019050613e09565b5085925050509392505050565b6000613e5682614946565b613e6081856149c2565b9350613e6b83614916565b8060005b83811015613e9c578151613e838882613d8c565b9750613e8e8361498a565b925050600181019050613e6f565b5085935050505092915050565b6000613eb482614951565b613ebe81856149d3565b935083602082028501613ed085614926565b8060005b85811015613f0c5784840389528151613eed8582613da4565b9450613ef883614997565b925060208a01995050600181019050613ed4565b50829750879550505050505092915050565b6000613f298261495c565b613f3381856149e4565b9350613f3e83614936565b8060005b83811015613f6f578151613f568882613db8565b9750613f61836149a4565b925050600181019050613f42565b5085935050505092915050565b6000613f888385614a06565b9350613f95838584614c64565b82840190509392505050565b6000613fac82614967565b613fb681856149f5565b9350613fc6818560208601614c73565b613fcf81614dad565b840191505092915050565b613fe381614c3f565b82525050565b6000613ff482614972565b613ffe8185614a11565b935061400e818560208601614c73565b61401781614dad565b840191505092915050565b600061402f602683614a22565b915061403a82614dbe565b604082019050919050565b6000614052600b83614a22565b915061405d82614e0d565b602082019050919050565b6000614075600a83614a22565b915061408082614e36565b602082019050919050565b6000614098601183614a22565b91506140a382614e5f565b602082019050919050565b60006140bb602583614a22565b91506140c682614e88565b604082019050919050565b60006140de600c83614a22565b91506140e982614ed7565b602082019050919050565b6000614101602083614a22565b915061410c82614f00565b602082019050919050565b6000614124600b83614a22565b915061412f82614f29565b602082019050919050565b6000614147600b83614a22565b915061415282614f52565b602082019050919050565b600061416a601483614a22565b915061417582614f7b565b602082019050919050565b600061418d600c83614a22565b915061419882614fa4565b602082019050919050565b60006141b0601e83614a22565b91506141bb82614fcd565b602082019050919050565b60006141d3602083614a22565b91506141de82614ff6565b602082019050919050565b600060e0830160008301516142016000860182613dd0565b5060208301516142146020860182613dd0565b5060408301516142276040860182613dd0565b506060830151848203606086015261423f8282613fe9565b915050608083015184820360808601526142598282613fe9565b91505060a083015161426e60a08601826143a2565b5060c083015161428160c08601826143a2565b508091505092915050565b600060e0830160008301516142a46000860182613dd0565b5060208301516142b76020860182613dd0565b5060408301516142ca6040860182613dd0565b50606083015184820360608601526142e28282613fe9565b915050608083015184820360808601526142fc8282613fe9565b91505060a083015161431160a08601826143a2565b5060c083015161432460c08601826143a2565b508091505092915050565b6000606083016143426000840184614aa1565b61434f60008601826143b1565b5061435d6020840184614a4a565b8583036020870152614370838284613dee565b925050506143816040840184614a4a565b8583036040870152614394838284613dee565b925050508091505092915050565b6143ab81614beb565b82525050565b6143ba81614c25565b82525050565b6143c981614c25565b82525050565b60006143dc828486613f7c565b91508190509392505050565b60006020820190506143fd6000830184613ddf565b92915050565b60006040820190506144186000830185613ddf565b6144256020830184613ddf565b9392505050565b60006060820190506144416000830186613ddf565b61444e6020830185613ddf565b61445b60408301846143c0565b949350505050565b60006040820190506144786000830185613ddf565b61448560208301846143c0565b9392505050565b600060208201905081810360008301526144a68184613ea9565b905092915050565b600060208201905081810360008301526144c88184613f1e565b905092915050565b60006080820190506144e56000830187613fda565b6144f260208301866143c0565b6144ff6040830185613ddf565b81810360608301526145118184613fa1565b905095945050505050565b6000602082019050818103600083015261453581614022565b9050919050565b6000602082019050818103600083015261455581614045565b9050919050565b6000602082019050818103600083015261457581614068565b9050919050565b600060208201905081810360008301526145958161408b565b9050919050565b600060208201905081810360008301526145b5816140ae565b9050919050565b600060208201905081810360008301526145d5816140d1565b9050919050565b600060208201905081810360008301526145f5816140f4565b9050919050565b6000602082019050818103600083015261461581614117565b9050919050565b600060208201905081810360008301526146358161413a565b9050919050565b600060208201905081810360008301526146558161415d565b9050919050565b6000602082019050818103600083015261467581614180565b9050919050565b60006020820190508181036000830152614695816141a3565b9050919050565b600060208201905081810360008301526146b5816141c6565b9050919050565b600060208201905081810360008301526146d6818461428c565b905092915050565b600060208201905081810360008301526146f8818461432f565b905092915050565b600060208201905061471560008301846143c0565b92915050565b600060408201905061473060008301856143c0565b81810360208301526147428184613e4b565b90509392505050565b600060808201905061476060008301876143c0565b61476d6020830186613fda565b61477a6040830185613ddf565b818103606083015261478c8184613fa1565b905095945050505050565b60006080820190506147ac60008301876143c0565b6147b960208301866143c0565b6147c66040830185613ddf565b81810360608301526147d88184613fa1565b905095945050505050565b600080833560016020038436030381126147fc57600080fd5b80840192508235915067ffffffffffffffff82111561481a57600080fd5b60208301925060208202360383131561483257600080fd5b509250929050565b60008235600160600383360303811261485257600080fd5b80830191505092915050565b6000614868614879565b90506148748282614ca6565b919050565b6000604051905090565b600067ffffffffffffffff82111561489e5761489d614d7e565b5b602082029050602081019050919050565b600067ffffffffffffffff8211156148ca576148c9614d7e565b5b602082029050602081019050919050565b600067ffffffffffffffff8211156148f6576148f5614d7e565b5b6148ff82614dad565b9050602081019050919050565b6000819050919050565b6000819050602082019050919050565b6000819050602082019050919050565b6000819050602082019050919050565b600081519050919050565b600081519050919050565b600081519050919050565b600081519050919050565b600081519050919050565b6000602082019050919050565b6000602082019050919050565b6000602082019050919050565b6000602082019050919050565b600082825260208201905092915050565b600082825260208201905092915050565b600082825260208201905092915050565b600082825260208201905092915050565b600082825260208201905092915050565b600081905092915050565b600082825260208201905092915050565b600082825260208201905092915050565b6000614a42602084018461370e565b905092915050565b60008083356001602003843603038112614a6357600080fd5b83810192508235915060208301925067ffffffffffffffff821115614a8757600080fd5b602082023603841315614a9957600080fd5b509250929050565b6000614ab06020840184613969565b905092915050565b6000614ac382614c25565b9150614ace83614c25565b9250827fffffffffffffffffffffffffffffffffffffffffffffffffffffffffffffffff03821115614b0357614b02614d20565b5b828201905092915050565b6000614b1982614c25565b9150614b2483614c25565b925082614b3457614b33614d4f565b5b828204905092915050565b6000614b4a82614c25565b9150614b5583614c25565b9250817fffffffffffffffffffffffffffffffffffffffffffffffffffffffffffffffff0483118215151615614b8e57614b8d614d20565b5b828202905092915050565b6000614ba482614c25565b9150614baf83614c25565b925082821015614bc257614bc1614d20565b5b828203905092915050565b6000614bd882614c05565b9050919050565b60008115159050919050565b60006dffffffffffffffffffffffffffff82169050919050565b600073ffffffffffffffffffffffffffffffffffffffff82169050919050565b6000819050919050565b600063ffffffff82169050919050565b6000614c4a82614c25565b9050919050565b6000614c5d36836138c4565b9050919050565b82818337600083830152505050565b60005b83811015614c91578082015181840152602081019050614c76565b83811115614ca0576000848401525b50505050565b614caf82614dad565b810181811067ffffffffffffffff82111715614cce57614ccd614d7e565b5b80604052505050565b6000614ce282614c25565b91507fffffffffffffffffffffffffffffffffffffffffffffffffffffffffffffffff821415614d1557614d14614d20565b5b600182019050919050565b7f4e487b7100000000000000000000000000000000000000000000000000000000600052601160045260246000fd5b7f4e487b7100000000000000000000000000000000000000000000000000000000600052601260045260246000fd5b7f4e487b7100000000000000000000000000000000000000000000000000000000600052604160045260246000fd5b6000601f19601f8301169050919050565b7f4f776e61626c653a206e6577206f776e657220697320746865207a65726f206160008201527f6464726573730000000000000000000000000000000000000000000000000000602082015250565b7f466c617368426f743a204b000000000000000000000000000000000000000000600082015250565b7f50415448204552524f5200000000000000000000000000000000000000000000600082015250565b7f415242495452414745204641494c555245000000000000000000000000000000600082015250565b7f556e697377617056324c6962726172793a204944454e544943414c5f4144445260008201527f4553534553000000000000000000000000000000000000000000000000000000602082015250565b7f524f55544552204552524f520000000000000000000000000000000000000000600082015250565b7f4f776e61626c653a2063616c6c6572206973206e6f7420746865206f776e6572600082015250565b7f494e444558204552524f52000000000000000000000000000000000000000000600082015250565b7f544f4b454e204552524f52000000000000000000000000000000000000000000600082015250565b7f494e53554646494349454e542042414c414e4345000000000000000000000000600082015250565b7f4e4f204152424954524147450000000000000000000000000000000000000000600082015250565b7f556e697377617056324c6962726172793a205a45524f5f414444524553530000600082015250565b7f466c617368426f743a20494e53554646494349454e545f4c4951554944495459600082015250565b61502881614bcd565b811461503357600080fd5b50565b61503f81614bdf565b811461504a57600080fd5b50565b61505681614beb565b811461506157600080fd5b50565b61506d81614c25565b811461507857600080fd5b50565b61508481614c2f565b811461508f57600080fd5b5056fea2646970667358221220c371b108ff84ef44892d125469a4a7abe2d409c0e4c3c83cc08b6528075b062864736f6c63430008040033",
  "linkReferences": {},
  "deployedLinkReferences": {}
}